:100000000C9462010C948A060C947F010C947F017D
:100010000C947F010C947F010C947F010C947F0160
:100020000C947F010C947F010C947F010C947F0150
:100030000C947F010C947F010C94AF100C947F0101
:100040000C947F010C947F010C9403130C943013D7
:100050000C947F010C947F010C947F010C947F0120
:100060000C947F010C947F0108000000BE9224498B
:10007000123EABAAAA2ABECDCCCC4C3E00000080DA
:10008000BEABAAAAAA3E00000000BF000000803F4D
:100090000000000000084178D3BB4387D1133D190D
:1000A0000E3CC3BD4282AD2B3E68EC8276BED98F3A
:1000B000E1A93E4C80EFFFBE01C4FF7F3F0000007E
:1000C00000006E616E00696E660000407A10F35A9F
:1000D00000A0724E18090010A5D4E80000E8764888
:1000E000170000E40B54020000CA9A3B000000E134
:1000F000F505000080969800000040420F000000C7
:10010000A08601000000102700000000E8030000A6
:1001100000006400000000000A0000000000010070
:10012000000000002C76D888DC674F0823DFC1DF91
:10013000AE59E1B1B796E5E3E453C63AE651997694
:1001400096E8E6C28426EB898C9B62ED407C6FFCCE
:10015000EFBC9C9F40F2BAA56FA5F490055A2AF710
:100160005C936B6CF9676DC11BFCE0E40D47FEF519
:1001700020E6B500D0ED902E030094357705008081
:10018000841E080000204E0A000000C80C333333E0
:10019000330F986E12831141EF8D2114893BE65580
:1001A00016CFFEE6DB18D1844B381BF77C1D901D63
:1001B000A4BBE424203284725E228100C9F124ECC5
:1001C000A1E53D27005EBCE2613FDD83C29C7E204D
:1001D000A3FD1F419DC3217FFCA2401E5F01E3BD23
:1001E0003E6082DC237D9FC1421CFEA0E1BF5D0317
:1001F00080DE3C62BEE0025CDF81633D7C22C09E0B
:100200001D43A1FF4618FAA427799BC584DA3866F6
:10021000E5BB5907DB856739BAE406581947A5FBE2
:100220007826C49A653BD987045AB8E6A7F91B45D6
:10023000C6987A24F8A6441A99C7257B3A6486D8CA
:100240005B05E7B98CD2306EEDB3510F4E10F2ACB6
:100250002F7193CD114FADF3702ECC92D38D6F31A2
:10026000B2EC0E50AFF1134DCE90722C6D33D18F96
:100270000C52B0EE326C8ED0530DEFB1F0AE4C128A
:1002800091CF2D73CA947628ABF517490856B4EA76
:100290006937D58B5709EBB536688AD495CB297762
:1002A000F4AA4816E9B7550B88D6346A2B7597C956
:1002B0004A14F6A8742AC896154BA9F7B6E80A544A
:1002C000D7896B3511241FBECFEFD8E0DEBFCDBF7D
:1002D00011E0A0E0B1E0E2E5F6E402C005900D9285
:1002E000A03BB107D9F722E0A0EBB1E001C01D921D
:1002F000A333B207E1F70E949F060C9427230C94C6
:100300000000A3E1B0E0E7E8F1E00C948B1B6C0186
:100310004B012A01FC0117821682838181FF43C3AE
:10032000AE014F5F5F4F3A01F6019381F40193FDF7
:10033000859193FF81914F01882309F430C3853261
:1003400039F493FD859193FF81914F01853239F402
:10035000B60190E00E942B2252012501E5CF10E06A
:10036000F12C20E02032A0F48B3269F030F480329E
:1003700059F0833269F420612CC08D3239F080331A
:1003800039F4216026C02260246023C0286021C087
:1003900027FD27C030ED380F3A3078F426FF06C02D
:1003A000FAE01F9F300D1124132F13C04AE0F49E72
:1003B000300D1124F32E20620CC08E3221F426FD64
:1003C000EEC2206406C08C3611F4206802C0883664
:1003D00041F4F40193FD859193FF81914F018111C7
:1003E000C1CF9BEB980F933018F42061805E06C05C
:1003F0009BE9980F933008F071C12F7E26FF16E01D
:100400002F73322E853619F42064322E08C08636BA
:1004100021F4F22FF0683F2E02C01111115037FE67
:1004200007C01C3350F4EE24E394E10E27E00BC028
:10043000183038F027E017E005C027E04CE3E42E41
:1004400002C0212FE12C520144E0A40EB11CF201A4
:1004500060817181828193810E2DA3010E94D7203A
:100460002C01098100FF02C003FF07C031FC08C056
:1004700032FE09C030E2232E07C02DE2222E04C036
:100480009BE2292E01C0212C802F8C7019F02110A5
:1004900068C2A8C237FE0FC0E40C04FF04C08A8102
:1004A000813309F4EA941E1474F5F8E0FE1578F52A
:1004B00088E0E82E2CC036FC2AC0812F90E08415FD
:1004C00095059CF02CEF42162FEF520674F0432D49
:1004D0004068342E0AC0E2E0F0E0EC0FFD1FE10FAF
:1004E000F11D8081803319F411501111F4CF37FEC2
:1004F0000EC0EE24E394E10E812F90E048165906D9
:100500002CF4141904C0EE24E39401C010E037FE6B
:1005100006C01414150434F4C201019605C085E028
:1005200090E002C081E090E021100196112331F0AB
:10053000212F30E02F5F3F4F820F931F2F2D30E090
:100540008217930714F4F81A01C0F12C832D8970D7
:1005500049F4FF2039F0B60180E290E00E942B229E
:10056000FA94F7CF222029F0B601822D90E00E9464
:100570002B2233FC09C0FF2039F0B60180E390E064
:100580000E942B22FA94F7CF37FE5AC0942D852D66
:1005900057FE02C090E080E0292E382E20E030E0A7
:1005A000A2014E1951095D874C87A20142195309D6
:1005B0005F874E87612F70E044275527461B570BF6
:1005C000598B488B5FEF2516350649F4B6018EE24C
:1005D00090E02A8B3B8B0E942B223B892A89421474
:1005E00053046CF04C855D854215530544F4EE854B
:1005F000FF85E20FF31FE60DF71D818101C080E347
:1006000051E0251A31082F5F3F4F48895989241638
:1006100035064CF0B60190E02A8B3B8B0E942B22D2
:100620002A893B89CFCF2414350439F49A81963333
:1006300018F4953311F404FF81E3B60190E04BC048
:100640008A81813309F00F7EB60190E00E942B224F
:10065000111105C034FC18C085E690E017C0B60142
:100660008EE290E00E942B2282E0EE24E394E80EDA
:10067000F301E80FF11D8081B60190E00E942B226A
:1006800011508E2D91F7E6CF85E490E0B6010E94DF
:100690002B2257FC05C04114510439F404FF05C056
:1006A0005194419451088DE201C08BE2B60190E073
:1006B0000E942B2280E39AE0491651042CF08F5FB0
:1006C0005AE0451A5108F7CFB60190E00E942B225C
:1006D000B601C201C0960E942B2257C1833631F069
:1006E000833779F0833509F058C021C05201E2E028
:1006F000AE0EB11CF2018081898301E010E023017C
:1007000014C05201F2E0AF0EB11CF20140805180E2
:1007100026FF03C0612F70E002C06FEF7FEFC201C0
:100720002A8B0E94D5218C012A892F7715C052016E
:10073000F2E0AF0EB11CF2014080518026FF03C0F1
:10074000612F70E002C06FEF7FEFC2012A8B0E9421
:10075000C1218C012A892068322E23FD1AC08F2DD9
:1007600090E008171907A8F4B60180E290E00E9413
:100770002B22FA94F4CFF20137FC859137FE819158
:100780002F01B60190E00E942B22F110FA94015043
:1007900011090115110579F7F8C0843611F0893671
:1007A00059F5520127FF09C0F4E0AF0EB11CF20168
:1007B00060817181828193810AC0F2E0AF0EB11C29
:1007C000F20160817181072E000C880B990B2F7646
:1007D000322E97FF09C090958095709561957F4F57
:1007E0008F4F9F4F2068322E2AE030E0A3010E94F5
:1007F0009322E82EE6183FC0022F853721F40F7EA2
:100800002AE030E01DC0097F8F3691F018F488355A
:1008100059F0C5C0803719F0883711F0C0C00061A9
:1008200004FF09C0046007C024FF08C0066006C0BA
:1008300028E030E005C020E130E002C020E132E0F5
:10084000520107FF09C0F4E0AF0EB11CF201608154
:1008500071818281938108C0F2E0AF0EB11CF20178
:100860006081718180E090E0A3010E949322E82ED4
:10087000E6180F77302E36FE0BC0332D3E7FE11683
:1008800050F434FE0AC032FC08C0332D3E7E05C051
:100890000E2D332D03C00E2D01C0012F34FF0CC0CF
:1008A000FE01EE0DF11D8081803311F4397E08C008
:1008B00032FF05C00E5F04C0832F867809F00F5FFA
:1008C00033FD13C030FF06C01E2D0F1518F41F0D89
:1008D000101B0F2D0F1568F4B60180E290E03B8BE2
:1008E0000E942B220F5F3B89F5CF0F1510F4F01AF1
:1008F00001C0F12C34FF12C0B60180E390E03B8BC5
:100900000E942B223B8932FF17C031FD03C088E7CC
:1009100090E002C088E590E0B6010CC0832F867895
:1009200059F031FF02C08BE201C080E237FD8DE259
:10093000B60190E00E942B22E11638F4B60180E364
:1009400090E00E942B221150F7CFEA94F301EE0DB4
:10095000F11D8081B60190E00E942B22E110F5CFBD
:1009600014C0F4E0FF1558F584E0F81A33FE1EC0F9
:10097000211026C003FF2AC002EC10E0F32DF07115
:100980003F2EF8018491811124C0FF2009F4E5CCA9
:10099000B60180E290E00E942B22FA94F6CFF60195
:1009A0008681978126C08FEF9FEF23C0B60180E23A
:1009B00090E00E942B22FA94F110F8CFD9CFF12CBD
:1009C000B601822D90E00E942B22D4CF06EC10E0DD
:1009D000D5CF31108052B60190E00E942B220F5FDC
:1009E0001F4FCFCF23E02F1510F483E0BECFF12CA3
:1009F000C1CF6396E2E10C94A71BCF92DF92EF92F6
:100A0000FF920F931F93CF93DF93CDB7DEB760971D
:100A10000FB6F894DEBF0FBECDBFAE01475F5F4F8C
:100A2000BE01635F7F4F8091F1019091F2010E94BE
:100A3000CA0B8091F1019091F2010E94A30B0985EC
:100A40001A852B853C854D855E856F857889FE01ED
:100A500031966F0134967F010E945C0C6D817E811E
:100A60008F81988560960FB6F894DEBF0FBECDBF1C
:100A7000DF91CF911F910F91FF90EF90DF90CF907A
:100A80000895CF92DF92EF92FF926B017C01CA0131
:100A9000B901A70196010E94431C0E94AA1D23E3ED
:100AA00033E343E951E40E94F21DFF90EF90DF90A1
:100AB000CF900895CF93C1E020E030E0A9010E94DB
:100AC0003E1C18160CF4C0E08C2FCF910895FC0149
:100AD00081E090819D3009F080E0089581E087B940
:100AE000409A0895CF92DF92EF92FF921F93CF9397
:100AF000DF93CDB7DEB764970FB6F894DEBF0FBEB5
:100B0000CDBF8091B001E1E0F0E0EC0FFD1F24E0EB
:100B1000829FE00DF11D11244091E6015091E70103
:100B20006091E8017091E90140835183628373838E
:100B3000843019F41092B00103C08F5F8093B0012C
:100B40001091B0019EEF910F97FF02C093E0910FBB
:100B50008CEF810F87FF02C081E0810FE1E0F0E0C0
:100B6000EC0FFD1F24E09202E00DF11D1124C08066
:100B7000D180E280F380E1E0F0E0EC0FFD1F94E033
:100B80008902E00DF11D1124A70196016081718198
:100B9000828193810E94D11B2AE037ED43E25CE31E
:100BA0000E949D1D1816D4F4E1E0F0E0EC0FFD1F4B
:100BB00024E0129FE00DF11D11242081318142813A
:100BC0005381C701B6010E94D11B11E02AE037ED25
:100BD00043E25CE30E949D1D18160CF010E0812F8B
:100BE00064960FB6F894DEBF0FBECDBFDF91CF91F4
:100BF0001F91FF90EF90DF90CF900895CF92DF92FA
:100C0000EF92FF921F93CF93DF93CDB7DEB7649738
:100C10000FB6F894DEBF0FBECDBF8091B001E1E00A
:100C2000F0E0EC0FFD1F24E0829FE00DF11D112488
:100C30004091E6015091E7016091E8017091E9016E
:100C40004083518362837383843019F41092B0011E
:100C500003C08F5F8093B0011091B0019EEF910FA0
:100C600097FF02C093E0910F8CEF810F87FF02C0C6
:100C700081E0810FE1E0F0E0EC0FFD1F24E0920243
:100C8000E00DF11D1124C080D180E280F380E1E00D
:100C9000F0E0EC0FFD1F94E08902E00DF11D11243E
:100CA000A701960160817181828193810E94D11B8D
:100CB0002AE037ED43E25CE30E943E1C87FF1BC045
:100CC000E1E0F0E0EC0FFD1F24E0129FE00DF11DCC
:100CD00011242081318142815381C701B6010E94D4
:100CE000D11B2AE037ED43E25CE30E943E1C881FE3
:100CF0008827881F01C080E064960FB6F894DEBF95
:100D00000FBECDBFDF91CF911F91FF90EF90DF908D
:100D1000CF9008951F920F920FB60F9211248F93C8
:100D2000EF93FF93E6EDF1E084898160848BFF917E
:100D3000EF918F910F900FBE0F901F90189510920A
:100D4000EA016BE070E080E00E940811EC0168E0CD
:100D500070E00E94A11140E855E260E070E0CE0131
:100D60000E94D01161E0CE010E941612CE010E94B5
:100D70006C0990932E0280932D0283E191E00E94F2
:100D800063222FEF83ED90E3215080409040E1F704
:100D900000C000008DE191E00E9463222FEF83EDFF
:100DA00090E3215080409040E1F700C00000E5CF83
:100DB0002A9808952A9A08950F931F93CF93DF934B
:100DC00000D0CDB7DEB789838B014A830E94D80655
:100DD00061E070E0CE0101960E947F104A81642F8D
:100DE00070E04FEFC8010E945E100E94DA060F907B
:100DF0000F90DF91CF911F910F910895EF92FF9285
:100E00000F931F93CF93DF9300D0CDB7DEB78C0144
:100E10007B014A830E94D8064A81442311F080EA6C
:100E200001C080EB898361E070E0CE0101960E94F1
:100E30007F10B701C8010E947F100E94DA060F9050
:100E40000F90DF91CF911F910F91FF90EF90089538
:100E5000CF92DF92EF920F931F93CF93DF9300D047
:100E6000CDB7DEB7E62E8A01CDB6DEB67A838983AA
:100E70000E94D80621E0200F30E04DB75EB7421B3C
:100E8000530B0FB6F8945EBF0FBE4DBF4F5F5F4F61
:100E90008981982F9062EDB7FEB79183EE2D7A810C
:100EA000F72FDA0111960E0F1F1FE017F10719F047
:100EB00081918D93FACFB901CA010E947F100E94DF
:100EC000DA060FB6F894DEBE0FBECDBE0F900F90BF
:100ED000DF91CF911F910F91EF90DF90CF90089508
:100EE000CF93DF9300D000D0CDB7DEB76C838B8378
:100EF0000E94D8068B81806289836C816A8362E05C
:100F000070E0CE0101960E947F100E94DA060F90D9
:100F10000F900F900F90DF91CF910895CF93DF93B3
:100F2000CDB7DEB72A970FB6F894DEBF0FBECDBFA0
:100F30000E94271080E00E94351081E00E944D1031
:100F400060E971E080E090E00E94E90F0E94DA061B
:100F5000299A229A219A6FE080E00E9470076FE33D
:100F600081E00E9470076FE382E00E94700763E0F7
:100F700083E00E94700760E384E00E9470076CE4E5
:100F800085E00E94700766E086E00E9470076FE3CC
:100F90008CE10E94700767E08DE10E94700785E098
:100FA000EEE0F1E0DE01169601900D928A95E1F7F0
:100FB00045E050E0BE016A5F7F4F8AE00E9428074B
:100FC00085E0EEE0F1E0DE01119601900D928A9548
:100FD000E1F745E050E0BE016F5F7F4F80E10E9486
:100FE000280760E281E10E9470072A960FB6F89404
:100FF000DEBF0FBECDBFDF91CF910895CF93DF93BA
:1010000000D01F92CDB7DEB78B830E94D8068B81AC
:101010008A8361E070E0CE0102960E947F104FEF5C
:1010200061E070E0CE0101960E945E100E94DA0637
:1010300089810F900F900F90DF91CF910895EF92DB
:10104000FF920F931F93CF93DF9300D0CDB7DEB7FE
:101050008B017A018A830E94D8068A81898361E0A4
:1010600070E0CE0101960E947F104FEFB701C801DA
:101070000E945E100E94DA060F900F90DF91CF91D0
:101080001F910F91FF90EF900895CF93DF931F92E0
:10109000CDB7DEB70E94D8068FEF0E945C1089831F
:1010A0000E94DA0689810F90DF91CF910895CF9346
:1010B000C82F0E94D80680E00E94FE07682FCC232C
:1010C00011F0616001C06E7F80E00E947007CF91D7
:1010D0000C94DA060F931F93CF93DF9300D0CDB714
:1010E000DEB7082F162F29984A830E94D8068FEF63
:1010F000898361E070E0CE0101960E947F100E941A
:10110000DA060E94D8064A81002311F060E401C08B
:1011100060E0111160624111606187E00E94700718
:101120000E94DA06299A0F900F90DF91CF911F91BC
:101130000F910895EF92FF920F931F93CF93DF9338
:101140001F92CDB7DEB78C017B0181E00E9457086A
:101150000E94450891E6998386FF19C00E94D8062F
:1011600061E070E0CE0101960E947F104FEFB70161
:10117000C8010E945E100E94DA0640E060E081E053
:101180000E946A0880E00E94570881E004C080E065
:101190000E94570880E00F90DF91CF911F910F912F
:1011A000FF90EF900895CF93DF931F92CDB7DEB7F6
:1011B0000E94D80681EE898361E070E0CE0101963D
:1011C0000E947F100E94DA060F90DF91CF91089560
:1011D000CF93DF931F92CDB7DEB70E94D80682EE81
:1011E000898361E070E0CE0101960E947F100E9429
:1011F000DA060F90DF91CF9108950E94450880FD97
:101200000E94D30841E061E080E00E946A0841E06A
:1012100065E170E086ED91E00E94FE068091D601C6
:101220009091D701A091D801B091D9010196A11D4B
:10123000B11D8093D6019093D701A093D801B093AC
:10124000D90108950F931F93CF93DF931F92CDB7CA
:10125000DEB78C0141E0BE016F5F7F4F80E60E94E8
:10126000DC06698170E0C8010E949A08882311F0A9
:10127000898101C080E00F90DF91CF911F910F9184
:101280000895CF93DF931F92CDB7DEB741E050E0D2
:10129000BE016F5F7F4FFC01848595850E94C4125B
:1012A000898190E00F90DF91CF910895CF93DF93E4
:1012B0001F92CDB7DEB78983FB0141E050E0BE014C
:1012C0006F5F7F4F848595850E945D1280E090E07E
:1012D0000F90DF91CF910895CF93DF93EC0161E4FC
:1012E00079E086E599E00E94E021FC01D587C4877A
:1012F000DF91CF910895AF92BF92CF92DF92FF928C
:101300000F931F93CF93DF931F92CDB7DEB76C017E
:10131000F62E5A0189010E94C30E811110C060E0AF
:10132000F60181A10E94E50E811109C08F2D0E9456
:10133000320F811104C0B801C5010E940D0F8983CD
:101340000E94E10E89810F90DF91CF911F910F9143
:10135000FF90DF90CF90BF90AF900895AF92BF9273
:10136000DF92EF92FF920F931F93CF93DF931F9221
:10137000CDB7DEB75C01D62E8A0179010E94C30E7B
:1013800081111CC060E0F50181A10E94E50E811170
:1013900015C08D2D0E94320F811110C00E94C30E06
:1013A00081110CC061E0F50181A10E94E50E81115F
:1013B00005C041E0B701C8010E94420F89830E9425
:1013C000E10E89810F90DF91CF911F910F91FF90D6
:1013D000EF90DF90BF90AF900895CF92DF92EF92A1
:1013E000FF920F931F93CF93DF931F92CDB7DEB77A
:1013F0008C0169837A016901DC019196ED91FC9180
:101400009297308193969C919095932390839981A4
:101410009F77998361E070E0CE0101960E947F1072
:10142000B601C7010E947F10D8019196ED91FC9101
:101430009297908193968C91892B808380E00F9076
:10144000DF91CF911F910F91FF90EF90DF90CF90A0
:101450000895CF92DF92EF92FF920F931F93CF9355
:10146000DF931F92CDB7DEB78C0169837A016901E2
:10147000DC019196ED91FC919297308193969C912D
:1014800090959323908399819068998361E070E0AF
:10149000CE0101960E947F104FEFB601C7010E9456
:1014A0005E10D8019196ED91FC9192979081939660
:1014B0008C91892B808380E00F90DF91CF911F91D9
:1014C0000F91FF90EF90DF90CF900895CF93C82FAA
:1014D00084E290E00E94941EFC01892B49F0C1A394
:1014E0008EEA99E0968F858F8BE799E090A3878F9E
:1014F000CF01CF910895EF92FF920F931F93CF9357
:10150000DF931F92CDB7DEB77C018B0184E290E0C0
:1015100049830E94941EFC014981892B31F1F2A27A
:10152000E1A221E030E001C0220F4A95EAF723A3AF
:1015300089E29AE0968F858F8DEE99E090A3878F50
:10154000D8018C91822B8C93D7018C9120952823E4
:101550002C938FE39CE90197F1F700C00000A1A153
:10156000B2A19C9183A1892B8C93CF010F90DF9125
:10157000CF911F910F91FF90EF9008950C94291F28
:10158000EF92FF920F931F93CF93DF9300D0CDB7CD
:10159000DEB78C017B0187EE89838BE78A832FEF8F
:1015A00040E782E0215040408040E1F700C0000069
:1015B000D8015D96ED91FC915E9721E030E0AE019F
:1015C0004F5F5F4F60EDC8010995811167C0898148
:1015D000883509F062C086EB8983D8015F96ED916A
:1015E000FC91909721E030E0AE014F5F5F4F60EEDD
:1015F000C8010995811152C0BFEFE0E7F2E0B15098
:10160000E040F040E1F700C00000D8015D96ED91A8
:10161000FC915E9728E130E0A8014C5F5F4F68E8DD
:10162000C801099581113AC0F7018081F4E08F9FCC
:1016300090011124D70111969C91B0E29B9FC001AB
:101640001124822B8983F7018381F4E08F9F90011D
:101650001124D70112969C91B0E29B9FC0011124E6
:10166000822B8A83D8015F96ED91FC91909722E0BE
:1016700030E0AE014F5F5F4F64EFC8010995811103
:101680000DC0F70180819181A281B381F80180832F
:101690009183A283B38380E001C08EEF0F900F90FF
:1016A000DF91CF911F910F91FF90EF9008950895D2
:1016B000EF92FF920F931F93CF93DF9300D0CDB79C
:1016C000DEB77C018B01DB012C91B4E02B9FA001E4
:1016D0001124FB018181F0E28F9F90011124242BC2
:1016E0002983DB0113962C91B4E02B9FC0011124B8
:1016F000FB019281F0E29F9F90011124282B2A8305
:10170000D7015F96ED91FC91909722E030E0AE0119
:101710004F5F5F4F64EFC701099581110BC0F8015E
:101720004081518162817381D7014D935D936D93A7
:101730007C9313970F900F90DF91CF911F910F9192
:10174000FF90EF90089504960895CF93DF931F9232
:10175000CDB7DEB7DC012C9134E0239FC00111240A
:1017600011969C91119740E2949F90011124282B8F
:10177000262B29835F96ED91FC91909721E030E034
:10178000AE014F5F5F4F64EFCD0109950F90DF9180
:10179000CF9108958F929F92AF92BF92EF92FF9256
:1017A0000F931F93CF93DF9300D000D000D0CDB71D
:1017B000DEB78B017A01DC015D96ED91FC915E97BD
:1017C00026E030E0AE014F5F5F4F67EF0995811172
:1017D0004AC04A8150E060E070E04A015B0194E059
:1017E000880C991CAA1CBB1C9A95D1F79981492F8A
:1017F00050E060E070E02CE0440F551F661F771F3B
:101800002A95D1F7482959296A297B299B819295E4
:101810009F70492BF80140835183628373830D814C
:1018200010E020E030E044E0000F111F221F331FC2
:101830004A95D1F74C8150E060E070E0ECE0440F55
:10184000551F661F771FEA95D1F7042B152B262B02
:10185000372B9E8192959F70092BD7010D931D9375
:101860002D933C93139726960FB6F894DEBF0FBEC8
:10187000CDBFDF91CF911F910F91FF90EF90BF905F
:10188000AF909F908F900895CF93DF931F92CDB725
:10189000DEB72FEF2983DC015D96ED91FC915E9719
:1018A00021E030E0AE014F5F5F4F63EF0995898122
:1018B0000F90DF91CF9108952F923F924F925F92B8
:1018C0006F927F928F929F92AF92BF92CF92DF9250
:1018D000EF92FF920F931F93CF93DF93CDB7DEB7B5
:1018E00028970FB6F894DEBF0FBECDBF98878F83C1
:1018F00049835A836B837C83FE82ED821601C90182
:10190000B8010E94ED1C2B013C01EF81F88560813C
:10191000718180E090E00E94EB1C4B015C0120E0B3
:1019200030E040E057E3C301B2010E94F21D6B01B9
:101930007C0120E030E040E059E3C501B4010E94A1
:10194000F21D9B01AC01C701B6010E94D11B6B01C6
:101950007C0120E030E040E858E3C301B2010E947E
:10196000F21D2B013C0120E030E040E85AE3C501C4
:10197000B4010E94F21D9B01AC01C301B2010E949F
:10198000D11B4B015C01EF81F88562817381072EC9
:10199000000C880B990B0E94ED1C9B01AC01C5014A
:1019A000B4010E94F21D4B015C01A7019601C70121
:1019B000B6010E94F21D6B017C01EF81F885648104
:1019C0007581072E000C880B990B0E94ED1C9B0162
:1019D000AC01C701B6010E94F21D9B01AC01C5011B
:1019E000B4010E94D21B6B017C0120E030E040EA90
:1019F00055E40E94431CF1016083718382839383C9
:101A0000C701B6010E94B51C0E94ED1C20E030E029
:101A100040E05FE30E94F21D20E030E04AE757E437
:101A20000E94D11B6B017C019B01AC010E94F21D45
:101A30004B015C01EF81F88560897189072E000CEC
:101A4000880B990B0E94ED1C20E030E040E058E349
:101A50000E94F21D9B01AC01C501B4010E94F21D60
:101A60004B015C01EF81F88566857785072E000CB8
:101A7000880B990B0E94ED1C9B01AC01C701B601BC
:101A80000E94F21D9B01AC010E94D21B9B01AC0184
:101A9000C501B4010E94D21B20E030E040E85EE3C3
:101AA0000E94F21D4B015C01EF81F885648575850C
:101AB000072E000C880B990B0E94ED1C20E030E0F3
:101AC00040E857E40E94F21D9B01AC01C501B4013E
:101AD0000E94D21B4B015C01EF81F8856285738502
:101AE000072E000C880B990B0E94ED1CA701960194
:101AF0000E94F21DA70196010E94F21D20E030E035
:101B000040E056E30E94F21D2B013C01EF81F88575
:101B100060857185072E000C880B990B0E94ED1CC7
:101B2000A70196010E94F21D9B01AC01C301B20105
:101B30000E94D21B20E030E040E056E30E94F21DFC
:101B400020E030E040E058E30E94F21D20E030E069
:101B500040E85FE30E94D21B6B017C01EF81F885B6
:101B60006681778180E090E00E94EB1C9B01AC01D4
:101B7000C701B6010E94F21D6B017C0120E030E03C
:101B8000A9010E943E1C882309F486C069817A81DC
:101B90008B819C810E94ED1C9B01AC0160E070E098
:101BA00080E899E40E94D11B2B013C0120E030E049
:101BB00040E859E3C501B4010E94F21D9B01AC014C
:101BC000C301B2010E94D11B20E030E543EC55E493
:101BD0000E94F21DA70196010E94431C6B017C012B
:101BE000EF81F88566897789072E000C880B990BA1
:101BF0000E94ED1CA70196010E94F21DA70196010B
:101C00000E94F21D20E030E040E050E30E94F21D0F
:101C10004B015C01EF81F88564897589072E000C02
:101C2000880B990B0E94ED1C9B01AC01C701B6010A
:101C30000E94F21D20E030E040E058E30E94F21DD7
:101C40009B01AC01C501B4010E94D21B4B015C0198
:101C5000EF81F88562897389072E000C880B990B38
:101C60000E94ED1C9B01AC01C501B4010E94D21B76
:101C700020E030E040E85DE30E94F21D9B01AC01F2
:101C8000C701B6010E94D21BED81FE816083718382
:101C90008283938380E001C088EF28960FB6F89482
:101CA000DEBF0FBECDBFDF91CF911F910F91FF908F
:101CB000EF90DF90CF90BF90AF909F908F907F90EC
:101CC0006F905F904F903F902F900895DC01680FC8
:101CD000791FE0E0A617B70739F08D91E827F0E00B
:101CE000EC53FE4FE491F6CF8E2F0895FC01680F60
:101CF000791F90E039E0E617F70759F0219188E065
:101D0000990F422F492747FD9327220F8150C1F792
:101D1000F2CF892F880F81600895883371F028F4FD
:101D2000803239F0803339F404C0883411F08835BA
:101D300011F48AEF08958FEF08958CEF0895809144
:101D40000C01882329F08CEE8093B80010920C01CE
:101D500008959B01AC01A8EEB3E00E94781B9B01A3
:101D6000AC0160E074E284EF90E00E94371BDA017E
:101D7000C9014097A109B109B695A795979587958F
:101D80008093B800089584EA8093BC008AE090E0D4
:101D90002091BC0027FF09C08091B900887F803165
:101DA00071F0883061F00C948D0EEFE8F1E031971E
:101DB000F1F700C00000019759F78DEF089580E01A
:101DC000089584E98093BC00089590E0880F991FDE
:101DD00021E0613009F020E0822B8093BB0084E891
:101DE0008093BC008AE090E02091BC0027FF09C0EE
:101DF0008091B900887F883171F0803461F00C9453
:101E00008D0EEFE8F1E03197F1F700C00000019787
:101E100059F78DEF089580E00895FC01680F791F50
:101E200024E8E617F707E1F081918093BB00209347
:101E3000BC008AE090E03091BC0037FF07C0809181
:101E4000B900887F883269F30C948D0EAFE8B1E059
:101E50001197F1F700C00000019769F78DEF089521
:101E600080E00895CF93DF931F92CDB7DEB78983CB
:101E700061E070E0CE0101960E940D0F0F90DF919E
:101E8000CF9108951F93CF93DF93DC0120E030E0E2
:101E900014ECEB01219754E82617370761F144232E
:101EA00031F02C173D0719F45093BC0002C0109379
:101EB000BC00EAE0F0E08091BC0087FF0CC080919C
:101EC000B900E82FE07FE03581F0887FDF91CF9186
:101ED0001F910C948D0E8FE891E00197F1F700C0EF
:101EE0000000319741F78DEF07C08091BB008D93C3
:101EF0002F5F3F4FD1CF80E0DF91CF911F910895A9
:101F0000CF93DF93EC0108960E94941EFC01D183CD
:101F1000C083158214821782168213821282DF9187
:101F2000CF9108950C94291FFC017FB7F89422816A
:101F300033814081518124173507B1F08481958127
:101F4000DF01A80FB91F18966C93019684179507A7
:101F500019F09583848302C0158214822F5F3F4F4E
:101F60003383228380E001C08BEF7FBF0895FC01A3
:101F70002FB7F89482819381892BD9F0A681B781FC
:101F8000AE0FBF1F18968C91DB018C9386819781D1
:101F9000019697838683408151818417950711F4B8
:101FA000178216828281938101979383828380E0D6
:101FB00001C08BEF2FBF08952FB7F894FC018281E9
:101FC00093812FBF08958EBD0DB407FEFDCF8EB552
:101FD00008959B01AC018CB58C7F8CBD8DB58E7F37
:101FE0008DBD60E87EE380E090E00E94371B2330E7
:101FF000310541055105E8F0253031054105510510
:1020000028F12930310518F48CB5816011C02131D7
:10201000310518F48CB5816015C02132310518F4F2
:102020008CB5826005C02134310538F48CB58360ED
:102030008CBD8DB581608DBD08952138310520F4AA
:102040008CB583608CBD08950E94D220089584B120
:102050008C6284B985B18C6285B980E58CBD68EEEF
:1020600073E080E090E00C94E90F9CB5937F9CBDF9
:10207000813051F038F0823051F0833061F48CB50A
:102080008C6007C08CB505C08CB5846002C08CB56F
:1020900088608CBD08950E94D2209CB59F7D9CBD18
:1020A000882321F0813031F48CB502C08CB5806278
:1020B0008CBD08950E94D2200C94E30FEF92FF9202
:1020C0000F931F93CF93DF931F92CDB7DEB77C01A1
:1020D0008C01060F171FE016F10649F0842F498383
:1020E0000E94E30FF70181937F014981F4CF0F90A4
:1020F000DF91CF911F910F91FF90EF9008950F9373
:102100001F93CF93DF93EC018C01060F171FC017AD
:10211000D10721F089910E94E30FF9CFDF91CF9190
:102120001F910F910895EF92FF920F931F93CF93FA
:10213000DF93EC018B017C01E40EF51ECE15DF056B
:1021400039F089910E94E30FF80181938F01F6CF56
:10215000DF91CF911F910F91FF90EF9008951F9203
:102160000F920FB60F9211248F939F93AF93BF934B
:102170008091EB019091EC01A091ED01B091EE0105
:102180000196A11DB11D8093EB019093EC01A093EA
:10219000ED01B093EE01BF91AF919F918F910F90A0
:1021A0000FBE0F901F90189580910D01882399F014
:1021B0001092EB011092EC011092ED011092EE01E1
:1021C00082E084BD9AEF97BD80936E0085B58360F1
:1021D00085BD10920D01089580910D0181110BC0F4
:1021E00014BC15BC17BC80916E008D7F80936E006F
:1021F00081E080930D0108952FB7F8946091EB0171
:102200007091EC018091ED019091EE012FBF089546
:102210000F931F93CF93DF938B01882319F080E0F6
:1022200090E064C08091EF019091F001892BB9F7A3
:1022300080E190E00E94941EEC019093F001809365
:10224000EF01892B61F386EC90E09983888380EC21
:1022500090E09B838A8381EC90E09D838C8382EC69
:1022600090E09F838E8384EC90E09987888785EC4B
:1022700090E09B878A878091C0008E7F8093C0000A
:10228000EC81FD818081877E808301FF05C0EC8128
:10229000FD8180818061808300FF05C0EC81FD812C
:1022A000808188608083C8018A7099270A9769F4C1
:1022B000EC81FD81808180688083789482E390E066
:1022C0000E94800F9F878E8702C01F861E86057022
:1022D00011270530110539F482E390E00E94800F48
:1022E0009D878C8702C01D861C86CE01DF91CF9111
:1022F0001F910F910895CF93DF93EC018E859F85F9
:10230000892B49F0EC81FD8180818F7780838E85D8
:102310009F850E94920F8C859D85009711F00E94E9
:10232000920F8091EF019091F0018C179D0721F49D
:102330001092F0011092EF01CE01DF91CF910C9439
:10234000291FFC01A481B5818C918D7F8C93A6817E
:10235000B7818C918D7F8C936630710589F024F460
:1023600065307105E1F019C06730710579F06830AA
:10237000710599F40680F781E02D808186600BC09D
:102380000680F781E02D8081826005C00680F7819C
:10239000E02D80818460808308950E94D22008957A
:1023A000CF93DF93EC01CB01BA010E94EB1C20E03C
:1023B00030E040E851E40E94F21D9B01AC0160E076
:1023C00074E284E79BE40E94431C20E030E040E894
:1023D0005FE30E94D11B0E94BC1CEA85FB85CB01F8
:1023E0006FEF70E00E94231B6083E885F98580838E
:1023F000DF91CF910895FC01A681B7818C918F7CEC
:102400008C93613049F088F0623069F40680F7817E
:10241000E02D8081806305C00680F781E02D8081FA
:102420008062808308950E94D2200895FC01A681D5
:10243000B7819C91977F9C93662359F0613039F462
:102440000680F781E02D80818860808308950E9456
:10245000D2200895CF92DF92EF92FF920F931F93B5
:10246000CF93DF936C01EA017B0100E010E00C17D1
:102470001D0759F0D7016D917D01F6018485958581
:102480000E94940F882361F0E801209761F0D60143
:102490001496ED91FC91159780818062808303C032
:1024A0000F5F1F4FE4CFCE01DF91CF911F910F91AE
:1024B000FF90EF90DF90CF900895CF92DF92EF9250
:1024C000FF920F931F93CF93DF93DC011C968D91A6
:1024D0009C911D97892B99F4FB01460F571FE41718
:1024E000F50709F11296CD91DC911397888185FF4C
:1024F000FDCFCD91DC91119781918883F0CF8A0136
:10250000EB017D01C12CD12CC016D10660F4A801CD
:102510004C195D09BE016C0D7D1DC7010E942A1278
:10252000C80ED91EF1CFDF91CF911F910F91FF906F
:10253000EF90DF90CF900895CF92DF92EF92FF92CD
:102540000F931F93CF93DF937C016B018A01C0E04F
:10255000D0E0C017D10771F0B6016C0F7D1FF701F5
:10256000868597850E94B70F882311F08E0102C0DF
:102570002196EFCFC801DF91CF911F910F91FF906E
:10258000EF90DF90CF900895CF92DF92EF92FF927D
:102590000F931F93CF93DF93DC011E968D919C9137
:1025A0001F97892B99F4FB01460F571FE417F50776
:1025B00009F11296CD91DC911397888187FFFDCFA9
:1025C000CD91DC91119788818193F0CF8A01EB0145
:1025D0007D01C12CD12CC016D10660F4A8014C1984
:1025E0005D09BE016C0D7D1DC7010E949C12C80EC5
:1025F000D91EF1CFDF91CF911F910F91FF90EF90F6
:10260000DF90CF9008951F920F920FB60F92112472
:102610002F933F934F935F936F937F938F939F93EA
:10262000AF93BF93EF93FF93E091EF01F091F0012F
:10263000A081B1816C91868597850E94940FFF914E
:10264000EF91BF91AF919F918F917F916F915F912A
:102650004F913F912F910F900FBE0F901F901895A3
:102660001F920F920FB60F9211240F931F932F9367
:102670003F934F935F936F937F938F939F93AF930A
:10268000BF93EF93FF93CF93DF931F92CDB7DEB746
:102690000091EF011091F001BE016F5F7F4FD801F3
:1026A0001C968D919C911D970E94B70FD8018111A6
:1026B00004C0ED91FC91898106C01496ED91FC91C6
:1026C000159780818F7D80830F90DF91CF91FF914F
:1026D000EF91BF91AF919F918F917F916F915F919A
:1026E0004F913F912F911F910F910F900FBE0F901F
:1026F0001F901895CF93C82F90E00E94B1210097AA
:1027000051F0CC3231F031E0CA3209F430E0832F9D
:1027100002C080E090E08170CF91089590ED980F15
:102720009A3018F490E0C09708959FEB980F963078
:1027300018F490E0C79708959FE9980F963020F419
:1027400090E08755910908958FEF9FEF0895FC0160
:102750002081243209F40196FC0180E091919923B3
:1027600021F09A3211F08927F9CF0895DF92EF9284
:10277000FF920F931F93CF93DF93FC0101900020F2
:10278000E9F73197E81BF90BE435F10530F5FC0169
:102790002081243211F5D62EEC012196F12C8E01E8
:1027A000E990EE20E1F0FAE2EF1641F08E2D90E094
:1027B0000E94B121892B99F0FE24F1CFF80181818B
:1027C0000E948E13EC01019641F0F80182810E9473
:1027D0008E138F3FFFEF9F07D1F420E027C0D11069
:1027E000FCCFF8018081882381F069E271E0C801A3
:1027F0000E94CC21892B49F068E271E0C8010E9457
:10280000CC2121E0892B91F0E8CF21E00FC02F2DC2
:1028100030E044E0CC0FDD1F4A95E1F78C2B9D2B77
:1028200028173907D1F60D5F1F4FDBCF822FDF91BD
:10283000CF911F910F91FF90EF90DF9008952F920D
:102840003F924F925F926F927F928F929F92AF9240
:10285000BF92CF92DF92EF92FF920F931F93CF938D
:10286000DF93CDB7DEB762970FB6F894DEBF0FBE29
:10287000CDBF2FA038A45E012BE2A20EB11C49A54A
:102880005AA5588B4F8781011E86AF85B8898D91D7
:10289000B88BAF87882361F08B3339F001151105B0
:1028A00049F45E85511121C014C021E02E87EDCF7F
:1028B00081E0FAC2843609F041C0D8011C91812F11
:1028C0000E947A138823E9F01E3461F020F4153455
:1028D00049F080E0E9C2133511F01735D1F78FEFD9
:1028E0009FEF11C081E090E00EC0833609F44CC127
:1028F00008F4B8C2863609F4CDC208F05EC1843649
:1029000041F780E090E0D501ED91FC9191838083C7
:10291000F50132965F0181011801F801F0800F5F27
:102920001F4F8F2D0E947A138111F6CFFCE2FF1208
:1029300002C01801AACF00E010E0A7CF853608F04A
:1029400029C1843509F0AEC04501F2E08F0E911C1B
:10295000D5014D905C900115110509F486C0F80170
:10296000F0808F2D0E947A13882309F47EC0F8012D
:10297000C8010696219130E0205331092A303105F3
:1029800008F0A7CFE817F907A9F7FF82D801119639
:102990008C9111978887198612968C9112978C8347
:1029A00013968C9113978D831E8214968C91149795
:1029B000898315968C918A831B824AE050E060E0FF
:1029C00070E0CE0107960E94C11F5B014AE050E013
:1029D00060E070E0CE0104960E94C11F6B014AE0E6
:1029E00050E060E070E0CE0101960E94C11F7B01C3
:1029F000F80186818E32B1F53801F7E06F0E711C57
:102A00009801225F3F4F3B872A8720E432E44FE062
:102A100050E000E010E0F30181913F0190E0C097A9
:102A20008A30910540F0029FC001039F900D129FD4
:102A3000900D112425C06A857B85E617F70799F369
:102A4000AAE0A09FB001A19F700D11248B01080F77
:102A5000191FCA01B9012AE030E040E050E00E94AD
:102A6000591BD9CF80E090E00BC08FEF9FEFEE2491
:102A7000EA94FE2CCC24CA94DC2CAA24AA94BA2C66
:102A8000D2011196BC92AE921396DC92CE9212971E
:102A90001596FC92EE92149717969C938E93169728
:102AA000540139CF853508F062C0843409F011CF64
:102AB0006501B2E0CB0ED11CF501A080B180D80138
:102AC000FC908F2D0E947A13811110C06FEF7FEF61
:102AD000EE24EA94FE2C0FEF1FEFF5011183008323
:102AE000F382E28275836483560115CFF801C80131
:102AF0000696219130E0205331092A30310508F043
:102B0000E8CEE817F907A9F7FF82D80111968C9152
:102B100011978887198612968C9112978C83139639
:102B20008C9113978D831E8214968C9114978983B0
:102B300015968C918A831B824AE050E060E070E039
:102B4000CE0107960E94C11F8B014AE050E060E071
:102B500070E0CE0104960E94C11F7B014AE050E064
:102B600060E070E0CE0101960E94C11FB6CF8F35A4
:102B700009F4D1CE833609F0ACCED8011C91812F57
:102B80000E947A13811101C010E0D501ED91FC91F2
:102B90001083BECE8936E1F44AE050E0BE016F5F9B
:102BA0007F4FC8010E94C11F8B01E981FA8180819A
:102BB0000E947A13882331F08CCE893609F033C114
:102BC00000E010E0D501ED91FC9111830083A0CECF
:102BD0008A3608F0FBC0863609F07BCE4801C12C4E
:102BE000D12C760144244A94542C320100E010E0A8
:102BF000D4019D914D01892F998B0E947A13998957
:102C0000882309F494C09B3251F40115110599F4FD
:102C1000FFEF4F165F066F067F0669F482C09D3294
:102C200051F40115110539F42FEF421652066206D0
:102C3000720609F479C0292F30E0205331092A3077
:102C4000310508F04DC04FEF441654066406740673
:102C500019F4412C512C3201B901330F880B990B17
:102C60006A877B878C879D876FEF7FEF8FEF9FE76A
:102C70002A853B854C855D85621B730B840B950B08
:102C80002AE030E040E050E00E94591B2415350551
:102C90004605570554F4C114D104E104F10409F4C4
:102CA00018CE4601EA86FA8A64C0AAE0B0E0A30121
:102CB00092010E94781B4A845B846C847D84460E5A
:102CC000571E681E791EC114D104E104F10409F4F1
:102CD0008FCFA70196010E94781B6B017C0188CFE2
:102CE0009E3251F4CD28CE28CF2809F0F2CDC12C48
:102CF000D12C7601C3947CCF903209F0EACD011536
:102D0000110509F0E6CD3FEF43165306630673063F
:102D100009F0DFCDC114D104E104F10409F468CF56
:102D2000D8CD01E010E064CF0FEF1FEF61CF460177
:102D3000EA86FA8A0115110539F4C114D104E104B7
:102D4000F10409F0A0C00AC04601EA86FA8ABFEF82
:102D50004B165B066B067B0661F4BBCDEFEF4E16A0
:102D60005E066E067E06C9F0C12CD12C7601C39496
:102D700097C0CD28CE28CF2829F488248394912C7D
:102D80001A861A8A0115110559F0D801A30192017A
:102D90000E94831B2B013C0103C0412C512C3201AA
:102DA000F501A081B1814D925D926D927C92139755
:102DB00014968C92149715969C921597FA851696F0
:102DC000FC931697EA891796EC9328C0833771F124
:102DD000843709F07ECDD8018C91843209F079CD09
:102DE0006801BFEFCB1ADB0A76010A5F1F4FF701BC
:102DF00081917F010E947A13882309F46ACDE0163D
:102E0000F106A9F7D5018D919C9125E0F601DC0131
:102E100001900D922A95E1F7FC01158295012E5F34
:102E20003F4F590178CD833709F053CD7501F2E05A
:102E3000EF0EF11CD501CD90DC900115110571F05C
:102E400056016501D8019D908D01892D0E947A134C
:102E5000882321F0F50191925F01F3CFF6011082F2
:102E6000570159CD843509F46FCD8F3509F453CD11
:102E7000843409F02ECD6501B2E0CB0ED11CF501F2
:102E8000A080B18023CEFFEF4F165F066F067F064E
:102E900039F41FCDC12CD12C7601412C512C32019B
:102EA0004601EA86FA8A7CCF62960FB6F894DEBFB6
:102EB0000FBECDBFDF91CF911F910F91FF90EF908B
:102EC000DF90CF90BF90AF909F908F907F906F904A
:102ED0005F904F903F902F9008950F931F93CF9343
:102EE000DF9300D000D000D0CDB7DEB78C01CE018B
:102EF00001969F938F938BE291E09F938F937F93A3
:102F00006F930E941F140F900F900F900F900F90CF
:102F10000F90882331F09981F80190839A819183F1
:102F2000128226960FB6F894DEBF0FBECDBFDF919A
:102F3000CF911F910F9108950F931F93CF93DF931C
:102F400000D000D000D0CDB7DEB7182F092F0E94D7
:102F5000B613811102C08FEF5BC0CE0101969F9323
:102F60008F938BE291E09F938F930F931F930E9417
:102F70001F140F900F900F900F900F900F908823B9
:102F800051F36DE271E0CE0103960E94CC21892BB2
:102F900091F161E371E0CE0103960E94CC21892B6F
:102FA00061F165E371E0CE0103960E94CC21892B8B
:102FB00031F169E371E0CE0103960E94CC21892BA7
:102FC00001F16DE371E0CE0103960E94CC21892BC3
:102FD000D1F061E471E0CE0103960E94CC21892BEF
:102FE000A1F065E471E0CE0103960E94CC21892B0B
:102FF00071F080E00DC081E00BC082E009C083E089
:1030000007C084E005C085E003C086E001C087E01A
:1030100026960FB6F894DEBF0FBECDBFDF91CF91DD
:103020001F910F910895FF920F931F93CF93DF93FA
:10303000CDB7DEB72D970FB6F894DEBF0FBECDBF6C
:103040008C01CE0107969F938F93C8018F969F9313
:103050008F9306979F938F9308979F938F930897CB
:103060009F938F93CE0109969F938F93C8014196AA
:103070009F938F93CE010B969F938F93C8010996D0
:103080009F938F93CE010D969F938F931F930F93D2
:103090000C979F938F9389E491E09F938F937F93F5
:1030A0006F930E941F14F82E0FB6F894DEBF0FBE68
:1030B000CDBFFF20A9F16DE271E0CE0103960E9421
:1030C000CC21892B61F581E09D85913409F080E068
:1030D000F8018087AB85BC85218532854385548581
:1030E0000E94831B6187728783879487A985BA852D
:1030F00021893289438954890E94831B618B728B99
:10310000838B948BAF81B88527A530A941A952A99B
:103110000E94831B67A770AB81AB92AB01C0F12CFF
:103120008F2D2D960FB6F894DEBF0FBECDBFDF9169
:10313000CF911F910F91FF900895FF920F931F93CE
:10314000CF93DF93CDB7DEB72A970FB6F894DEBFE3
:103150000FBECDBF8C01C6969F938F9301979F930F
:103160008F9308979F938F9301979F938F930897BF
:103170009F938F9308979F938F9302979F938F931B
:1031800002979F938F93CE0107969F938F93C801C9
:1031900040969F938F93CE0109969F938F93C8017A
:1031A00008969F938F931F930F93CE0101969F9341
:1031B0008F9386E591E09F938F937F936F930E9407
:1031C0001F14F82E0FB6F894DEBF0FBECDBFFF2040
:1031D00019F161E371E0CE0103960E94CC21892BA5
:1031E000D1F4A985BA85F8012085318542855385BA
:1031F0000E94831B6087718782879387AF81B88520
:1032000020893189428953890E94831B608B718B8D
:10321000828B938B01C0F12C8F2D2A960FB6F894D8
:10322000DEBF0FBECDBFDF91CF911F910F91FF90F9
:103230000895CF93DF9300D000D000D0CDB7DEB794
:103240009C01255D3F4F3F932F93285031093F93B9
:103250002F93285031093F932F93225031093F93E8
:103260002F93225031093F932F93225031093F93DE
:103270002F93225031093F932F93225031093F93CE
:103280002F93225031093F932F93225031093F93BE
:103290002F93225031093F932F93225031093F93AE
:1032A0002F93225031093F932F93225031093F939E
:1032B0002F93225031093F932F93225031093F938E
:1032C0002F939F938F93CE0101969F938F9386E6C2
:1032D00091E09F938F937F936F930E941F14282FE9
:1032E0000FB6F894DEBF0FBECDBF222351F065E3C9
:1032F00071E0CE0103960E94CC2121E0892B09F0D8
:1033000020E0822F26960FB6F894DEBF0FBECDBF09
:10331000DF91CF910895FF920F931F93CF93DF9387
:10332000CDB7DEB72A970FB6F894DEBF0FBECDBF7C
:103330008C0149969F938F9301979F938F93089742
:103340009F938F93CE0107969F938F93C801089602
:103350009F938F93CE0109969F938F931F930F9303
:1033600008979F938F9389E791E09F938F937F9323
:103370006F930E941F14F82E0FB6F894DEBF0FBE95
:10338000CDBFFF2019F169E371E0CE0103960E94E1
:10339000CC21892BD1F4A985BA85F801208131810E
:1033A000428153810E94831B608371838283938354
:1033B000AF81B88520853185428553850E94831B66
:1033C000608771878287938701C0F12C8F2D2A96A1
:1033D0000FB6F894DEBF0FBECDBFDF91CF911F9126
:1033E0000F91FF900895CF93DF9300D000D000D0CD
:1033F000CDB7DEB79C01285C3F4F3F932F932850F9
:1034000031093F932F93285031093F932F93285030
:1034100031093F932F93285031093F932F93285020
:1034200031093F932F93285031093F932F939F9356
:103430008F93CE0101969F938F9383E891E09F93A2
:103440008F937F936F930E941F14282F0FB6F894C9
:10345000DEBF0FBECDBF222351F06DE371E0CE0180
:1034600003960E94CC2121E0892B09F020E0822FD5
:1034700026960FB6F894DEBF0FBECDBFDF91CF9179
:103480000895CF93DF9300D000D000D0CDB7DEB742
:103490009C012C5D3F4F3F932F93225031093F9366
:1034A0002F93225031093F932F93225031093F939C
:1034B0002F93225031093F932F93225031093F938C
:1034C0002F93225031093F932F93225031093F937C
:1034D0002F93225031093F932F93225031093F936C
:1034E0002F93225031093F932F93225031093F935C
:1034F0002F93225031093F932F93225031093F934C
:103500002F93225031093F932F93225031093F933B
:103510002F93225031093F932F93225031093F932B
:103520002F939F938F93CE0101969F938F938DE856
:1035300091E09F938F937F936F930E941F14282F86
:103540000FB6F894DEBF0FBECDBF222351F061E469
:1035500071E0CE0103960E94CC2121E0892B09F075
:1035600020E0822F26960FB6F894DEBF0FBECDBFA7
:10357000DF91CF910895EF92FF921F93CF93DF9346
:10358000CDB7DEB72B970FB6F894DEBF0FBECDBF19
:103590007C01CE0107969F938F9301969F938F9303
:1035A000C70148969F938F93CE0109969F938F935F
:1035B000C70140969F938F93CE010A969F938F9356
:1035C000C70108969F938F93CE010B969F938F937D
:1035D000FF92EF920A979F938F9383EA91E09F93D4
:1035E0008F937F936F930E941F14182F0FB6F89438
:1035F000DEBF0FBECDBF8823C9F065E471E0CE0108
:1036000003960E94CC21892B81F48B85843569F443
:103610008A858D3451F489858E3439F488858B34CC
:1036200021F48F81F70180A301C010E0812F2B9638
:103630000FB6F894DEBF0FBECDBFDF91CF911F91C3
:10364000FF90EF900895AA1BBB1B51E107C0AA1F72
:10365000BB1FA617B70710F0A61BB70B881F991F33
:103660005A95A9F780959095BC01CD010895A1E2E6
:103670001A2EAA1BBB1BFD010DC0AA1FBB1FEE1FEC
:10368000FF1FA217B307E407F50720F0A21BB30B37
:10369000E40BF50B661F771F881F991F1A9469F7B3
:1036A00060957095809590959B01AC01BD01CF010F
:1036B0000895052E97FB1EF400940E94701B57FD81
:1036C00007D00E94371B07FC03D04EF40C94701BEC
:1036D00050954095309521953F4F4F4F5F4F08953E
:1036E00090958095709561957F4F8F4F9F4F08956E
:1036F0000E94C21BA59F900DB49F900DA49F800DAA
:10370000911D11240895B7FF0C94781B0E94781B1B
:10371000821B930B08952F923F924F925F926F926C
:103720007F928F929F92AF92BF92CF92DF92EF9251
:10373000FF920F931F93CF93DF93CDB7DEB7CA1BD2
:10374000DB0B0FB6F894DEBF0FBECDBF09942A88FD
:10375000398848885F846E847D848C849B84AA84A5
:10376000B984C884DF80EE80FD800C811B81AA8132
:10377000B981CE0FD11D0FB6F894DEBF0FBECDBFFD
:10378000ED010895A29FB001B39FC001A39F700DEA
:10379000811D1124911DB29F700D811D1124911D59
:1037A00008955058BB27AA270E94E91B0C94631D5B
:1037B0000E94551D38F00E945C1D20F039F49F3F97
:1037C00019F426F40C94521D0EF4E095E7FB0C94CA
:1037D0004C1DE92F0E94741D58F3BA176207730736
:1037E0008407950720F079F4A6F50C94961D0EF445
:1037F000E0950B2EBA2FA02D0B01B90190010C0101
:10380000CA01A0011124FF27591B99F0593F50F418
:10381000503E68F11A16F040A22F232F342F442770
:10382000585FF3CF469537952795A795F040539568
:10383000C9F77EF41F16BA0B620B730B840BBAF038
:103840009150A1F0FF0FBB1F661F771F881FC2F7A3
:103850000EC0BA0F621F731F841F48F487957795B7
:103860006795B795F7959E3F08F0B0CF9395880F71
:1038700008F09927EE0F9795879508950E94281DC7
:1038800008F481E008950E94571C0C94631D0E9467
:103890005C1D58F00E94551D40F029F45F3F29F04F
:1038A0000C944C1D51110C94971D0C94521D0E94A8
:1038B000741D68F39923B1F3552391F3951B550BB0
:1038C000BB27AA2762177307840738F09F5F5F4FF3
:1038D000220F331F441FAA1FA9F335D00E2E3AF032
:1038E000E0E832D091505040E695001CCAF72BD04A
:1038F000FE2F29D0660F771F881FBB1F261737079B
:103900004807AB07B0E809F0BB0B802DBF01FF27CC
:1039100093585F4F3AF09E3F510578F00C944C1D40
:103920000C94971D5F3FE4F3983ED4F3869577950A
:103930006795B795F7959F5FC9F7880F911D969585
:10394000879597F90895E1E0660F771F881FBB1FE1
:10395000621773078407BA0720F0621B730B840B8E
:10396000BA0BEE1F88F7E09508950E94BC1C68947E
:10397000B1110C94971D08950E947C1D88F09F57EB
:1039800098F0B92F9927B751B0F0E1F0660F771F83
:10399000881F991F1AF0BA95C9F714C0B13091F079
:1039A0000E94961DB1E008950C94961D672F782F04
:1039B0008827B85F39F0B93FCCF38695779567953E
:1039C000B395D9F73EF490958095709561957F4FAA
:1039D0008F4F9F4F0895E89409C097FB3EF4909550
:1039E0008095709561957F4F8F4F9F4F9923A9F0D8
:1039F000F92F96E9BB279395F69587957795679567
:103A0000B795F111F8CFFAF4BB0F11F460FF1BC0AA
:103A10006F5F7F4F8F4F9F4F16C0882311F096E93D
:103A200011C0772321F09EE8872F762F05C06623EB
:103A300071F096E8862F70E060E02AF09A95660FA4
:103A4000771F881FDAF7880F9695879597F908955D
:103A5000990F0008550FAA0BE0E8FEEF161617069F
:103A6000E807F907C0F012161306E407F50798F007
:103A7000621B730B840B950B39F40A2661F0232B20
:103A8000242B252B21F408950A2609F4A140A6959C
:103A90008FEF811D811D089597F99F6780E870E081
:103AA00060E008959FEF80EC089500240A941616B4
:103AB000170618060906089500240A94121613061C
:103AC000140605060895092E0394000C11F48823AA
:103AD00052F0BB0F40F4BF2B11F460FF04C06F5FC6
:103AE0007F4F8F4F9F4F089557FD9058440F551F9C
:103AF00059F05F3F71F04795880F97FB991F61F070
:103B00009F3F79F087950895121613061406551FE6
:103B1000F2CF4695F1DF08C0161617061806991F52
:103B2000F1CF86957105610508940895E894BB2747
:103B300066277727CB0197F908950E94281D08F47E
:103B40008FEF089516F00C945F1E0C94521D68942C
:103B50000C944C1D0E947C1DA8F39923C1F3AEF375
:103B6000DF93CF931F930F93FF92C92FDD278823F5
:103B70002AF02197660F771F881FDAF720E030E0E0
:103B800040E85FEB9FE3883920F0803E38F02196D3
:103B90008F770E94D21BE8E6F0E004C00E94D21B9F
:103BA000E5E9F0E00E946D1E8B01BE01EC01FB2EE9
:103BB0006F5771097595771F880B990B0E94ED1C43
:103BC00028E132E741E35FE30E94051EAF2D980133
:103BD000AE01FF900F911F91CF91DF910E94E91BE1
:103BE0000C94631D0E94051E0C94631D0E94551DBC
:103BF00038F00E945C1D20F0952311F00C944C1DB0
:103C00000C94521D11240C94971D0E94741D70F386
:103C1000959FC1F3950F50E0551F629FF001729F71
:103C2000BB27F00DB11D639FAA27F00DB11DAA1F80
:103C3000649F6627B00DA11D661F829F2227B00DCD
:103C4000A11D621F739FB00DA11D621F839FA00D58
:103C5000611D221F749F3327A00D611D231F849FA8
:103C6000600D211D822F762F6A2F11249F575040FF
:103C70009AF0F1F088234AF0EE0FFF1FBB1F661F7A
:103C8000771F881F91505040A9F79E3F510580F043
:103C90000C944C1D0C94971D5F3FE4F3983ED4F3B5
:103CA000869577956795B795F795E7959F5FC1F7E7
:103CB000FE2B880F911D9695879597F908959F3F44
:103CC00031F0915020F4879577956795B795880FD7
:103CD000911D9695879597F90895DF93CF931F933C
:103CE0000F93FF92EF92DF927B018C01689406C0E4
:103CF000DA2EEF010E94051EFE01E894A5912591A0
:103D0000359145915591A6F3EF010E94E91BFE0103
:103D10009701A801DA9469F7DF90EF90FF900F9177
:103D20001F91CF91DF910895CF93DF93823091055A
:103D300010F482E090E0E0912902F0912A0220E064
:103D400030E0C0E0D0E0309711F140815181481758
:103D50005907C0F04817590761F482819381209771
:103D600019F09B838A832BC090932A0280932902A7
:103D700026C02115310519F04217530718F49A018E
:103D8000BE01DF01EF010280F381E02DDCCF2115C0
:103D9000310509F1281B390B2430310590F41296B6
:103DA0008D919C9113976115710521F0FB0193830F
:103DB000828304C090932A0280932902FD013296E7
:103DC00044C0FD01E20FF31F81939193225031090A
:103DD0002D933C933AC02091270230912802232B47
:103DE00041F4209102013091030130932802209385
:103DF000270220910001309101012115310541F484
:103E00002DB73EB74091040150910501241B350B9D
:103E1000E0912702F0912802E217F307A0F42E1B8D
:103E20003F0B2817390778F0AC014E5F5F4F24171E
:103E3000350748F04E0F5F1F50932802409327022A
:103E40008193919302C0E0E0F0E0CF01DF91CF9148
:103E500008950F931F93CF93DF93009709F48CC0BD
:103E6000FC013297138212820091290210912A02DA
:103E70000115110581F420813181820F931F20915A
:103E80002702309128022817390779F5F093280284
:103E9000E093270271C0D80140E050E0AE17BF07A1
:103EA00050F412962D913C911397AD0121153105D7
:103EB00009F1D901F3CF9D01DA01338322836081B7
:103EC0007181860F971F8217930769F4EC0128818F
:103ED0003981260F371F2E5F3F4F318320838A8120
:103EE0009B8193838283452B29F4F0932A02E093EC
:103EF000290242C01396FC93EE931297ED0149916B
:103F000059919E01240F351FE217F30771F4808148
:103F10009181840F951F029611969C938E938281B6
:103F2000938113969C938E931297E0E0F0E0D80172
:103F300012968D919C911397009719F0F8018C01BE
:103F4000F6CF8D919C9198012E5F3F4F820F931F6A
:103F500020912702309128022817390769F43097F9
:103F600029F410922A021092290202C013821282AE
:103F70001093280200932702DF91CF911F910F9198
:103F80000895A0E0B0E0E7ECFFE10C948B1B5C012E
:103F90006B017A016115710519F0FB019183808332
:103FA000E114F10429F0C7010297839708F0F1C0EA
:103FB000E5012196F5011081812F90E00E94B82142
:103FC000892B11F05E01F4CF1D3229F42196F50101
:103FD000118101E007C01B3221F4E5012296F501B1
:103FE000118100E0E114F10459F1F0E1EF16F10460
:103FF00061F41033E1F488818F7D883569F519818A
:104000002296026070E1E72EF12C88E0E816F104B8
:1040100039F12CF4F2E0EF16F104C9F12AC08AE07C
:10402000E816F10479F0E0E1EE16F10411F550E143
:10403000E52EF12C812C912CA12C68E0B62E2CC001
:104040001033C9F23AE0E32EF12C4CEC842E982C7C
:10405000A82C4CE0B42E20C010E3E114F104A9F622
:1040600098E0E92EF12C812C912CA12C20E1B22E8C
:1040700013C060E070E080E090E897010F2C000C26
:10408000440B550B0E94371B49015A0105C0812C76
:10409000912CA12C80E4B82E60E020E030E0A90152
:1040A00027010F2C000C660877081E01E0EDE10FD8
:1040B000EA3060F08FEB810F8A3110F4E9EC05C033
:1040C0008FE9810F8A3128F5E9EAE10F8E2F90E020
:1040D0008E159F05F4F467FD18C082169306A4069A
:1040E000B50690F0C301B2010E9417239B01AC01F9
:1040F0002E0F311D411D511D213031054105F0E8C4
:104100005F0710F461E001C06FEF2196F1011081AB
:10411000CCCF802F8170C114D10471F0662329F0B7
:104120002197F601D183C08307C001FF19C02297F0
:10413000F601D183C08314C067FF12C0811105C08E
:104140002FEF3FEF4FEF5FE704C020E030E040E0AB
:1041500050E882E290E0909332028093310216C0E0
:10416000882341F050954095309521953F4F4F4F12
:104170005F4F0CC057FF0AC082E290E0909332027A
:10418000809331022FEF3FEF4FEF5FE7B901CA0194
:1041900004C060E070E080E090E0CDB7DEB7E2E11F
:1041A0000C94A71B81E090E0F8940C94272328300E
:1041B00008F027E03327DA01990F311D87FD916060
:1041C00000966105710539F432602E5F3D9330E34E
:1041D0002A95E1F708959F3F30F080387105610519
:1041E00009F03C5F3C5F3D93913008F08068911D81
:1041F000DF93CF931F930F93FF92EF92192F987F26
:104200009695E92F96959695E90FFF27EC5DFE4F61
:1042100099273327EE24FF24A701E701059008948E
:10422000079428F4360FE71EF81E491F511D660F2C
:10423000771F881F991F0694A1F70590079428F40B
:10424000E70EF81E491F561FC11D770F881F991FC3
:10425000661F0694A1F70590079428F4F80E491FED
:10426000561FC71FD11D880F991F661F771F069401
:10427000A1F70590079420F4490F561FC71FD81FB8
:10428000990F661F771F881F0694A9F784911095D0
:10429000177041F0D695C79557954795F794E794D1
:1042A0001A95C1F7EAECF0E06894159015913591F4
:1042B0006591959105907FE27395E118F10A430BA2
:1042C000560BC90BD009C0F7E10CF11E431F561F56
:1042D000C91FD01D7EF4703311F48A95E6CFE8949F
:1042E000015030F0080F0AF40027021708F4202FBD
:1042F0002395022F7A3328F079E37D932A95E9F705
:1043000010C07D932A9589F6069497956795379501
:1043100017951794E118F10A430B560BC90BD009F6
:1043200098F023957E9173957A3308F070E37C932F
:104330002013B8F77E9170617D9330F0839571E31F
:104340007D9370E32A95E1F71124EF90FF900F9190
:104350001F91CF91DF91992787FD90950895803225
:1043600009F091110C940D2380528F55D8F70895C0
:1043700091110C940D23803219F089508550C8F7A3
:104380000895FC010590615070400110D8F78095A8
:1043900090958E0F9F1F0895FB01DC018D91019078
:1043A00080190110D9F3990B0895FC0161507040F8
:1043B00001900110D8F7809590958E0F9F1F08955A
:1043C0000F931F93CF93DF93009731F4611571051D
:1043D00019F480E090E03AC08B01EC016EE070E0EF
:1043E00081E090E00E94F122FC01892B91F380E8AA
:1043F00083830115110571F01387028781E8838398
:1044000080912B0290912C02892B21F4F0932C02A5
:10441000E0932B022097C9F0D187C0878381826007
:10442000838380912D0290912E02892B71F4F09359
:104430002E02E0932D0280912F0290913002892B61
:1044400021F4F0933002E0932F02CF01DF91CF915E
:104450001F910F9108950F931F93CF93DF93FB014B
:10446000238121FD03C08FEF9FEF28C022FF16C0DC
:1044700046815781248135814217530744F4A08136
:10448000B1819D012F5F3F4F318320838C93268123
:1044900037812F5F3F4F3783268310C0EB01092FF1
:1044A000182F0084F185E02D0995892BE1F68E8186
:1044B0009F8101969F838E83812F902FDF91CF91D3
:1044C0001F910F9108950F931F93CF93DF93E09166
:1044D0002D02F0912E02238121FF1BC08C01D0E020
:1044E000C0E0F80181918F0160912D0270912E0240
:1044F000DB011896ED91FC911997882331F009950D
:10450000892B79F3DFEFCFEFECCF8AE00995892B88
:1045100019F08FEF9FEF02C08D2F9C2FDF91CF916D
:104520001F910F910895FA01AA27283051F12031E7
:1045300081F1E8946F936E7F6E5F7F4F8F4F9F4F37
:10454000AF4FB1E03ED0B4E03CD0670F781F891F79
:104550009A1FA11D680F791F8A1F911DA11D6A0F47
:10456000711D811D911DA11D20D009F468943F91FA
:104570002AE0269F11243019305D3193DEF6CF01F9
:104580000895462F4770405D4193B3E00FD0C9F7BF
:10459000F6CF462F4F70405D4A3318F0495D31FD2C
:1045A0004052419302D0A9F7EACFB4E0A69597957F
:1045B000879577956795BA95C9F700976105710555
:1045C00008959B01AC010A2E06945795479537959F
:1045D0002795BA95C9F7620F731F841F951FA01DF9
:1045E00008950F931F93CF93DF93869F8001879F3A
:1045F000100D969F100D1124C8010E94941EEC010D
:10460000009729F0A80160E070E00E941023CE011D
:10461000DF91CF911F910F910895992788270895D1
:10462000DC0101C06D9341505040E0F70895DB017B
:104630008F939F930E94781BBF91AF91A29F800D93
:10464000911DA39F900DB29F900D11240895F89491
:02465000FFCF9A
:1046520000003302200048656C6C6F000101E7E73F
:10466200E7E7E741542B4E414D453F0D0041542BA6
:10467200524F4C453D310D000D0A007400524D431E
:10468200004747410047534100474C4C00475354B1
:104692000047535600565447007454636664666478
:1046A2006666446664007454666466646969666634
:1046B200636663695F0074636969696969696969E5
:1046C20069696969696666660074666466645463EA
:1046D2003B63007454666666666666660074696962
:1046E200693B696969696969696969696969696966
:1046F2006969007466636663666366633B630000B0
:00000001FF
