:020000040800F2
:1000000000000220B9020008C1020008C502000871
:10001000390300083D0300088503000800000000C4
:10002000000000000000000000000000C12B0008DC
:10003000D103000800000000A12C0008052D0008D5
:10004000E9030008E9030008E9030008E9030008E0
:10005000E9030008E9030008E9030008E9030008D0
:10006000E9030008E9030008E9030008E9030008C0
:10007000E9030008E9030008E9030008E9030008B0
:10008000E9030008E9030008E9030008E9030008A0
:10009000E9030008E9030008E9030008E903000890
:1000A000E9030008E9030008E9030008E903000880
:1000B000E9030008E9030008E9030008E903000870
:1000C000E9030008E9030008E9030008E903000860
:1000D000E9030008E9030008E9030008E903000850
:1000E000E9030008E9030008E9030008E903000840
:1000F000E9030008E9030008E9030008E903000830
:10010000E9030008E9030008E9030008E90300081F
:10011000E9030008E9030008C5230008E903000813
:10012000E9030008E9030008E9030008E9030008FF
:10013000E90300080000000000000000E9030008D7
:10014000E9030008E9030008E9030008E9030008DF
:10015000E9030008E9030008E9030008E9030008CF
:10016000E9030008E9030008E9030008E9030008BF
:10017000E9030008E9030008000000000000000097
:10018000E9030008E903000800B583B001F08AFF25
:10019000384B394A1360394A136039490CE00A6810
:1001A0004B6801F10C04886803E01168196004339E
:1001B00004329842F9D82146324B9942EFD32E4B64
:1001C0001A68314B9A4204D12C4B1A682F4B9A4231
:1001D00000D0FEE7274B2E4A13602E4A13602E4BA9
:1001E0000AE0194651F8082B5B6802E00020106015
:1001F00004329A42FAD30B46284A9342F1D3244B55
:100200001B6813B9234B1B6803B1FEE702F0ECFB3C
:10021000694601A801F0BCFE214C224B1C1BA41016
:10022000002504E01E4B53F8253098470135AC42B9
:10023000F8DC1D4C1D4B1C1BA410002504E01A4BC0
:1002400053F8253098470135AC42F8DC0099019805
:1002500002F0D2FB0546164C164B1C1BA41004E002
:10026000013C134B53F824309847002CF8DC284607
:1002700001F060FEBABADECA00000020F8000020DB
:10028000EC030008040400087856341232547698BF
:10029000FC000020202800200404000814040008AA
:1002A00014040008140400081404000814040008CE
:1002B000140400081404000808B5FFF765FF00BF28
:1002C00000BEFEE71EF0040F0CBFEFF30880EFF353
:1002D00009807146414A10472DE9F04182B0044639
:1002E0008846134B5E6B9F6B9D6A1B6B13F0020F6E
:1002F0000DD00F4BDB6A002B09DA4BF6AB6101F036
:100300005BFF20B14FF00042094BDA620CE0094874
:1003100001F06AFECDF800803B4632462946204671
:1003200001F0D2FE00BEFEE702B0BDE8F08100BFE2
:1003300000ED00E07C88000800BEFEE71EF0040F20
:100340000CBFEFF30880EFF309807146244A104791
:100350002DE9F04182B004468846084B5E6B9F6BE6
:100360009D6A074801F040FECDF800803B463246CA
:100370002946204601F0A8FE00BEFEE700ED00E0A1
:100380008C8800081EF0040F0CBFEFF30880EFF319
:1003900009807146134A10472DE9F04182B00446A6
:1003A0008846084B5E6B9F6B9D6A074801F01CFEF8
:1003B000CDF800803B4632462946204601F084FEB7
:1003C00000BEFEE700ED00E09888000800BEFEE7F2
:1003D00000BEFEE700BEFEE770470000D90200083D
:0C03E000510300089903000800BEFEE76E
:1003EC000C90000800000020FC0000200C9000087D
:1003FC000000001000000010FC0000202428002049
:08040C000000001000000010C8
:1004400008B50B4B1A6842F400721A601A6842F43D
:1004500080621A601A6842F480721A60032000F009
:1004600017F80F2001F066FF01F02CFF002008BDF7
:10047000003C0240024A136801331360704700BF1A
:1004800050250020014B1868704700BF5025002000
:1004900010B50446C31E042B03D9A421094801F05A
:1004A00099FD094AD36823F4E0631B041B0C240262
:1004B00004F4E064234343F0BF6343F40033D360A8
:1004C00010BD00BFB085000800ED00E070B5044627
:1004D0000E4615460F2A03D9BC211A4801F07AFDB1
:1004E0000F2E03D9BD21174801F074FD164BDA68B1
:1004F000C2F30222C2F10701042928BF0421131DFF
:10050000062B01D9033A00E00022012303FA01F18E
:1005100001393140914003FA02F2013A2A400A437C
:10052000002C06DA04F00F041201D2B2074B1A5560
:1005300070BD1201D2B204F1604404F5614484F844
:10054000002370BDB085000800ED00E014ED00E070
:1005500010B5041E03DAD021064801F03BFD620904
:1005600004F01F04012303FA04F4034B43F8224070
:1005700010BD00BFB085000800E100E00138B0F117
:10058000807F0AD2064B5860F021064A82F8231079
:100590000020986007221A6070470120704700BF52
:1005A00010E000E000ED00E010B50446042805D09E
:1005B00020B140F2B311084801F00CFD042C05D124
:1005C000064A136843F00403136010BD034A13681E
:1005D00023F00403136010BDB085000810E000E0B4
:1005E0002DE9F04782B080460F46A14B984223D0B8
:1005F00003F5806398421FD003F5806398421BD0B7
:1006000003F58063984217D003F58063984213D0B6
:1006100003F5806398420FD003F5806398420BD0B6
:1006200003F58063984207D003F58063984203D0B6
:10063000C521904801F0CEFC3B881BB9C6218D48EE
:1006400001F0C8FC7B68012B22D9112B20D0022B92
:100650001ED0122B1CD0884A934219D002F580126A
:10066000934215D002F58012934211D0A2F5F812F0
:1006700093420DD002F58012934209D002F5801208
:10068000934205D0032B03D0C7217A4801F0A2FC86
:10069000BB68022B03D9C821764801F09BFC0025DA
:1006A00026E10124AC403E682640B44240F01F8160
:1006B0007B68022B01D0122B45D13B699BB3092BE0
:1006C00031D083B37BB373B36BB3012B2BD02AD060
:1006D000022B28D027D026D0032B24D0042B22D0C5
:1006E00021D020D0052B1ED01DD0092B1BD0062BCE
:1006F00019D0092B17D0072B15D014D013D0082BE5
:1007000011D010D00FD0092B0DD00CD00A2B0AD04D
:1007100009D00C2B07D006D005D00F2B03D0D92140
:10072000544801F057FCEA08083258F8220005F056
:10073000070399000F238B4020EA03003B698B409D
:10074000034348F82230D8F800304FEA450A4FF00A
:10075000030909FA0AF96FEA090903EA09027B6841
:1007600003F0030303FA0AF31343C8F800307B686D
:100770005A1E012A03D9112B01D0122B1BD1FB6861
:10078000032B03D9EC213B4801F024FCD8F80830B6
:1007900009EA0302FB6803FA0AF31343C8F80830B6
:1007A000D8F8043023EA04047B68C3F30013AB4099
:1007B0001C43C8F80440D8F80C3009EA0309BB68A8
:1007C00003FA0AF349EA0303C8F80C307B6813F014
:1007D000805F00F08C8000230193284B5A6C42F418
:1007E00080425A645B6C03F480430193019BA90827
:1007F0008A1C234B53F8220005F003039B000F22B1
:100800009A4020EA02001A4A904521D002F58062FF
:1008100090451FD002F5806290451DD002F58062A0
:1008200090451BD002F58062904519D002F5806298
:10083000904517D002F58062904515D002F5806290
:10084000904513D002F5806290451BD108221AE032
:10085000002218E0012216E0022214E0032212E036
:10086000042210E005220EE006220CE007220AE036
:1008700000000240E485000800001110003802402A
:1008800000380140092202FA03F3034302311B4AF4
:1008900042F821301A4B1A68F34302EA03017868E0
:1008A00010F4803F01D046EA0201154A11605268F7
:1008B00003EA0201786810F4003F01D046EA020121
:1008C0000F4A5160926803EA0201786810F4801FB1
:1008D00001D046EA02010A4A9160D2681340796861
:1008E00011F4001F01D046EA0203054AD360013526
:1008F0000F2D7FF6D6AE02B0BDE8F087003801407C
:10090000003C014070B5064615460C4621B940F240
:10091000B111084801F05EFB012D04D94FF4D971E3
:10092000044801F057FB0DB1B46170BD2404B461FB
:1009300070BD00BFE485000803685A6912F4806F37
:100940000DD06FF480625A610423036400230363B3
:10095000202280F83D2080F83C30012070470020A4
:10096000704700BFF8B506460C4617461D4612E014
:10097000B5F1FF3F0FD02DB1FFF784FD069BC01AE4
:10098000854208D200233363202286F83D2086F872
:100990003C300320F8BDC4F30743012B08D1336872
:1009A0005B6924EA03039BB2B3FA83F35B0907E0B4
:1009B00033689B6924EA03039BB2B3FA83F35B09B0
:1009C000BB42D5D00020F8BDF8B504460D4616460A
:1009D0001F4629E023685A6912F4806F12D01A6802
:1009E00042F400721A6023686FF480625A61042333
:1009F000236400232363202284F83D2084F83C30C4
:100A00000120F8BDB6F1FF3F0ED026B1FFF73AFD49
:100A1000C01B864208D200232363202284F83D2095
:100A200084F83C300320F8BDC5F30743012B08D1FF
:100A300023685B6925EA03039BB2003318BF0123D7
:100A400007E023689B6925EA03039BB2003318BFC4
:100A50000123002BBED10020F8BD00BF70B50446B5
:100A60000D46164619E02046FFF766FFE0B9B5F1DE
:100A7000FF3F12D025B1FFF705FD801B85420CD248
:100A8000236C43F02003236400232363202284F893
:100A90003D2084F83C30032070BD23685B6913F06F
:100AA000800FE0D0002070BD012070BD2DE9F04125
:100AB00084B00546884616461F460B9C026813689C
:100AC00043F48073136000940A9B00224FF00111DD
:100AD000FFF748FF002846D12A6808F0FE0313619B
:100AE00023460A9A25492846FFF76EFF20B12B6C52
:100AF000042B3AD101233DE0002303932B685A696C
:100B000003929B690393039B22460A992846FFF7A9
:100B1000A5FF034648B12B6C042B28D12A68136823
:100B200043F400731360012324E0012F03D12A68EA
:100B3000F6B216611EE02B68320A1A6122460A9943
:100B40002846FFF78BFF034648B12B6C042B10D1CE
:100B50002A68136843F40073136001230AE02A68CB
:100B6000F6B2166106E0032304E0032302E0032348
:100B700000E00323184604B0BDE8F0810200010044
:100B80002DE9F04184B005460E46174698460B9C69
:100B90000268136843F4806313600268136843F4C7
:100BA0008073136000940A9B00224FF00111FFF73D
:100BB000D9FE002874D12B68F6B206F0FE021A6145
:100BC00023460A9A3F492846FFF7FEFE20B12B6CC8
:100BD000042B67D1012370E0002303932B685A692B
:100BE00003929B690393039B22460A992846FFF7C9
:100BF00035FF48B12B6C042B56D12A68136843F497
:100C000000731360012358E0B8F1010F03D12B6882
:100C1000FFB21F6115E02B683A0A1A6122460A9951
:100C20002846FFF71BFF48B12B6C042B3ED12A68E6
:100C3000136843F40073136001233EE02B68FFB296
:100C40001F6122460A992846FFF708FF48B12B6C1E
:100C5000042B2DD12A68136843F400731360012319
:100C60002BE02A68136843F48073136000940A9B96
:100C700000224FF001112846FFF774FED0B92B680F
:100C800046F001061E6123460A9A0E492846FFF7E0
:100C90009BFE034688B12B6C042B0DD101230CE085
:100CA00003230AE0032308E0032306E0032304E010
:100CB000032302E0032300E00323184604B0BDE849
:100CC000F08100BF0200010070B504460D461646D3
:100CD00019E02046FFF730FEE0B9B5F1FF3F12D032
:100CE00025B1FFF7CFFB801B85420CD2236C43F06C
:100CF0002003236400232363202284F83D2084F80A
:100D00003C30032070BD23685B6913F0040FE0D012
:100D1000002070BD012070BD70B505460C4616461A
:100D200022E05A6912F0100F0CD06FF010025A61D5
:100D300000232B642B63202285F83D2085F83C306E
:100D4000012070BD24B1FFF79DFB801B84420BD2B4
:100D50002B6C43F020032B64202385F83D300023C7
:100D600085F83C30032070BD2B685A6912F0400FA3
:100D7000D7D0002070BD00BF002800F0E38038B558
:100D800004460368704A93420CD002F58062934295
:100D900008D002F58062934204D040F265116B489E
:100DA00001F018F96368013B694A934204D94FF492
:100DB000B371664801F00EF9A3683BB1B3F5804FFB
:100DC00004D040F26711614801F004F9E36823F4AC
:100DD0007F7323F0030323B14FF4B4715B4801F038
:100DE000F9F82369B3F5804F07D0B3F5404F04D02D
:100DF00040F26911554801F0EDF86369012B04D9FF
:100E00004FF4B571514801F0E5F8A36933F0FE03E2
:100E100004D040F26B114D4801F0DCF8E36933B1C6
:100E2000402B04D04FF4B671484801F0D3F8236A40
:100E300033B1802B04D040F26D11444801F0CAF860
:100E400094F83D3013F0FF0F05D1002384F83C30B7
:100E5000204601F039FA242384F83D3022681368D3
:100E600023F00103136000F015FE3A4BA3FB0023AF
:100E70009B0C2268536021686568374A954201D807
:100E8000013308E04FF4967202FB03F3334AA2FBEE
:100E900003239B0901330B62216863682E4A934246
:100EA00008D85B00B0FBF3F0C0F30B03032B2BD887
:100EB000042029E0A5684DB903EB4302B0FBF2F230
:100EC000C2F30B02B2FA82F252090AE003EB830288
:100ED00002EB8202B0FBF2F2C2F30B02B2FA82F230
:100EE000520982B935B903EB4303B0FBF3F040F488
:100EF000004009E003EB830303EB8303B0FBF3F053
:100F000040F4404000E00120C8612268E169236AA2
:100F10000B43136022682169E3680B4393602268E6
:100F20006169A3690B43D3602268136843F001032E
:100F3000136000202064202384F83D30206384F86F
:100F40003E0038BD01207047005400401486000860
:100F50007F1A060083DE1B43A0860100D34D62107A
:100F60002DE9F04383B00546884691461C46BDF8FE
:100F70002C60FFF787FA0746012C06D0102C04D00E
:100F800040F65511494801F025F895F83D30DBB29F
:100F9000202B7ED100971923012245492846FFF7CF
:100FA000E1FC002877D195F83C30012B75D0012366
:100FB00085F83C302A68136823F40063136021230A
:100FC00085F83D30402385F83E3000232B64A3F59F
:100FD0008033EB6201970C9B009323464A464146BF
:100FE0002846FFF763FD002832D02B6C042B04D178
:100FF000002385F83C30012354E0002385F83C3081
:1010000003234FE03A460C992846FFF727FD48B1E5
:101010002B6C042B43D12A68136843F400731360CC
:1010200001233FE02B680A9A01320A990978196175
:10103000731E9BB22968486910F0040F06D02BB1CB
:101040000A9B9A1C5B780B61B31E9BB21E460A92E8
:10105000002ED7D13A460C992846FFF735FE0346B5
:1010600048B12B6C042B1CD12A68136843F400731D
:101070001360012316E029680A6842F400720A60CE
:10108000202285F83D20002285F83E2085F83C206E
:1010900008E0022306E0022304E0022302E0032327
:1010A00000E00323184603B0BDE8F083148600086F
:1010B000020010002DE9F04387B0054688469146AE
:1010C0001C46BDF83C60FFF7DDF90746012C06D051
:1010D000102C04D040F6CC11944800F07BFF95F81A
:1010E0003D30DBB2202B40F00D8100971923012207
:1010F0008F492846FFF736FC002840F0058195F817
:101100003C30012B00F00281012385F83C302A6835
:10111000136823F400631360222385F83D304023D5
:1011200085F83E3000232B64A3F58033EB620197F2
:10113000109B009323464A4641462846FFF720FD70
:10114000044660B12B6C042B04D1002385F83C309D
:101150000124E6E0002385F83C300324E1E066B991
:10116000002302932B685A6902929A690292029AAA
:101170001A6842F400721A60B8E0012E11D12A6890
:10118000136823F480631360002303932B685A6968
:1011900003929A690392039A1A6842F400721A60E1
:1011A000A4E0022E12D12A68136823F4806313602E
:1011B0002A68136843F400631360002304932B68C8
:1011C0005A6904929B690493049B8FE00023059362
:1011D0002B685A6905929B690593059B86E0032E4F
:1011E00061D8012E15D13A4610992846FFF794FD93
:1011F00028B12B6C202B40F08B80032491E02B68CE
:101200001B690E9A1370013EB6B2134601330E935A
:101210006CE0022E1AD10097109B00224549284607
:10122000FFF7A0FB002875D12A68136843F4007308
:1012300013602B681A690E9B03F8022B2A68126947
:101240000E994A70023EB6B20E934FE00097109B83
:10125000002238492846FFF785FB00285CD12A6820
:10126000136823F4806313602B681B690E9A137054
:101270000097109B00222F492846FFF773FB002898
:101280004CD12A68136843F4007313602B681B6900
:101290000E9A53702B681B699370033EB6B21346C7
:1012A00003330E9322E03A4610992846FFF734FDA7
:1012B00020B12B6C202B33D1032432E00E9B581C21
:1012C0002B681B690E9A1370731E9BB22A685169B2
:1012D00011F0040F08D013690E9A5370023EB6B293
:1012E000134602330E9301E01E460E90002E7FF44B
:1012F00076AF202385F83D30002385F83E3085F811
:101300003C300EE002240CE002240AE0022408E053
:10131000012406E0032404E0032402E0032400E0A7
:101320000124204607B0BDE8F08300BF1486000802
:10133000020010000400010030B583B004460368C9
:101340000F2B03D9F5219C4800F044FE236813F0CD
:10135000010F45D06368012B05D9052B03D0FA2175
:10136000954800F037FE954B9B6803F00C03042B67
:101370000AD0924B9B6803F00C03082B0CD18F4BC7
:101380005B6813F4800F07D08C4B1B6813F4003F8D
:1013900026D0636823BBCCE12279894B1A7063683D
:1013A0007BB1FFF76FF8054605E0FFF76BF8401BD0
:1013B000642800F2C081814B1B6813F4003FF4D015
:1013C0000EE0FFF75FF8054605E0FFF75BF8401B0E
:1013D000642800F2B281794B1B6813F4003FF4D10A
:1013E000236813F0020F6AD0E368012B04D94FF48D
:1013F0009671714800F0EEFD23691F2B04D940F26D
:101400002D116D4800F0E6FD6C4B9B6813F00C0F3E
:101410000AD06A4B9B6803F00C03082B1BD1674B67
:101420005B6813F4800F16D1644B1B6813F0020F36
:1014300003D0E368012B40F082816048036823F009
:10144000F8012369F82292FAA2F2B2FA82F29340EA
:101450000B43036033E0E368FBB10122594B1A6090
:10146000FFF710F8054605E0FFF70CF8401B0228CF
:1014700000F26781514B1B6813F0020FF4D04F4804
:10148000036823F0F8012369F82292FAA2F2B2FA73
:1014900082F293400B43036011E00022494B1A6033
:1014A000FEF7F0FF054605E0FEF7ECFF401B0228C3
:1014B00000F24981414B1B6813F0020FF4D12368FD
:1014C00013F0080F2ED06369012B04D940F26D117F
:1014D000394800F07FFD636993B101223A4B1A60ED
:1014E000FEF7D0FF054605E0FEF7CCFF401B0228C3
:1014F00000F22B81314B5B6F13F0020FF4D011E03F
:101500000022314B1A60FEF7BDFF054605E0FEF7ED
:10151000B9FF401B022800F21A81284B5B6F13F0C1
:10152000020FF4D1236813F0040F60D0A368012BDD
:1015300006D9052B04D040F297111F4800F04AFD50
:10154000002301931D4B1A6C42F080521A641B6CED
:1015500003F080530193019B1C4A136843F480738A
:101560001360FEF78FFF054605E0FEF78BFF401B7B
:10157000022800F2EE80154B1B6813F4807FF4D034
:10158000227A134B1A70A3688BB1FEF77BFF0546D6
:1015900007E0FEF777FF401B41F28833984200F2E4
:1015A000DA80064B1B6F13F0020FF2D01FE0FEF73C
:1015B00069FF054616E000BF548600080038024067
:1015C0000238024000004742800E4742007000404F
:1015D00070380240FEF756FF401B41F288339842B4
:1015E00000F2BB80634B1B6F13F0020FF2D1A369B3
:1015F000022B04D94FF4E6715F4800F0EBFCA369BD
:10160000002B00F0AC805B4A926802F00C02082AC2
:1016100000F0A780022B79D1E3693BB1B3F5800FCD
:1016200004D040F2D511544800F0D4FC236A3F2B7B
:1016300004D94FF4EB71504800F0CCFC636A323BA4
:10164000B3F5BF7F04D940F2D7114B4800F0C2FC7C
:10165000A36A022B0AD0042B08D0062B06D0082B35
:1016600004D04FF4EC71444800F0B4FCE36A043B4E
:101670000B2B04D940F2D9113F4800F0ABFC0022FB
:101680003E4B1A60FEF7FEFE054604E0FEF7FAFE4A
:10169000401B022867D8374B1B6813F0007FF5D139
:1016A000E169236A1943636A47F6C07292FAA2F2AB
:1016B000B2FA82F293401943A36A5B085A1E4FF4B0
:1016C000403393FAA3F3B3FA83F302FA03F30B4321
:1016D000E26A4FF0706191FAA1F1B1FA81F18A40AA
:1016E0001343244A53600122244B1A60FEF7CAFEBA
:1016F000044604E0FEF7C6FE001B022835D81D4B49
:101700001B6813F0007FF5D0002031E000221B4B56
:101710001A60FEF7B7FE044604E0FEF7B3FE001BB6
:10172000022824D8134B1B6813F0007FF5D100204A
:101730001EE001201CE003201AE0032018E0012035
:1017400016E0032014E0032012E0032010E0032041
:101750000EE003200CE003200AE0032008E0002054
:1017600006E0012004E0032002E0032000E0032063
:1017700003B030BD00380240548600086000474284
:10178000254B9B6803F00C03042B3FD0082B01D0A2
:101790002248704710B4204B586800F03F005B6847
:1017A00013F4800F10D01E4BB3FBF0F01A4B5A68A5
:1017B00047F6C0710A4091FAA1F3B3FA83F322FA13
:1017C00003F303FB00F310E0144BB3FBF0F0124BF8
:1017D0005A6847F6C07402EA040194FAA4F2B2FA15
:1017E00082F221FA02F202FB00F30B4A506800F485
:1017F00040324FF4403090FAA0F0B0FA80F022FA74
:1018000000F001304000B3FBF0F001E00448704705
:101810005DF8044B704700BF003802400024F4001C
:1018200000127A0070B504460D460368013B0E2B8A
:1018300004D940F237218F4800F0CCFB072D04D9A2
:101840004FF40E718B4800F0C5FB8B4B1B6803F007
:101850000F039D4208D9EBB2874A1370136803F057
:101860000F039D4240F0F480236813F0020F1DD057
:10187000A368A3B1802B12D0902B10D0A02B0ED038
:10188000B02B0CD0C02B0AD0D02B08D0E02B06D028
:10189000F02B04D040F24F21764800F09BFB7749B3
:1018A0008B6823F0F002A36813438B60236813F066
:1018B000010F6BD06368032B04D940F256216D48A9
:1018C00000F088FB6268012A05D16C4B1B6813F499
:1018D000003F0FD1BEE0931E012B05D8674B1B685C
:1018E00013F0007F06D1B7E0644B1B6813F0020FC2
:1018F00000F0B48061498B6823F0030313438B60CD
:10190000FEF7C0FD06466368012B0FD107E0FEF726
:10191000B9FD801B41F28833984200F2A180574BF9
:101920009B6803F00C03042BF1D12FE0022B0FD1A5
:1019300007E0FEF7A7FD801B41F28833984200F2D2
:1019400091804E4B9B6803F00C03082BF1D11DE0F6
:10195000032B16D107E0FEF795FD801B41F288337B
:10196000984200F28180454B9B6803F00C030C2BDE
:10197000F1D10BE0FEF786FD801B41F288339842DF
:1019800074D83E4B9B6813F00C0FF3D13A4B1B6895
:1019900003F00F039D4207D2EAB2374B1A701B685F
:1019A00003F00F039D4263D1236813F0040F19D095
:1019B000E36883B1B3F5805F0DD0B3F5A05F0AD0C3
:1019C000B3F5C05F07D0B3F5E05F04D04FF42D71DD
:1019D000284800F0FFFA29498B6823F4E052E368B5
:1019E00013438B60236813F0080F1AD0236983B167
:1019F000B3F5805F0DD0B3F5A05F0AD0B3F5C05F3B
:101A000007D0B3F5E05F04D040F2BB21194800F0E5
:101A1000E1FA1A4A936823F46043216943EAC10357
:101A20009360FFF7ADFE154B9B6803F0F002F023C7
:101A300093FAA3F3B3FA83F322FA03F3104AD35CC5
:101A4000D840104B18600F2000F074FC002070BDCF
:101A5000012070BD012070BD012070BD012070BD4E
:101A6000032070BD032070BD032070BD032070BD36
:101A7000012070BD54860008003C0240003802403E
:101A8000448600080C000020014B1868704700BF16
:101A90000C00002008B5FFF7F7FF084B9B6803F424
:101AA000E0524FF4E05393FAA3F3B3FA83F322FA2C
:101AB00003F3034AD35CD84008BD00BF003802409E
:101AC000448600080F2303600B4B9A6802F0030260
:101AD00042609A6802F0F00282609A6802F4E05272
:101AE000C2609B68DB0803F4E0530361034B1B688F
:101AF00003F00F030B60704700380240003C0240C7
:101B0000704700BF10B504460368234A934237D09C
:101B1000B3F1804F34D0A2F57C42934230D002F52D
:101B2000806293422CD002F58062934228D002F565
:101B30008062934224D002F58062934220D002F565
:101B4000704293421CD002F57052934218D002F5B5
:101B50008062934214D002F58062934210D0A2F5C5
:101B6000983293420CD002F58062934208D002F57D
:101B70008062934204D04FF4B271084800F02AFA10
:101B80002268D36843F00103D3602268136843F0EE
:101B900001031360002010BD00000140848600088E
:101BA000704700BF704700BF704700BF704700BF5D
:101BB00010B5044603681A6912F0020F17D0DA68EC
:101BC00012F0020F13D06FF002021A6101230376A4
:101BD00003689B6913F0030F02D0FFF7E3FF04E0F3
:101BE000FFF7DEFF2046FFF7DFFF002323762368A1
:101BF0001A6912F0040F19D0DA6812F0040F15D028
:101C00006FF004021A610223237623689B6913F4A0
:101C1000407F03D02046FFF7C5FF05E02046FFF7D1
:101C2000BFFF2046FFF7C0FF0023237623681A6911
:101C300012F0080F19D0DA6812F0080F15D06FF003
:101C400008021A61042323762368DB6913F0030F6B
:101C500003D02046FFF7A6FF05E02046FFF7A0FFD0
:101C60002046FFF7A1FF0023237623681A6912F0AC
:101C7000100F19D0DA6812F0100F15D06FF01002A3
:101C80001A61082323762368DB6913F4407F03D0AD
:101C90002046FFF787FF05E02046FFF781FF20463B
:101CA000FFF782FF0023237623681A6912F0010FE1
:101CB00009D0DA6812F0010F05D06FF001021A6145
:101CC000204600F07BFB23681A6912F0800F09D0D0
:101CD000DA6812F0800F05D06FF080021A6120469A
:101CE00000F026F923681A6912F0400F09D0DA686B
:101CF00012F0400F05D06FF040021A612046FFF746
:101D000055FF23681A6912F0200F09D0DA6812F023
:101D1000200F05D06FF020021A61204600F006F96E
:101D200010BD00BF0368454A904214D0B0F1804F07
:101D300013D0A2F57C42904211D002F5806290420D
:101D40000FD002F5806290420DD002F578429042A9
:101D50000BD101220AE0012208E0012206E0012263
:101D600004E0012202E0012200E000221AB123F087
:101D700070034A681343314A90422CD0B0F1804F2F
:101D80002BD0A2F57C42904229D002F5806290428D
:101D900027D002F58062904225D002F57842904229
:101DA00023D002F57052904221D002F58062904219
:101DB0001FD002F5806290421DD0A2F59832904269
:101DC0001BD002F58062904219D002F580629042E9
:101DD00017D1012216E0012214E0012212E00122B3
:101DE00010E001220EE001220CE001220AE00122B3
:101DF00008E0012206E0012204E0012202E00122C3
:101E000000E000221AB123F44073CA681343036050
:101E10008B68C3620B688362084B984205D003F558
:101E20008063984203D1012302E0012300E00023F4
:101E30000BB10B690363012343617047000001404C
:101E400000286DD010B504460368364A934236D058
:101E5000B3F1804F33D0A2F57C4293422FD002F5EC
:101E6000806293422BD002F58062934227D002F524
:101E70008062934223D002F5806293421FD002F524
:101E8000704293421BD002F57052934217D002F574
:101E90008062934213D002F5806293420FD0A2F584
:101EA000983293420BD002F58062934207D002F53C
:101EB0008062934203D0D9211B4800F08BF8A368BD
:101EC0005BB1102B09D0202B07D0402B05D0602B05
:101ED00003D0DA21144800F07DF823694BB1B3F543
:101EE000807F06D0B3F5007F03D0DB210E4800F0E1
:101EF00071F894F8393013F0FF0F05D1002384F8FE
:101F000038302046FFF7FCFD022384F83930211DCC
:101F10002068FFF707FF012384F83930002010BD47
:101F2000012070470000014084860008704700BF10
:101F3000704700BFFEE700BF08B5034800F06CF82B
:101F40000120FFF7F7FF00BFB486000808B50D4B6E
:101F50001B6813B90C4A0B4B1A600A4B1A68C31C56
:101F600023F00303134409498B4206D903F0E0F937
:101F70000C2303604FF0FF3008BD02490B60104690
:101F800008BD00BF000100202428002000FC012023
:101F900001230360014B0B60704700BF0400002069
:101FA00000B583B00C46194613460AB1064A00E054
:101FB000064A03B9054B01930092234602460448A2
:101FC00000F012F8FFF7B8FFC88600085C87000829
:101FD000D886000808B50A460146024800F004F811
:101FE000FFF7AAFF088700080FB400B583B004AB61
:101FF00053F8042B01938021064804F029FA0028A5
:1020000003DD0146034800F049F803B05DF804EB36
:1020100004B070470801002010B5044604F070F9C0
:102020000146204600F03AF80121024800F036F857
:1020300010BD00BFF88700082DE9F04385B00446C5
:102040000F46435613BB042528462146ABBE044623
:102050001FE03546102E28BF1025002306E014F996
:10206000011B04AA1A4402F8101C0133AB42F6D338
:1020700004AA1344002203F8102CE9464FF0040888
:1020800040464946ABBE8046761B00E00E46002E19
:10209000DFD1384605B0BDE8F08300BF08B5FFF7D3
:1020A000CBFF08BD08B500F097F8054B054A9A60CC
:1020B000D3F8882042F47002C3F8882008BD00BF1E
:1020C00000ED00E000000008F8B504460D46174694
:1020D0001E462648FFF788FF21682548FFF784FF42
:1020E00061682448FFF780FFA1682348FFF77CFF61
:1020F000E1682248FFF778FF21692148FFF774FF64
:1021000061692048FFF770FFA1691F48FFF76CFF66
:10211000E1691E48FFF768FF1D48FFF765FF294684
:102120001C48FFF761FF1C4CE16A1C48FFF75CFF8D
:10213000216B1B48FFF758FFE16B1A48FFF754FF6C
:1021400015F0800F03D039461748FFF74DFF15F4FF
:10215000004F03D031461548FFF746FF1448FFF7FC
:1021600043FF06991348FFF73FFFF8BD608700085B
:10217000708700088087000890870008A087000803
:10218000B0870008C0870008D0870008E0870008F3
:10219000F0870008FC87000800ED00E00C880008CC
:1021A0001C8800082C8800083C8800084C8800081F
:1021B0005C8800086488000883691A888A4207D10D
:1021C0000268033A012A05D802338361012070476F
:1021D00000207047002070470F49D1F8883043F441
:1021E0007003C1F888300D4B1A6842F001021A6082
:1021F000002098601A6822F0847222F480321A60FB
:10220000074A5A601A6822F480221A60D8604FF098
:1022100000638B60704700BF00ED00E000380240B3
:1022200010300024224B9B6803F00C03042B07D0D2
:10223000082B09D0002B2DD11E4A1F4B1A602CE011
:102240001E4A1D4B1A6028E0194B5A685B6803F060
:102250003F0312F4800F09D0184AB2FBF3F2144B7B
:102260005B68C3F3881303FB02F208E0114AB2FB78
:10227000F3F30F4A5168C1F3881101FB03F20C4BD1
:102280005B68C3F3014301335B00B2FBF3F30A4A1B
:10229000136002E0074A084B1A60054B9B68C3F3C2
:1022A0000313074AD15C044A1368CB40136070479C
:1022B000003802400024F4000C00002000127A00D4
:1022C000A8880008704700BF00B589B00268174BA6
:1022D0009A4225D10022019203F5F233196C41F4A0
:1022E00000111964196C01F4001101910199029215
:1022F000196B41F0020119631B6B03F00203029397
:10230000029B04230793122304934FF44073039317
:1023100005920223069303A90548FEF761F901E03F
:10232000FFF70AFE09B05DF804FB00BF005400404F
:102330000004024000B589B0002201463620FEF7B5
:10234000C5F83620FEF704F900230193174B1A6CE9
:1023500042F010021A641B6C03F010030193019BFE
:1023600002A903A8FFF7AEFB069B13B9FFF792FB88
:1023700002E0FFF78FFB40000D4BA3FB00239B0CFB
:10238000013B0C480C4A026040F2E732C2604360F5
:10239000002303618360FFF753FD18B90548FFF779
:1023A000B1FB00E0012009B05DF804FB00380240F9
:1023B00083DE1B43582500200010004008B5FEF7BF
:1023C00059F808BD08B50248FFF7F2FB08BD00BF89
:1023D0005825002082B0C0F307238DF806308DF811
:1023E0000700BDF9060002B0704700BF10B584B009
:1023F00044F6206402940193009201230A460146A8
:102400000248FEF757FE04B010BD00BF7C26002036
:1024100070B586B004460D46164606AA002302F89B
:10242000013D0123FFF7E2FF88B99DF817203243F1
:1024300006A901F8022D44F62063029301230193BB
:1024400000912A4621460348FEF78AFDFFE706B0C1
:1024500070BD00BF7C26002010B582B04FF48042D2
:1024600002614CF250324260002242618260C261DD
:102470000262C2608B4A0260102280F83E20FEF7A2
:102480007BFC0346002840F00A8180226B21D0208B
:10249000FFF7BEFF0346002840F00181642001F0F1
:1024A000ABF801221921D020FFF7B2FF0346002824
:1024B00040F0F58005221A21D020FFF7A9FF03463E
:1024C000002840F0EC8008221C21D020FFF7A0FF5C
:1024D0000346002840F0E38004221D21D020FFF7AE
:1024E00097FF0346002840F0DA8000222321D02005
:1024F000FFF78EFF0346002840F0D18000223821EC
:10250000D020FFF785FF0346002840F0C880002256
:102510006A21D020FFF77CFF0346002840F0BF80EF
:1025200001226B21D020FFF773FF0346002840F003
:10253000B68000226C21D020FFF76AFF03460028F6
:1025400040F0AD8000221B21D020FFF761FF034641
:10255000002840F0A48001230DF107027821D0204B
:10256000FFF744FF0346002840F0998001230DF156
:1025700006027721D020FFF739FF0346002840F0FC
:102580008E809DF806209DF807305B0803EBC21390
:10259000113B9BB21CB25A0002F0FE027821D020FF
:1025A000FFF736FF0346002879D1C4F3C71277211D
:1025B000D020FFF72DFF0346002870D101230DF135
:1025C00005027B21D020FFF711FF0346002866D1CA
:1025D000012301AA7A21D020FFF708FF0346002833
:1025E0005DD19DF804209DF805305B0803EBC21314
:1025F000103B9BB21CB25A0002F0FE027B21D0209D
:10260000FFF706FF0346002849D1C4F3C7127A2119
:10261000D020FFF7FDFE0346002840D101230DF135
:1026200003027E21D020FFF7E1FE0346B8BB012361
:102630000DF102027D21D020FFF7D8FE034670BBCA
:102640009DF802209DF803305B0803EBC213143B96
:102650009BB21CB25A0002F0FE027E21D020FFF78E
:10266000D7FE0346D8B9C4F3C7127D21D020FFF7A7
:10267000CFFE034698B902223721D020FFF7C8FECB
:10268000034660B916220A211820FFF7C1FE03464F
:1026900028B900223721D020FFF7BAFE034618469A
:1026A00002B010BD00540040F8B505460E460623A2
:1026B00002463B21D020FFF799FE0746E8B90623E2
:1026C00032464321D020FFF791FE0746A8B90024E7
:1026D00006E035F91400FFF77DFE25F814000134FB
:1026E000022CF6DD002406E036F91400FFF772FE36
:1026F00026F814000134022CF6DD3846F8BD00BF80
:10270000F8B52DED048B05460C46B0F9000007EE38
:10271000900AF8EEE77A17EE900A02F0B5FA40A3B5
:10272000D3E9002302F004FB06460F469FED389BD9
:102730009FED398BB0EE491AF0EE691AB0EE480AF7
:10274000F0EE680A01F00CF853EC102B30463946D5
:1027500002F0EEFA34A3D3E9002302F0E9FA02F022
:1027600097FD2060B5F9020007EE900AF8EEE77ACF
:1027700017EE900A02F088FA29A3D3E9002302F0A9
:10278000D7FA06460F46B0EE491AF0EE691AB0EED7
:10279000480AF0EE680A00F0E3FF53EC102B3046D5
:1027A000394602F0C5FA22A3D3E9002302F0C0FAA9
:1027B00002F06EFD6060B5F9040007EE900AF8EED5
:1027C000E77A17EE900A02F05FFA15A3D3E9002327
:1027D00002F0AEFA06460F46B0EE491AF0EE691A5C
:1027E000B0EE480AF0EE680A00F0BAFF53EC102B86
:1027F0003046394602F09CFA0FA3D3E9002302F0D9
:1028000097FA02F045FDA060BDEC048BF8BD00BF57
:10281000000000000000F03F000000000000004049
:102820005629C10BF017423FC185860F3646F13F4E
:102830007242322E6655F13FC5E00621C525F13FB3
:10284000F0B593B0002305933A4A116B41F00401AF
:102850001163126B02F004020592059A11220E9286
:102860004FF480520D920F9310930DA93248FDF74B
:10287000B7FE3248FFF7F0FD01463148FFF7B4FBE1
:102880000024ADF81840ADF81A40ADF81C40ADF882
:102890002040ADF82240ADF8244000230A930B936A
:1028A0000C9308A906A8FFF7FFFE0AA906A8FFF7E0
:1028B00027FF00F097F9234608E09A0012A9114477
:1028C00051F8201C1F48024411600133022BF4DD33
:1028D00000F0BCF900F086F91A4B5E689F68186832
:1028E00002F0D2F904460D46384602F0CDF9CDE9A2
:1028F0000201304602F0C8F9CDE9000122462B461C
:102900001148FFF771FB00F0A1F9642000F074FE9C
:10291000094C00224FF480512046FDF7F3FF64205C
:1029200000F06AFE01224FF480512046FDF7EAFFD5
:10293000A6E700BF00380240000802407C260020C5
:10294000C088000894270020B888000830B595B0EA
:1029500000240194214B1A6C42F080521A641B6CC3
:1029600003F080530193019B02941D4B1A6842F4BB
:1029700080421A601B6803F480430293029B012388
:10298000089309934FF480030F93082310934FF497
:10299000A873119302251295072313930E9508A887
:1029A000FEF7CAFC0F230393049505944FF4A0533C
:1029B00006934FF480530793052103A8FEF732FFD7
:1029C000FFF762F8074BA3FB00308009FDF7D6FD47
:1029D0000420FDF7E9FD15B030BD00BF003802400E
:1029E00000700040D34D621008B5FDF729FDFFF7D8
:1029F000ADFFFFF717FC08BD00B585B0122200211E
:102A0000284802F035FD04220021274802F030FD5D
:102A100010220021254802F02BFD24220021244809
:102A200002F026FD4C220021224802F021FD0C225A
:102A30000021214802F01CFD082200211F4802F05D
:102A400017FD102200211E4802F012FD2C22002149
:102A50001C4802F00DFD4C2200211B4802F008FD2D
:102A600010220021194802F003FD08220021184815
:102A700002F0FEFC04220021164802F0F9FC164B7D
:102A80000293164B01930123009300234FF400623D
:102A90001349144800F0E4FB00F03EFC002005B0B0
:102AA0005DF804FB80270020B827002024270020A1
:102AB0009427002034270020702600201C270020A7
:102AC0006026002094250020D0260020C02500206C
:102AD00014260020BC270020882100208801002027
:102AE000C48800084128000808480068006880F38E
:102AF00008884FF0000080F3148862B661B6BFF317
:102B00004F8FBFF36F8F00DF00BF000008ED00E0C4
:102B1000DFF80C00016841F47001016070470000AB
:102B200088ED00E000B583B000230193124B1B68D1
:102B3000B3F1FF3F12D04FF0500383F31188BFF37E
:102B40006F8FBFF34F8F0C4B1B68B3F1FF3F05D066
:102B50000A4B0B4AE4210B48FFF722FA4FF05003CF
:102B600083F31188BFF36F8FBFF34F8F019B002B4F
:102B7000FCD003B05DF804FB10000020F0880008D2
:102B8000C88800080C8900084FF0807340F8043CA6
:102B900021F0010140F8081C054B40F80C3C40F8BE
:102BA000202C6FF0020340F8243C4438704700BFEB
:102BB000252B0008000000000000000000000000BD
:102BC000074B19680868B0E8F04F80F30988BFF335
:102BD0006F8F4FF0000080F311887047AFF30080D3
:102BE0005424002008B54FF0500383F31188BFF33D
:102BF0006F8FBFF34F8F104A136801331360012B9F
:102C000018D10E4B1B6813F0FF0F13D04FF0500379
:102C100083F31188BFF36F8FBFF34F8F074B1B6890
:102C200013F0FF0F06D0064B064A4FF4D07106484A
:102C3000FFF7B6F908BD00BF1000002004ED00E06A
:102C400054890008EC8A00080C89000808B50E4B6E
:102C50001B688BB94FF0500383F31188BFF36F8F5C
:102C6000BFF34F8F084B1B6833B9084B084A40F23B
:102C7000A7110848FFF794F9034A1368013B136052
:102C80000BB983F3118808BD100000209889000853
:102C9000008B00080C890008000000000000000004
:102CA000EFF30980BFF36F8F154B1A681EF0100FFA
:102CB00008BF20ED108A20E9F04F10602DE90900CF
:102CC0004FF0500080F31188BFF34F8FBFF36F8F29
:102CD00000F0C8FC4FF0000080F3118809BC1968AF
:102CE0000868B0E8F04F1EF0100F08BFB0EC108A73
:102CF00080F30988BFF36F8F704700BFAFF3008088
:102D00005424002008B54FF0500383F31188BFF31B
:102D10006F8FBFF34F8F00F041FB18B14FF080521F
:102D2000024B1A60002383F3118808BD04ED00E014
:102D3000084A0023136008490B60084B1B680849C8
:102D4000A1FB03139B09013B06490B60072313609A
:102D5000704700BF10E000E018E000E00C00002029
:102D6000D34D621014E000E010B582B0494B1A68F0
:102D7000494B9A4213D14FF0500383F31188BFF3AC
:102D80006F8FBFF34F8F434B1A68434B9A4206D164
:102D9000424B434A40F229114248FFF701F93D4BAB
:102DA0001A68414B9A4213D14FF0500383F31188B4
:102DB000BFF36F8FBFF34F8F364B1A683A4B9A426F
:102DC00006D13A4B364A4FF495713648FFF7E8F88A
:102DD000374B1A78D2B20192FF221A701B78DBB2FD
:102DE0008DF803309DF8033003F05003314A13701F
:102DF0000722314B1A6009E02F4A1368013B136028
:102E00009DF803305B00DBB28DF803309DF8033092
:102E100013F0800FF0D1284B1B68032B12D04FF01A
:102E2000500383F31188BFF36F8FBFF34F8F224B93
:102E30001B68032B06D0214B194A40F25B1119483D
:102E4000FFF7AEF81C4A13681B0203F4E06313603B
:102E5000019BDBB2164A1370194B1A6842F47002D8
:102E60001A601A6842F070421A60FFF761FF00248E
:102E7000144B1C60FFF74CFE134A136843F04043A9
:102E80001360FFF731FE00F0EDFBFFF74BFE20462D
:102E900002B010BD00ED00E071C20F41AC89000826
:102EA000DC8800080C89000870C20F41F089000816
:102EB00000E400E0E0210020E4210020348A000842
:102EC00020ED00E01000002034EF00E008B50248DB
:102ED000FFF78AF8FFF730F8148B0008034B036004
:102EE000034B0B6082231360704700BFF023002068
:102EF000E821002000F1080343604FF0FF328260B8
:102F0000C360036100230360704700BF00230361B7
:102F1000704700BF43684B609A688A609A68516046
:102F200099600861036801330360704730B40D682D
:102F3000B5F1FF3F01D1026907E000F1080200E0AE
:102F40001A4653681C68A542FAD253684B609960D0
:102F50008A605160086103680133036030BC7047C8
:102F600003694268816891608268416851605A686B
:102F7000904201D182685A60002202611A68013AC7
:102F80001A601868704700BF0A4B1B681B680BB9B2
:102F9000012300E0002323B14FF0FF32064B1A60FB
:102FA0007047044B1B68DB68DB685A68024B1A6089
:102FB000704700BF4C240020742400202DE9F04706
:102FC00081460D4617469A46089EDDF824800A9CE5
:102FD0009200A521206B02F04BFA236B07F180428F
:102FE000013A03EB820727F00707002306E0E956C2
:102FF000E21882F83410EA5612B10133092BF6D9DF
:10300000002384F83D30042E00D90426E662A6642D
:103010000025E564201DFFF779FF04F11800FFF794
:1030200075FF2461C6F10506A6616462256584F812
:103030005450524649463846FFF7A6FD2060B8F185
:10304000000F01D0C8F80040BDE8F08738B5002473
:1030500007E004EB840293000E481844FFF74AFF90
:103060000134042CF5D90C4D2846FFF743FF0B4CD7
:103070002046FFF73FFF0A48FFF73CFF0948FFF7EC
:1030800039FF0948FFF736FF084B1D60084B1C60ED
:1030900038BD00BFA02400200C25002020250020E2
:1030A000842400205C240020342500204C240020AF
:1030B0009824002010B50446FFF794FD214A1368B8
:1030C00001331360204B1B683BB91F4B1C60136816
:1030D000012B0DD1FFF7BAFF0AE01C4B1B683BB96F
:1030E000194B1B68DA6AE36A9A4201D8164B1C60D6
:1030F000174A1368013313602364E36A012202FA5A
:1031000003F1144802680A43026003EB83039A0048
:10311000211D11481044FFF7FDFEFFF797FD0B4BF3
:103120001B686BB1084B1B68DA6AE36A9A4207D2E4
:103130004FF08052094B1A60BFF34F8FBFF36F8F70
:1031400010BD00BF50240020542400207024002013
:103150007C24002080240020A024002004ED00E036
:1031600008B511E0FFF73EFD0A4BDB68D868043074
:10317000FFF7F6FE084A1368013B1360074A13681D
:10318000013B1360FFF762FD044B1B68002BE9D184
:1031900008BD00BF5C2400205024002058240020DB
:1031A00008B5FFF7DDFF064B1B68012BF9D94FF07F
:1031B0008052044B1A60BFF34F8FBFF36F8FF0E75D
:1031C000A024002004ED00E070B504460E461D4B1F
:1031D0001D681D4B18680430FFF7C2FE50B91A4B2A
:1031E0001B68DA6A012303FA02F218490B6823EA22
:1031F00002030B60B4F1FF3F07D136B1124B1968DF
:1032000004311348FFF786FE70BD2C440E4B1B683B
:103210005C60A54207D90F4B18680B4B1968043145
:10322000FFF784FE70BD0C4B1868074B196804311A
:10323000FFF77CFE094B1B689C4201D2074B1C60C8
:1032400070BD00BF482400205424002080240020AA
:1032500034250020982400204C24002074240020D1
:1032600070B586B00B9D0C9C7DB94FF0500686F36F
:103270001188BFF36F8FBFF34F8F35B9214B224AAF
:103280004FF414712148FEF78BFE7CB94FF05006C5
:1032900086F31188BFF36F8FBFF34F8F34B91C4B88
:1032A000194A40F251211948FEF77AFE5826049631
:1032B000049E582E11D04FF0500686F31188BFF3AC
:1032C0006F8FBFF34F8F049E582E06D0114B0E4ABE
:1032D00040F259210D48FEF763FE74B16DB12563CC
:1032E00000250395029405AD01950A9D0095FFF711
:1032F00065FE2046FFF7DEFE01E0002305930598FA
:1033000006B070BDA08B0008608B00088C8B000895
:10331000C08B0008DC8B000810B588B00024059431
:10332000069407AA06A905A8FFF7D8FD059B0293F6
:10333000069B019300942346079A0F490F48FFF715
:103340008FFF08B1012300E000239BB14FF0500331
:1033500083F31188BFF36F8FBFF34F8F4FF0FF32AE
:10336000074B1A600122074B1A600022064B1A60B5
:10337000FFF7FAFC08B010BD488C0008A131000826
:10338000742400207024002048240020024A13687E
:1033900001331360704700BF04250020F8B5424B8D
:1033A0001B68002B73D1414B1E6801361E6016BB93
:1033B0003F4B1B681B6893B14FF0500383F3118898
:1033C000BFF36F8FBFF34F8F394B1B681B6833B14F
:1033D000384B394A40F633213848FEF7E1FD344A8C
:1033E0001168374B186810601960364A136801334A
:1033F0001360FFF7C9FD344B1B689E4203D20027C0
:103400003AE0012700E00027294B1B681B680BB935
:10341000012300E0002323B14FF0FF322A4B1A6052
:103420002AE0234B1B68DB68DC6863689E4202D29B
:10343000254A136020E0251D2846FFF791FDA36A69
:103440001BB104F11800FFF78BFDE36A012202FAB9
:1034500003F11E4802680A43026003EB83039A00EB
:1034600029461B481044FFF755FDE26A194B1B68BB
:10347000DB6A9A42C5D2C7E7164B1B68DB6A03EBCF
:1034800083039A00124B9B58012B06D806E0124A80
:10349000136801331360002700E001270F4B1B68FE
:1034A00003B101273846F8BD042500204824002038
:1034B0004C240020648C0008388B00088C8B00089A
:1034C0009824002008250020742400208024002057
:1034D000A024002054240020782400209C240020D4
:1034E00038B5394B1B688BB94FF0500383F3118803
:1034F000BFF36F8FBFF34F8F334B1B6833B9334B21
:10350000334A4FF404613348FEF74AFDFFF76AFB84
:103510002D4B1A68013A1A601B68002B4CD12E4BB8
:103520001B6833BB00244AE02C4BDB68DC6804F1E9
:103530001800FFF715FD251D2846FFF711FDE36A6A
:10354000012202FA03F1264802680A43026003EBF3
:1035500083039A00294623481044FFF7DBFCE26A04
:10356000214B1B68DB6A9A4204D301221F4B1A606D
:1035700000E00024194B1B68002BD5D10CB1FFF7DC
:1035800003FD1B4B1C6854B1FFF708FF10B101226B
:10359000164B1A60013CF7D10022154B1A60134BF1
:1035A0001B685BB14FF08052124B1A60BFF34F8F14
:1035B000BFF36F8F012402E0002400E00024FFF736
:1035C00045FB204638BD00BF04250020BC8C000808
:1035D000748B00088C8B0008502400208424002069
:1035E00080240020A0240020542400209C240020BB
:1035F0007824002004ED00E010B5F0B10446144B2F
:103600001B688BB14FF0500383F31188BFF36F8FAA
:10361000BFF34F8F0E4B1B6833B10E4B0E4A40F277
:103620000F510E48FEF7BCFCFFF7B0FE002120460C
:10363000FFF7CAFDFFF754FF00E0002038B94FF054
:103640008052074B1A60BFF34F8FBFF36F8F10BDCF
:1036500004250020F88B00082C8B00088C8B0008B8
:1036600004ED00E038B5314B1B681BB10122304B33
:103670001A6038BD00222E4B1A602E4B1B681B6B44
:103680001A68B2F1A53F0BD15A68B2F1A53F07D134
:103690009A68B2F1A53F03D1DB68B3F1A53F05D02D
:1036A000244B186819683431FFF710FC224B1B6853
:1036B000B3FA83F3DBB2C3F11F0303EB83018A0088
:1036C0001E498A58A2B94FF0500282F31188BFF305
:1036D0006F8FBFF34F8F03EB83018A0017498A581E
:1036E00032B9174B174A4FF435611748FEF758FCAB
:1036F000124D9900CA1890002844426854684460EA
:1037000019448A0008322A44944205D1606803EBC8
:1037100083018A002A44506003EB83039A00074B1D
:103720001A445368DA68034B1A6038BD0425002038
:103730009C2400205424002080240020A024002069
:10374000008D00084C8B00088C8B000853EC102B6C
:1037500023F0004343EC102B704700BF0000000033
:103760002DE9F04F2DED028BDFF824A38BB057EC41
:10377000106B55EC114B00F08FF99AF90080B0EE08
:10378000408AF0EE608AB8F1FF3F48D022462B46CF
:103790002046294601F066FD834600283FD1324687
:1037A0003B463046394601F05DFD8146002840F039
:1037B0009080304639460022002301F021FD002888
:1037C00036D0002200232046294601F019FD834609
:1037D000B8B19FEDA57B0122A94BCDF820900092B6
:1037E000CDE90267CDE904458DED067B0193B8F183
:1037F000000F5BD09FED9E0B0BB0BDEC028BBDE8C4
:10380000F08F45EC104B00F09FFF40B100220023E9
:103810002046294601F0FEFC002840F0C580B0EEAD
:10382000480AF0EE680A0BB0BDEC028BBDE8F08FE1
:10383000B0EE480AF0EE680A00F086FF80460028E5
:1038400061D04FF000084FF0000951EC180B4246D0
:103850004B4601F0D5FC0028E1D047EC106B00F09E
:1038600073FF0028DBD045EC104B00F06DFF002803
:10387000D5D09AF90030824A019204210022022B0D
:10388000CDE90267CDE90445CDE9068900910892AA
:1038900003D0684600F060FF70B901F049FD2223B3
:1038A000036009E09FED707B8DED067B684600F0BC
:1038B00053FF002800F08E80089B1BB101F038FDFB
:1038C000089B03609DED060B0BB0BDEC028BBDE8C1
:1038D000F08F002200232046294601F091FC0028A9
:1038E0009DD09FED630B664BCDF820B00122B8F15F
:1038F000020FCDE90267CDE904458DED060B8DE899
:103900000C00D3D18FE747EC106B00F01DFF0028AF
:1039100097D045EC104B00F017FF002891D053ECE6
:10392000182B18EE100A194601F09CFC00287CD1D7
:1039300003239AF900800093514B0890CDE9026768
:10394000CDE904450193B8F1000F48D1DFF8449167
:103950004FF060480022002330463946CDE9068901
:1039600001F058FC002894D00022464B20462946FE
:1039700001F0DEF904460D4645EC104B00F0F8FE70
:10398000204653EC102B294601F03AFC002849D17F
:103990003D4B9AF900804FF06042CDE90623B8F123
:1039A000020F7FF476AF78E7354A9AF90030CDF808
:1039B00020B00121CDE90267CDE904458DE806007C
:1039C000002B3FF46FAF31490020022BCDE90601F7
:1039D0007FF46CAF01F0ACFC212303606CE79FED3A
:1039E000267B00220023304639468DED067B01F010
:1039F00011FC0028D3D00022224B2046294601F09A
:103A000097F904460D4645EC104B00F0B1FE2046F8
:103A100053EC102B294601F0F3FB18B91B4B002285
:103A2000CDE906239AF90080B9E7154B9AF9009081
:103A3000CDF820800122CDE90267CDE904458DE86B
:103A40000C00B9F1000F3FF42DAF00220023104607
:103A5000194601F097FAB9F1020FCDE90601B9D084
:103A600024E700BFAFF3008000000000000000006A
:103A7000000000000000F03F000000000000F07FA8
:103A8000648E00080000E03FFFFFEFC70000F0FF7A
:103A900014000020FFFFEF472DE9F04F51EC110B10
:103AA00021F0004858EA000493B03CD053EC102BAE
:103AB0006D4E23F00044B44210EE10AA1D462BDCDC
:103AC000894611EE10EA26D0B04525DC664EB04599
:103AD00077D0002D16461F46CDE9000175DB4FF06B
:103AE000000BBEF1000F2DD15F4B984500F089808F
:103AF0005E4B98455ED0B9F1804F00F0DE835C4BA1
:103B000099451FD1002D1DDB47EC106B13B0BDE8AC
:103B1000F04F00F049BD5AB104F1404404F580145F
:103B200054EA0A0306D19FED4A0B13B0BDE8F08FAB
:103B3000A045CBDD4F4813B0BDE8F04F00F010BEFC
:103B40004FF0000B47EC106BFFF700FE51EC100B31
:103B5000BAF1000F1ED0ED0F05F1FF3A5BEA0A0340
:103B600063D0454B984540F38D8003F1047398452D
:103B700040F33884414B9C4262DDB9F1000F62DDB5
:103B800035A3D3E900231046194601F0D1F841ECE2
:103B9000100BCAE724B1354B25F040429A42DAD1E6
:103BA000B9F1000FC0F2CB83002DC0F2748341EC59
:103BB000100BBAE7B9F1000FC0F27A8447EC106B32
:103BC000B3E7BEF1000F84D0A6E72D4B984529DC62
:103BD000A3F15473984582DD4FEA2853A3F2FF33D3
:103BE000142B40F37F84C3F134032EFA03F202FA5C
:103BF00003F39E457FF473AF02F00102C2F1020BA2
:103C00006FE704F1404303F5801353EA0A038AD0B7
:103C10001A4B9C4240F38583B9F1000F13DB9DEDF5
:103C2000000B82E74FF0020B5BE732463B46104643
:103C3000194600F0C9FE02460B4601F0A3F9B6E7AB
:103C4000B9F1000F9CDB9FED060B6EE7AFF3008030
:103C5000000000000000F03F9C7500883CE4377EC7
:103C600000000000000000000000F07F0000F03FB6
:103C70000000E03F5C8700080000E041FFFFEF3FED
:103C8000FFFF3F43B4F5801F4FF0000205DAD64B2B
:103C900001F04EF86FF034020C462315D34EC4F3F6
:103CA0001304A3F2FF33134444F07F55B4421A4681
:103CB0000D9345F4401540F34983CD4B9C4240F3AE
:103CC0002D849FEDB37B8DED087B8DED0E7B9FEDFD
:103CD000B27B13468DED067B01330D93A5F5801560
:103CE0004FF00008DDE906232946CDE90A0100F07E
:103CF0006BFEDDE9062306460F46DDE90A0100F00A
:103D000065FE02460B460020BA4901F03BF9034626
:103D10000C46CDE9103402460B463046394601F0D8
:103D200007F86B1043F0005303F5002303EB08057D
:103D30000A4600230146CDE902120293DDE9028919
:103D40000024CDE904122B4622464046494600F0A5
:103D5000EFFF02460B463046394600F035FEDDE9FE
:103D6000062306460F462046294600F02DFE024651
:103D70000B46DDE90A0100F027FE42464B4600F003
:103D8000D7FF02460B463046394600F01DFEDDE9FE
:103D9000102300F0CDFFDDE90445CDE90601224600
:103DA0002B462046294600F0C3FF7DA3D3E900231C
:103DB00004460D4600F0BCFF7BA3D3E9002300F0CE
:103DC00005FE22462B4600F0B3FF79A3D3E900237A
:103DD00000F0FCFD22462B4600F0AAFF76A3D3E9B3
:103DE000002300F0F3FD22462B4600F0A1FF74A350
:103DF000D3E9002300F0EAFD22462B4600F098FFAD
:103E000071A3D3E9002300F0E1FD224606460F46E8
:103E10002B462046294600F08BFF02460B463046D3
:103E2000394600F085FF424604460D464B46DDE923
:103E3000040100F0CBFDDDE9062300F079FF224606
:103E40002B4600F0C3FD424606460F464B46404611
:103E5000494600F06DFF0022674BCDE90A0100F0F2
:103E6000B5FD32463B4600F0B1FD02980D460446D2
:103E700022462B464046494600F05AFF0022804623
:103E800089465D4B2046294600F09EFDDDE90A2368
:103E900000F09AFD02460B463046394600F094FD8C
:103EA000DDE9042300F044FF224606460F462B4678
:103EB000DDE9060100F03CFF02460B46304639467C
:103EC00000F084FD06460F4602460B464046494632
:103ED000CDE9048900F07AFD02983DA3D3E90023DF
:103EE00004460D4600F024FFDDE9042380468946A0
:103EF0002046294600F068FD02460B46304639460A
:103F000000F062FD34A3D3E9002300F011FF34A3D5
:103F1000D3E9002306460F462046294600F008FF55
:103F200002460B463046394600F050FDDDE90E23CF
:103F300000F04CFD06460D980F4600F093FE324609
:103F400004460D463B464046494600F03FFDDDE94C
:103F5000082300F03BFD22462B4600F037FD029877
:103F600022462B46CDE9020100F02EFDDDE90823B3
:103F700000F02AFD42464B4600F026FD02460B4665
:103F80003046394600F020FD8046894636E000BFC5
:103F90000000000000000000000000000000F03FF2
:103FA000EF4E454A287ECA3F65DBC9934A86CD3F1E
:103FB00001411DA96074D13F4D268F515555D53F04
:103FC000FFAB6FDBB66DDB3F033333333333E33F9C
:103FD000000000E009C7EE3FFD033ADC09C7EE3FF1
:103FE000F5015B14E02F3EBE000040438E980300B5
:103FF00079B60B000000F03F000008400BF1FF33E2
:1040000053EA0A0300F088819FEDD77B8DED067B94
:10401000DDE900AB53465C46CDE900340023009354
:10402000DDE90045504622462B46594600F0CCFCBF
:10403000DDE9022300F07CFE524606460F465B4651
:104040004046494600F074FE02460B46304639466B
:1040500000F0BCFC2246804689462B46DDE9020181
:10406000CDE9048900F064FE0B46024606460F4681
:104070004046494600F0AAFCD54B994204460D46FD
:104080008A4640F3238101F13F4303F5E0030343F4
:1040900040F01882B6A3D3E90023DDE9040100F063
:1040A00095FC3246804689463B462046294600F02C
:1040B0008BFC02460B464046494601F0C9F80028F1
:1040C00040F00082A8464FEA28534FF48012A3F232
:1040D000FE3342FA03F35344C3F30A52BD4DA2F236
:1040E000FF321541C3F3130B0020C2F1140423EA7D
:1040F00005014BF4801BBAF1000F02460B464BFA48
:1041000004FB30463946B8BFCBF1000B00F05CFC35
:1041100002460B4606460F46DDE9040100F056FC58
:104120004FEA0B5A002494A3D3E9002320460D46FE
:1041300000F0FEFD3246804689463B462046294631
:1041400000F042FC02460B46DDE9040100F03CFCB5
:104150008BA3D3E9002300F0EBFD8BA3D3E900236D
:1041600006460F462046294600F0E2FD02460B4671
:104170003046394600F02AFC06460F4602460B46FA
:104180004046494600F022FC42464B4604460D4656
:1041900000F01AFC02460B463046394600F014FC8B
:1041A0002246804689462B462046294600F0C0FD1F
:1041B00077A3D3E9002306460F4600F0B9FD76A3A6
:1041C000D3E9002300F000FC32463B4600F0B0FD8E
:1041D00073A3D3E9002300F0F9FB32463B4600F01D
:1041E000A7FD71A3D3E9002300F0EEFB32463B4666
:1041F00000F09EFD6EA3D3E9002300F0E7FB3246FA
:104200003B4600F095FD02460B462046294600F04D
:10421000DBFB06460F4602460B462046294600F0C9
:1042200087FD0022CDE900014FF08043304639463A
:1042300000F0CAFB02460B46DDE9000100F0A2FED9
:10424000424606460F464B462046294600F070FD82
:1042500042464B4600F0BAFB02460B463046394612
:1042600000F0B2FB22462B4600F0AEFB02460B46A6
:104270000020594900F0A8FB8A44BAF5801F024685
:104280000B46C0F25B815146DDE9062300F050FD8C
:1042900041EC100B49E404F1404404F5801454EA65
:1042A0000B0300F03781BBF1010F7FF480AC0246B5
:1042B00001F1004343EC102B37E432463B463046D5
:1042C000394600F035FD41EC100B2EE4434B21F054
:1042D0000048984540F31581414B0B4403430CD1F2
:1042E00032463B4600F070FB02460B46DDE9040116
:1042F00000F09AFF00283FF4E6AE2FA3D3E9002395
:10430000DDE9060100F014FD2BA3D3E9002300F042
:104310000FFD41EC100B08E49FED297B8DED067B32
:1043200076E6B9F1000FBFF68EACDDE9003400EEA1
:10433000103A04F1004300EE903AFFF7F6BB024654
:104340000B460020244900F01DFE2DE49FED1E7B4E
:104350008DED087B8DED0E7B9FED037B4FF000080C
:104360008DED067BBEE400BF000000000000F03FC2
:10437000FE822B654715973C00000000432EE63F68
:10438000EF39FAFE422EE63F396CA80C615C20BE84
:10439000D0A4BE726937663EF16BD2C541BDBB3E4B
:1043A0002CDE25AF6A56113F93BDBE166CC1663F29
:1043B0003E5555555555C53F59F3F8C21F6EA501D9
:1043C000000000000000F0BF00000000000000003E
:1043D000FFFF8F40FFFF0F000000F03FFFCB90403A
:1043E00000346F3F6C4B9C427FF72AAC6B4B9C4276
:1043F0003FF7C3AB0022694B00F0E6FA56A3D3E9BE
:10440000002304460D4600F093FC55A3D3E9002396
:10441000804689462046294600F08AFC0022CDE9E4
:1044200002015F4B2046294600F082FC02460B4603
:104430004DA1D1E9000100F0C7FA22462B4600F059
:1044400077FC02460B460020564900F0BDFA224692
:104450002B4606460F462046294600F069FC0246D8
:104460000B463046394600F063FC41A3D3E90023F4
:1044700000F05EFC02460B46DDE9020100F0A4FA02
:1044800002460B4604460D464046494600F09EFA59
:1044900042464B460020CDE9020100F095FA024663
:1044A0000B462046294600F08FFA80468946A5E54E
:1044B00032463B460020394900F064FD41EC100BC8
:1044C000FFF733BB2CA3D3E90023DDE9060100F09D
:1044D0002FFC29A3D3E9002300F02AFC41EC100BA8
:1044E000FFF723BBBEF1000F7FF42AABC3F1140327
:1044F00048FA03F202FA03F3984527D0F346FFF790
:10450000F7BA284B98453FF7DEADDDE900349A460F
:104510009B4607E602460B46FFF789BB9FED187BDB
:104520008DED087B9FED187B8DED0E7B9FED187B4D
:104530004FF480288DED067BFFF7D4BB584643EC43
:10454000102B00F0A9F951EC100B9DE602F00102CE
:10455000C2F1020BFFF7CCBA000000604715F73F2D
:1045600044DF5DF80BAE543E555555555555D53F76
:10457000FE822B654715F73F9C7500883CE4377E2B
:104580000000004003B8E23F06D0CF43EBFD4C3EB5
:10459000000000000000F83FFEFFEF3F0000F03F8A
:1045A0000000D03F0000E03F2DE9F041654955ECA7
:1045B000104B0E462940B14200F09780002D2B464B
:1045C00010EE102A74DD2F157FD0A7F2FF37C3F34A
:1045D0001303F90743F4801365D403EBD27100266B
:1045E0000B447F105200B64616204FF400110EEB1C
:1045F00001049C424FEAD2754FEA420203DC1B1BC6
:1046000004EB010E0E44013805EB43034FEA510160
:10461000EDD1844620244FF0004109E020D003EB87
:10462000D275013C4FEA51012B444FEA420220D09F
:104630009E4501EB0C05F1DA002D05EB010C09DBC1
:10464000F0469542CEEB030300D9013B521B0844D0
:10465000C646E4E7BCF1000FF2DB0EF10108F0E71B
:1046600095421ED8002D05EB010C50DB9846002327
:10467000ECE7134304D0421C4DD000F00103184472
:1046800040087110F30701F17F5101F5001148BF97
:1046900040F0004001EB0753024643EC102BBDE80D
:1046A000F0817346BBE75B0003EBD273520094E7E3
:1046B00025F00041214328D0ADBB2F46D30A153F3A
:1046C0005205002BFAD0DD0228D4002100E001467B
:1046D0005B00DC0201F10100F9D5C0F1200422FAEF
:1046E00004F423437F1A82406FE710EE102A2B4612
:1046F00010EE100A294600F01BFB22462B4600F064
:1047000065F941EC100BBDE8F081BDE8F081BCF12A
:10471000000FA2DAAAE701362046B2E720244FF0C4
:10472000FF310020DBE710EE102A2B4620462946F9
:1047300000F04AF902460B4600F024FC41EC100B55
:10474000BDE8F0810000F07F10EE903A43F00040A9
:1047500000F58010C00F7047002070470000000077
:104760009FED010B704700BF000000000000F87FC4
:10477000F0B553EC102BC3F30A56A6F2FF30132802
:1047800083B019464FEAD37410EE105A2FDC00287C
:1047900049DB3F4E064103EA060717432CD0760853
:1047A00033401D430CD04FF48023132821EA060622
:1047B00043FA00F141EA06010CBF4FF00045002525
:1047C000344800EBC4042A46D4E9004510462B4681
:1047D000224600F0FBF8CDE9000122462B46DDE938
:1047E000000100F0F1F841EC100B03B0F0BD3328EC
:1047F00006DDB0F5806F42D043EC102B03B0F0BD66
:10480000A6F213464FF0FF30F0400242F4D04008C9
:104810000242D5D04FF0804325EA000043FA06F665
:1048200046EA0005CCE723F00040104310EE107A72
:10483000E2D0C3F313000743784207431548590CED
:104840003F0B490407F4002700EBC40047EA0103CB
:10485000D0E90067194610463B46324600F0B6F8EC
:10486000CDE900013B463246DDE9000100F0ACF83D
:1048700021F0004343EAC47141EC100BBEE710EE97
:10488000100A194600F0A2F841EC100BB6E700BF81
:10489000FFFF0F00688E000853EC102B70B5C3F3B8
:1048A0000A541946054614BB23F0004111432AD08F
:1048B00019460022384B394E10EE100A00F038FA33
:1048C000B54202460B461FDBC1F30A54363C2C446A
:1048D00040F2FE7084421FDC002C2DDD21F0FF41F0
:1048E00021F4E00141EA045343EC102B70BD40F287
:1048F000FF708442EBD110EE100A194600F066F802
:1049000041EC100B70BD70BD1FA3D3E9002300F074
:104910000FFA41EC100B70BD43EC112B9FED1C0BFB
:1049200000F040F81AA3D3E9002351EC100B00F07B
:10493000FFF941EC100B70BD14F1350F13DA4CF296
:1049400050318D4243EC112BE8DC9FED0F0B00F052
:1049500029F80DA3D3E9002351EC100B00F0E8F97E
:1049600041EC100B70BD21F0FF4121F4E001363421
:1049700041EA0453104619460022094B00F0D8F9C9
:1049800041EC100B70BD00BF59F3F8C21F6EA501BA
:104990009C7500883CE4377E00005043B03CFFFF2C
:1049A0000000903C53EC102B11EE900A23F00041D4
:1049B00000F0004041EA000343EC102B704700BFB9
:1049C00081F0004102E000BF83F0004330B54FEAC0
:1049D00041044FEA430594EA050F08BF90EA020F2D
:1049E0001FBF54EA000C55EA020C7FEA645C7FEAC0
:1049F000655C00F0E2804FEA5454D4EB5555B8BFE3
:104A00006D420CDD2C4480EA020281EA030382EA53
:104A1000000083EA010180EA020281EA0303362DE5
:104A200088BF30BD11F0004F4FEA01314FF4801CB8
:104A30004CEA113102D0404261EB410113F0004FCA
:104A40004FEA03334CEA133302D0524263EB430381
:104A500094EA050F00F0A780A4F10104D5F1200E1F
:104A60000DDB02FA0EFC22FA05F2801841F100017A
:104A700003FA0EF2801843FA05F359410EE0A5F14E
:104A800020050EF1200E012A03FA0EFC28BF4CF07F
:104A9000020C43FA05F3C01851EBE37101F0004535
:104AA00007D54FF0000EDCF1000C7EEB00006EEB42
:104AB0000101B1F5801F1BD3B1F5001F0CD34908CC
:104AC0005FEA30004FEA3C0C04F101044FEA445223
:104AD00012F5800F80F09A80BCF1004F08BF5FEAAA
:104AE000500C50F1000041EB045141EA050130BD8A
:104AF0005FEA4C0C404141EB010111F4801FA4F12D
:104B00000104E9D191F0000F04BF01460020B1FA81
:104B100081F308BF2033A3F10B03B3F120020CDAB9
:104B20000C3208DD02F1140CC2F10C0201FA0CF097
:104B300021FA02F10CE002F11402D8BFC2F1200CFC
:104B400001FA02F120FA0CFCDCBF41EA0C019040B2
:104B5000E41AA2BF01EB0451294330BD6FEA0404FB
:104B60001F3C1CDA0C340EDC04F11404C4F12002E6
:104B700020FA04F001FA02F340EA030021FA04F3F8
:104B800045EA030130BDC4F10C04C4F1200220FA4F
:104B900002F001FA04F340EA0300294630BD21FA8D
:104BA00004F0294630BD94F0000F83F4801306BF53
:104BB00081F480110134013D4EE77FEA645C18BF47
:104BC0007FEA655C29D094EA050F08BF90EA020FDE
:104BD00005D054EA000C04BF1946104630BD91EAD6
:104BE000030F1EBF0021002030BD5FEA545C05D1D9
:104BF0004000494128BF41F0004130BD14F5800418
:104C00003CBF01F5801130BD01F0004545F0FE418B
:104C100041F470014FF0000030BD7FEA645C1ABFC0
:104C2000194610467FEA655C1CBF0B46024650EAF7
:104C3000013406BF52EA033591EA030F41F4002123
:104C400030BD00BF90F0000F04BF0021704730B5A9
:104C50004FF4806404F132044FF000054FF000017E
:104C600050E700BF90F0000F04BF0021704730B53F
:104C70004FF4806404F1320410F0004548BF404214
:104C80004FF000013EE700BF42004FEAE2014FEA69
:104C900031014FEA02701FBF12F07F4393F07F4F44
:104CA00081F06051704792F0000F14BF93F07F4F76
:104CB000704730B54FF4607401F0004521F00041B9
:104CC00020E700BF50EA010208BF704730B54FF03F
:104CD00000050AE050EA010208BF704730B511F044
:104CE000004502D5404261EB41014FF4806404F17C
:104CF00032045FEA915C3FF4DCAE4FF003025FEAFE
:104D0000DC0C18BF03325FEADC0C18BF033202EB85
:104D1000DC02C2F1200300FA03FC20FA02F001FADF
:104D200003FE40EA0E0021FA02F11444C1E600BF7E
:104D300070B54FF0FF0C4CF4E06C1CEA11541DBF31
:104D40001CEA135594EA0C0F95EA0C0F00F0DEF8FC
:104D50002C4481EA030621EA4C5123EA4C5350EAE1
:104D6000013518BF52EA033541F4801143F4801332
:104D700038D0A0FB02CE4FF00005E1FB02E506F0C3
:104D80000042E0FB03E54FF00006E1FB03569CF018
:104D9000000F18BF4EF0010EA4F1FF04B6F5007F1E
:104DA00064F5407404D25FEA4E0E6D4146EB060690
:104DB00042EAC62141EA55514FEAC52040EA5E5019
:104DC0004FEACE2EB4F1FD0C88BFBCF5E06F1ED8C3
:104DD000BEF1004F08BF5FEA500E50F1000041EBFA
:104DE000045170BD06F0004646EA010140EA0200A7
:104DF00081EA0301B4EB5C04C2BFD4EB0C0541EAC9
:104E0000045170BD41F480114FF0000E013C00F3DD
:104E1000AB8014F1360FDEBF002001F0004170BD01
:104E2000C4F10004203C35DA0C341BDC04F114041A
:104E3000C4F1200500FA05F320FA04F001FA05F2A6
:104E400040EA020001F0004221F0004110EBD37073
:104E500021FA04F642EB06015EEA430E08BF20EA9F
:104E6000D37070BDC4F10C04C4F1200500FA04F342
:104E700020FA05F001FA04F240EA020001F00041D4
:104E800010EBD37041F100015EEA430E08BF20EA47
:104E9000D37070BDC4F1200500FA05F24EEA020E8F
:104EA00020FA04F301FA05F243EA020321FA04F0BE
:104EB00001F0004121FA04F220EA020000EBD37075
:104EC0005EEA430E08BF20EAD37070BD94F0000F75
:104ED0000FD101F00046400041EB010111F4801FA9
:104EE00008BF013CF7D041EA060195F0000F18BF5A
:104EF000704703F00046520043EB030313F4801F96
:104F000008BF013DF7D043EA0603704794EA0C0F4F
:104F10000CEA135518BF95EA0C0F0CD050EA410665
:104F200018BF52EA4306D1D181EA030101F00041E2
:104F30004FF0000070BD50EA410606BF104619460A
:104F400052EA430619D094EA0C0F02D150EA013616
:104F500013D195EA0C0F05D152EA03361CBF104657
:104F600019460AD181EA030101F0004141F0FE41F6
:104F700041F470014FF0000070BD41F0FE4141F47A
:104F8000780170BD70B54FF0FF0C4CF4E06C1CEA7A
:104F900011541DBF1CEA135594EA0C0F95EA0C0F2F
:104FA00000F0A7F8A4EB050481EA030E52EA0335EA
:104FB0004FEA013100F088804FEA03334FF080550B
:104FC00045EA131343EA12634FEA022245EA111538
:104FD00045EA10654FEA00260EF000419D4208BFE9
:104FE000964244F1FD0404F5407402D25B084FEA96
:104FF0003202B61A65EB03055B084FEA32024FF442
:1050000080104FF4002CB6EB020E75EB030E22BF9E
:10501000B61A754640EA0C005B084FEA3202B6EB5E
:10502000020E75EB030E22BFB61A754640EA5C000D
:105030005B084FEA3202B6EB020E75EB030E22BF9D
:10504000B61A754640EA9C005B084FEA3202B6EB9E
:10505000020E75EB030E22BFB61A754640EADC005D
:1050600055EA060E18D04FEA051545EA16754FEABF
:1050700006164FEAC30343EA52734FEAC2025FEADD
:105080001C1CC0D111F4801F0BD141EA00014FF06C
:1050900000004FF0004CB6E711F4801F04BF01433D
:1050A0000020B4F1FD0C88BFBCF5E06F3FF6AFAE59
:1050B000B5EB030C04BFB6EB020C5FEA500C50F1E9
:1050C000000041EB045170BD0EF0004E4EEA11316C
:1050D00014EB5C04C2BFD4EB0C0541EA045170BD73
:1050E00041F480114FF0000E013C90E645EA060EB7
:1050F0008DE60CEA135594EA0C0F08BF95EA0C0FE5
:105100003FF43BAF94EA0C0F0AD150EA01347FF42C
:1051100034AF95EA0C0F7FF425AF104619462CE703
:1051200095EA0C0F06D152EA03353FF4FDAE104666
:10513000194622E750EA410618BF52EA43067FF4B7
:10514000C5AE50EA41047FF40DAF52EA43057FF447
:10515000EBAE12E74FF0FF3C06E000BF4FF0010C52
:1051600002E000BF4FF0010C4DF804CD4FEA410CB6
:105170007FEA6C5C4FEA430C18BF7FEA6C5C1BD083
:1051800001B050EA410C0CBF52EA430C91EA030F04
:1051900002BF90EA020F0020704710F1000F91EA61
:1051A000030F58BF994208BF90422CBFD8176FEA2F
:1051B000E37040F0010070474FEA410C7FEA6C5CFD
:1051C00002D150EA013C07D14FEA430C7FEA6C5C04
:1051D000D6D152EA033CD3D05DF8040B704700BF30
:1051E0008446104662468C461946634600E000BF7E
:1051F00001B5FFF7B7FF002848BF10F1000F01BD50
:105200004DF808EDFFF7F4FF0CBF012000205DF81A
:1052100008FB00BF4DF808EDFFF7EAFF34BF01209F
:1052200000205DF808FB00BF4DF808EDFFF7E0FF38
:1052300094BF012000205DF808FB00BF4DF808ED89
:10524000FFF7CEFF94BF012000205DF808FB00BFF0
:105250004DF808EDFFF7C4FF34BF012000205DF8D2
:1052600008FB00BF4FEA410C7FEA6C5C02D150EAB8
:10527000013C0AD14FEA430C7FEA6C5C02D152EA4E
:10528000033C02D14FF0000070474FF0010070471F
:105290004FEA4102B2F1E04324BFB3F5001CDCF158
:1052A000FE5C0DD901F0004C4FEAC0024CEA507090
:1052B000B2F1004F40EB830008BF20F001007047BF
:1052C00011F0804F21D113F13872BCBF01F00040C2
:1052D000704741F480114FEA5252C2F11802C2F1F4
:1052E000200C10FA0CF320FA02F018BF40F0010075
:1052F0004FEAC1234FEAD32303FA0CFC40EA0C0027
:1053000023FA02F34FEA4303CCE77FEA625307D163
:1053100050EA01331EBF4FF0FE4040F4400070479A
:1053200001F0004040F0FE4040F40000704700BF34
:10533000014B1868704700BF18000020844641EAFE
:10534000000313F003036DD1403A41D351F8043BFD
:1053500040F8043B51F8043B40F8043B51F8043B4F
:1053600040F8043B51F8043B40F8043B51F8043B3F
:1053700040F8043B51F8043B40F8043B51F8043B2F
:1053800040F8043B51F8043B40F8043B51F8043B1F
:1053900040F8043B51F8043B40F8043B51F8043B0F
:1053A00040F8043B51F8043B40F8043B51F8043BFF
:1053B00040F8043B51F8043B40F8043B51F8043BEF
:1053C00040F8043B51F8043B40F8043B403ABDD25E
:1053D000303211D351F8043B40F8043B51F8043B00
:1053E00040F8043B51F8043B40F8043B51F8043BBF
:1053F00040F8043B103AEDD20C3205D351F8043B8F
:1054000040F8043B043AF9D2043208D0D2071CBF5A
:1054100011F8013B00F8013B01D30B880380604683
:10542000704700BF082A13D38B078DD010F00303F9
:105430008AD0C3F10403D21ADB071CBF11F8013B69
:1054400000F8013B80D331F8023B20F8023B7BE7B8
:10545000043AD9D3013A11F8013B00F8013BF9D2E3
:105460000B7803704B7843708B788370604670477D
:1054700070B4840746D0541E002A41D0CDB20346F2
:1054800002E0621EE4B3144603F8015B9A07F8D108
:10549000032C2ED9CDB245EA05250F2C45EA05454A
:1054A00019D903F110022646103E0F2E42F8105C67
:1054B00042F80C5C42F8085C42F8045C02F110020D
:1054C000F2D8A4F1100222F00F0204F00F041032FF
:1054D000032C13440DD91E462246043A032A46F8EB
:1054E000045BFAD8221F22F003020432134404F0B2
:1054F00003042CB1C9B21C4403F8011BA342FBD125
:1055000070BC704714460346C2E700BF2DE9F04B5C
:1055100059EC108B84B04D46002D0F46934619462A
:105520000D9C5DDB00230B70662C45D0462C5FD0B4
:1055300024F02003452B29D003AA02AB019200934B
:105540003A460C9B022149EC108B01F025F8672CA0
:10555000064628D11BF0010F2AD0F51940464946CE
:1055600000220023FFF74CFE20BB039B9D4206D97F
:1055700030215A1C03921970039B9D42F9D80E9A50
:105580009B1B3046136004B0BDE8F08B03A902AB4F
:105590000137019100933A460C9B022149EC108B94
:1055A00000F0FAFF0646472CD7D11BF0010F2BD194
:1055B000039BE4E72B46E2E703AA02AB01920093C8
:1055C0003A460C9B032149EC108B00F0E5FF0646A0
:1055D000C5193378302B1ED00C9B1F683D44BDE7A6
:1055E00009F100432D2510EE108A99460D709BE7B6
:1055F00003AA02AB019200933A460C9B032149ECAB
:10560000108B00F0C9FF0646462C06EB0705A5D116
:105610003378302BE0D10022002340464946FFF783
:10562000EFFD0028D8D10C9BC7F101071F603D4456
:1056300094E700BFF0B40029BABF49422D232B23C1
:10564000092982B00270437000F102042BDD0DF1D4
:1056500007061B4F324687FB0135CB17C3EBA5036B
:1056600003EB8305A1EB450101F13005092B194638
:1056700002F8015DEFDC3031531EC9B2B34202F8CB
:10568000011C1AD20DF10606254601E013F8011F90
:1056900005F8011B9E42F9D102AB9A1A2244101A56
:1056A00002B0F0BC704722463031302302F8023B92
:1056B0006170101A02B0F0BC70472246F9E700BFD3
:1056C000676666662DE9F04F8DB00C4616461F469C
:1056D0000546DDF8588001F0CBFE036806931846B6
:1056E00000F00EFED4F800A0079000231AF4807F8B
:1056F00094F818B00A9300F0D180D8F80010073160
:1057000021F00701D1E900230831C8F80010CDE9E4
:105710000423C4E91223DDE9042323F00049904661
:10572000104649464FF0FF32B24BFFF79BFD002871
:105730006DD1404649464FF0FF32AE4BFFF774FD46
:10574000002864D1DDE9040100220023FFF762FD97
:10575000002840F01D81A848A8492AF0040203232C
:105760002260BBF1470F8CBF8146894623614FF011
:105770000008009733460BAA2146284600F050FA4D
:1057800001303FD02368580540F1FA80BBF1650F26
:1057900040F2938000220023D4E91201FFF730FD8C
:1057A000002840F0B781099B002B40F3FC810A9A46
:1057B000A36D9A42A8BF1A46002A924607DD1346F7
:1057C00031464A462846B84701301BD0A36D2AEA25
:1057D000EA7ACAEB0302002A40F3558104F11A0B5E
:1057E0004FF0000805E0A36DCAEB0302424540F309
:1057F0004A8101235A4631462846B847013008F10C
:105800000108F0D14FF0FF300DB0BDE8F08FDDE9B9
:10581000040102460B46FFF725FD002840F0DB801F
:105820006168481C00F00A81BBF1670F00F0A2819B
:10583000BBF1470F00F0B0804AF480620023226081
:105840000AA8039309AB02900093CDF804B00DF1C0
:1058500023039DED040B2846FFF758FE8146BBF15C
:10586000650F099B40F2D880BBF1660F00F088817C
:105870000A9A9A4200F3FF8022682361D20701D579
:105880005A1C2261A3654FF000089DF82330002BBD
:105890003FF46FAF2D2384F843306AE7D8F8003027
:1058A000073323F0070393ED007B0833C8F800307B
:1058B0008DED047B84ED127B2DE70A9A012A62DDCF
:1058C00001234A4631462846B84701309AD0079B03
:1058D000069A31462846B847013093D0002300226B
:1058E000D4E91201FFF78CFC0A9BA0B1012B1BDD50
:1058F00004F11A0A4FF0000903E00A9B013B4B45F3
:1059000012DD0123524631462846B847013009F1DD
:105910000109F2D176E709F10102013B314628463F
:10592000B84701303FF46EAF434604F150023146B0
:105930002846B84701303FF465AF2368E06813F0AC
:10594000020F0B9B16D0C21A002A13DD04F11909AD
:105950004FF0000804E0E0680B9BC21A424509DDE5
:1059600001234A4631462846B847013008F101086C
:10597000F1D147E79842B8BF18460DB0BDE8F08FA7
:105980004A462369D3E7DB079AD44A460123C5E791
:105990002D2384F84330DEE6002900F0EE804AF43F
:1059A0008062002322600AA8039309AB029000934F
:1059B000CDF804B00DF123039DED040B2846FFF74D
:1059C000A5FD8146099BD91C1EDB626893421BDC46
:1059D0004FF0670B4CE72AF004030949094A23609A
:1059E0000323BBF1470F8CBF8946914623614FF0DB
:1059F0000008BEE6FFFFEF7F808E00087C8E000867
:105A0000888E0008848E0008ABF1020B5FFA8BFBD6
:105A1000BBF1650F3FF628AF013B19465A4604F12A
:105A200050000993FFF706FE0A9A8318012A804660
:105A3000236140F3B3800133236126E706216160CF
:105A40004AF48062002322600AA8039309AB029003
:105A50000093CDF804B00DF123039DED040B28460F
:105A6000FFF754FDBBF1670F8146ABD0BBF1470F89
:105A70007FF4F5AEA6E7002BD4BFC3F102010121EC
:105A80000A442261FEE609990A9A914209EB030849
:105A900035DB2368D80732D49144C8EB0909521A80
:105AA0009145A8BF9146B9F1000F0ADD42464B4629
:105AB00031462846B84701303FF4A4AE0A9B099A04
:105AC0009A1A29EAE979C9EB0202002A7FF735AF71
:105AD00004F11A0A4FF0000807E00A9B099A9B1A82
:105AE000C9EB030343457FF728AF012352463146F4
:105AF0002846B847013008F10108EED182E6079B3D
