:020000040800F2
:1000000000000220B9020008C1020008C502000871
:10001000390300083D0300088503000800000000C4
:10002000000000000000000000000000112D00088A
:10003000D103000800000000F12D0008552E000833
:10004000E9030008E9030008E9030008E9030008E0
:10005000E9030008E9030008E9030008E9030008D0
:10006000E9030008E9030008E9030008E9030008C0
:10007000E9030008E9030008E9030008E9030008B0
:10008000E9030008E9030008E9030008E9030008A0
:10009000E9030008E9030008E9030008E903000890
:1000A000E9030008E9030008E9030008E903000880
:1000B000E9030008E9030008E9030008E903000870
:1000C000E9030008E9030008E9030008E903000860
:1000D000E9030008E9030008E9030008E903000850
:1000E000E9030008E9030008E9030008E903000840
:1000F000E9030008E9030008E9030008E903000830
:10010000E9030008E9030008E9030008E90300081F
:10011000E9030008E9030008DD260008E9030008F8
:10012000E9030008E9030008E9030008E9030008FF
:10013000E90300080000000000000000E9030008D7
:10014000E9030008E9030008E9030008E9030008DF
:10015000E9030008E9030008E9030008E9030008CF
:10016000E9030008E9030008E9030008E9030008BF
:10017000E9030008E9030008000000000000000097
:10018000E9030008E903000800B583B002F094F821
:10019000384B394A1360394A136039490CE00A6810
:1001A0004B6801F10C04886803E01168196004339E
:1001B00004329842F9D82146324B9942EFD32E4B64
:1001C0001A68314B9A4204D12C4B1A682F4B9A4231
:1001D00000D0FEE7274B2E4A13602E4A13602E4BA9
:1001E0000AE0194651F8082B5B6802E00020106015
:1001F00004329A42FAD30B46284A9342F1D3244B55
:100200001B6813B9234B1B6803B1FEE702F074FCB3
:10021000694601A801F09EFF214C224B1C1BA41033
:10022000002504E01E4B53F8253098470135AC42B9
:10023000F8DC1D4C1D4B1C1BA410002504E01A4BC0
:1002400053F8253098470135AC42F8DC0099019805
:1002500002F06EFC0546164C164B1C1BA41004E065
:10026000013C134B53F824309847002CF8DC284607
:1002700001F042FFBABADECA00000020F4000020FC
:10028000EC030008040400087856341232547698BF
:10029000F8000020CC3800200404000814040008F2
:1002A00014040008140400081404000814040008CE
:1002B000140400081404000808B5FFF765FF00BF28
:1002C00000BEFEE71EF0040F0CBFEFF30880EFF353
:1002D00009807146414A10472DE9F04182B0044639
:1002E0008846134B5E6B9F6B9D6A1B6B13F0020F6E
:1002F0000DD00F4BDB6A002B09DA4BF6AB6102F035
:1003000065F820B14FF00042094BDA620CE0094871
:1003100001F074FFCDF800803B4632462946204666
:1003200001F0DCFF00BEFEE702B0BDE8F08100BFD7
:1003300000ED00E0D085000800BEFEE71EF0040FCF
:100340000CBFEFF30880EFF309807146244A104791
:100350002DE9F04182B004468846084B5E6B9F6BE6
:100360009D6A074801F04AFFCDF800803B463246BF
:100370002946204601F0B2FF00BEFEE700ED00E096
:10038000E08500081EF0040F0CBFEFF30880EFF3C8
:1003900009807146134A10472DE9F04182B00446A6
:1003A0008846084B5E6B9F6B9D6A074801F026FFED
:1003B000CDF800803B4632462946204601F08EFFAC
:1003C00000BEFEE700ED00E0EC85000800BEFEE7A1
:1003D00000BEFEE700BEFEE770470000D90200083D
:0C03E000510300089903000800BEFEE76E
:1003EC000C8E000800000020F80000200C8E000885
:1003FC000000001000000010F8000020D038002091
:08040C000000001000000010C8
:1004400008B50B4B1A6842F400721A601A6842F43D
:1004500080621A601A6842F480721A60032000F009
:1004600017F80F2002F0F2F802F036F8002008BD6D
:10047000003C0240024A136801331360704700BF1A
:10048000A4350020014B1868704700BFA435002038
:1004900010B50446C31E042B03D9A421094801F05A
:1004A000A3FE094AD36823F4E0631B041B0C240257
:1004B00004F4E064234343F0BF6343F40033D360A8
:1004C00010BD00BFD482000800ED00E070B5044606
:1004D0000E4615460F2A03D9BC211A4801F084FEA6
:1004E0000F2E03D9BD21174801F07EFE164BDA68A6
:1004F000C2F30222C2F10701042928BF0421131DFF
:10050000062B01D9033A00E00022012303FA01F18E
:1005100001393140914003FA02F2013A2A400A437C
:10052000002C06DA04F00F041201D2B2074B1A5560
:1005300070BD1201D2B204F1604404F5614484F844
:10054000002370BDD482000800ED00E014ED00E04F
:1005500010B5041E03DAD021064801F045FE6209F9
:1005600004F01F04012303FA04F4034B43F8224070
:1005700010BD00BFD482000800E100E00138B0F1F6
:10058000807F0AD2064B5860F021064A82F8231079
:100590000020986007221A6070470120704700BF52
:1005A00010E000E000ED00E010B50446042805D09E
:1005B00020B140F2B311084801F016FE042C05D119
:1005C000064A136843F00403136010BD034A13681E
:1005D00023F00403136010BDD482000810E000E093
:1005E0002DE9F04782B080460F46A14B984223D0B8
:1005F00003F5806398421FD003F5806398421BD0B7
:1006000003F58063984217D003F58063984213D0B6
:1006100003F5806398420FD003F5806398420BD0B6
:1006200003F58063984207D003F58063984203D0B6
:10063000C521904801F0D8FD3B881BB9C6218D48E3
:1006400001F0D2FD7B68012B22D9112B20D0022B87
:100650001ED0122B1CD0884A934219D002F580126A
:10066000934215D002F58012934211D0A2F5F812F0
:1006700093420DD002F58012934209D002F5801208
:10068000934205D0032B03D0C7217A4801F0ACFD7B
:10069000BB68022B03D9C821764801F0A5FD0025CF
:1006A00026E10124AC403E682640B44240F01F8160
:1006B0007B68022B01D0122B45D13B699BB3092BE0
:1006C00031D083B37BB373B36BB3012B2BD02AD060
:1006D000022B28D027D026D0032B24D0042B22D0C5
:1006E00021D020D0052B1ED01DD0092B1BD0062BCE
:1006F00019D0092B17D0072B15D014D013D0082BE5
:1007000011D010D00FD0092B0DD00CD00A2B0AD04D
:1007100009D00C2B07D006D005D00F2B03D0D92140
:10072000544801F061FDEA08083258F8220005F04B
:10073000070399000F238B4020EA03003B698B409D
:10074000034348F82230D8F800304FEA450A4FF00A
:10075000030909FA0AF96FEA090903EA09027B6841
:1007600003F0030303FA0AF31343C8F800307B686D
:100770005A1E012A03D9112B01D0122B1BD1FB6861
:10078000032B03D9EC213B4801F02EFDD8F80830AB
:1007900009EA0302FB6803FA0AF31343C8F80830B6
:1007A000D8F8043023EA04047B68C3F30013AB4099
:1007B0001C43C8F80440D8F80C3009EA0309BB68A8
:1007C00003FA0AF349EA0303C8F80C307B6813F014
:1007D000805F00F08C8000230193284B5A6C42F418
:1007E00080425A645B6C03F480430193019BA90827
:1007F0008A1C234B53F8220005F003039B000F22B1
:100800009A4020EA02001A4A904521D002F58062FF
:1008100090451FD002F5806290451DD002F58062A0
:1008200090451BD002F58062904519D002F5806298
:10083000904517D002F58062904515D002F5806290
:10084000904513D002F5806290451BD108221AE032
:10085000002218E0012216E0022214E0032212E036
:10086000042210E005220EE006220CE007220AE036
:100870000000024008830008000011100038024008
:1008800000380140092202FA03F3034302311B4AF4
:1008900042F821301A4B1A68F34302EA03017868E0
:1008A00010F4803F01D046EA0201154A11605268F7
:1008B00003EA0201786810F4003F01D046EA020121
:1008C0000F4A5160926803EA0201786810F4801FB1
:1008D00001D046EA02010A4A9160D2681340796861
:1008E00011F4001F01D046EA0203054AD360013526
:1008F0000F2D7FF6D6AE02B0BDE8F087003801407C
:10090000003C014070B5064615460C4621B940F240
:10091000B111084801F068FC012D04D94FF4D971D8
:10092000044801F061FC0DB1B46170BD2404B461F0
:1009300070BD00BF0883000830B583B0044603686B
:100940000F2B03D9F5219C4801F04EFC236813F0CE
:10095000010F45D06368012B05D9052B03D0FA217F
:10096000954801F041FC954B9B6803F00C03042B68
:100970000AD0924B9B6803F00C03082B0CD18F4BD1
:100980005B6813F4800F07D08C4B1B6813F4003F97
:1009900026D0636823BBCCE12279894B1A70636847
:1009A0007BB1FFF76FFD054605E0FFF76BFD401BD0
:1009B000642800F2C081814B1B6813F4003FF4D01F
:1009C0000EE0FFF75FFD054605E0FFF75BFD401B0E
:1009D000642800F2B281794B1B6813F4003FF4D114
:1009E000236813F0020F6AD0E368012B04D94FF497
:1009F0009671714801F0F8FB23691F2B04D940F26E
:100A00002D116D4801F0F0FB6C4B9B6813F00C0F3F
:100A10000AD06A4B9B6803F00C03082B1BD1674B71
:100A20005B6813F4800F16D1644B1B6813F0020F40
:100A300003D0E368012B40F082816048036823F013
:100A4000F8012369F82292FAA2F2B2FA82F29340F4
:100A50000B43036033E0E368FBB10122594B1A609A
:100A6000FFF710FD054605E0FFF70CFD401B0228CF
:100A700000F26781514B1B6813F0020FF4D04F480E
:100A8000036823F0F8012369F82292FAA2F2B2FA7D
:100A900082F293400B43036011E00022494B1A603D
:100AA000FFF7F0FC054605E0FFF7ECFC401B0228D1
:100AB00000F24981414B1B6813F0020FF4D1236807
:100AC00013F0080F2ED06369012B04D940F26D1189
:100AD000394801F089FB636993B101223A4B1A60EE
:100AE000FFF7D0FC054605E0FFF7CCFC401B0228D1
:100AF00000F22B81314B5B6F13F0020FF4D011E049
:100B00000022314B1A60FFF7BDFC054605E0FFF7F8
:100B1000B9FC401B022800F21A81284B5B6F13F0CE
:100B2000020FF4D1236813F0040F60D0A368012BE7
:100B300006D9052B04D040F297111F4801F054FB51
:100B4000002301931D4B1A6C42F080521A641B6CF7
:100B500003F080530193019B1C4A136843F4807394
:100B60001360FFF78FFC054605E0FFF78BFC401B89
:100B7000022800F2EE80154B1B6813F4807FF4D03E
:100B8000227A134B1A70A3688BB1FFF77BFC0546E2
:100B900007E0FFF777FC401B41F28833984200F2F0
:100BA000DA80064B1B6F13F0020FF2D01FE0FFF745
:100BB00069FC054616E000BF488300080038024083
:100BC0000238024000004742800E47420070004059
:100BD00070380240FFF756FC401B41F288339842C0
:100BE00000F2BB80634B1B6F13F0020FF2D1A369BD
:100BF000022B04D94FF4E6715F4801F0F5FAA369BE
:100C0000002B00F0AC805B4A926802F00C02082ACC
:100C100000F0A780022B79D1E3693BB1B3F5800FD7
:100C200004D040F2D511544801F0DEFA236A3F2B7C
:100C300004D94FF4EB71504801F0D6FA636A323BA5
:100C4000B3F5BF7F04D940F2D7114B4801F0CCFA7D
:100C5000A36A022B0AD0042B08D0062B06D0082B3F
:100C600004D04FF4EC71444801F0BEFAE36A043B4F
:100C70000B2B04D940F2D9113F4801F0B5FA0022FC
:100C80003E4B1A60FFF7FEFB054604E0FFF7FAFB58
:100C9000401B022867D8374B1B6813F0007FF5D143
:100CA000E169236A1943636A47F6C07292FAA2F2B5
:100CB000B2FA82F293401943A36A5B085A1E4FF4BA
:100CC000403393FAA3F3B3FA83F302FA03F30B432B
:100CD000E26A4FF0706191FAA1F1B1FA81F18A40B4
:100CE0001343244A53600122244B1A60FFF7CAFBC6
:100CF000044604E0FFF7C6FB001B022835D81D4B55
:100D00001B6813F0007FF5D0002031E000221B4B60
:100D10001A60FFF7B7FB044604E0FFF7B3FB001BC4
:100D2000022824D8134B1B6813F0007FF5D1002054
:100D30001EE001201CE003201AE0032018E001203F
:100D400016E0032014E0032012E0032010E003204B
:100D50000EE003200CE003200AE0032008E000205E
:100D600006E0012004E0032002E0032000E003206D
:100D700003B030BD0038024048830008600047429D
:100D8000254B9B6803F00C03042B3FD0082B01D0AC
:100D90002248704710B4204B586800F03F005B6851
:100DA00013F4800F10D01E4BB3FBF0F01A4B5A68AF
:100DB00047F6C0710A4091FAA1F3B3FA83F322FA1D
:100DC00003F303FB00F310E0144BB3FBF0F0124B02
:100DD0005A6847F6C07402EA040194FAA4F2B2FA1F
:100DE00082F221FA02F202FB00F30B4A506800F48F
:100DF00040324FF4403090FAA0F0B0FA80F022FA7E
:100E000000F001304000B3FBF0F001E0044870470F
:100E10005DF8044B704700BF003802400024F40026
:100E200000127A0070B504460D460368013B0E2B94
:100E300004D940F237218F4801F0D6F9072D04D9A3
:100E40004FF40E718B4801F0CFF98B4B1B6803F008
:100E50000F039D4208D9EBB2874A1370136803F061
:100E60000F039D4240F0F480236813F0020F1DD061
:100E7000A368A3B1802B12D0902B10D0A02B0ED042
:100E8000B02B0CD0C02B0AD0D02B08D0E02B06D032
:100E9000F02B04D040F24F21764801F0A5F97749B4
:100EA0008B6823F0F002A36813438B60236813F070
:100EB000010F6BD06368032B04D940F256216D48B3
:100EC00001F092F96268012A05D16C4B1B6813F49A
:100ED000003F0FD1BEE0931E012B05D8674B1B6866
:100EE00013F0007F06D1B7E0644B1B6813F0020FCC
:100EF00000F0B48061498B6823F0030313438B60D7
:100F0000FFF7C0FA06466368012B0FD107E0FFF731
:100F1000B9FA801B41F28833984200F2A180574B06
:100F20009B6803F00C03042BF1D12FE0022B0FD1AF
:100F300007E0FFF7A7FA801B41F28833984200F2DE
:100F400091804E4B9B6803F00C03082BF1D11DE000
:100F5000032B16D107E0FFF795FA801B41F2883387
:100F6000984200F28180454B9B6803F00C030C2BE8
:100F7000F1D10BE0FFF786FA801B41F288339842EB
:100F800074D83E4B9B6813F00C0FF3D13A4B1B689F
:100F900003F00F039D4207D2EAB2374B1A701B6869
:100FA00003F00F039D4263D1236813F0040F19D09F
:100FB000E36883B1B3F5805F0DD0B3F5A05F0AD0CD
:100FC000B3F5C05F07D0B3F5E05F04D04FF42D71E7
:100FD000284801F009F929498B6823F4E052E368B5
:100FE00013438B60236813F0080F1AD0236983B171
:100FF000B3F5805F0DD0B3F5A05F0AD0B3F5C05F45
:1010000007D0B3F5E05F04D040F2BB21194801F0EE
:10101000EBF81A4A936823F46043216943EAC10359
:101020009360FFF7ADFE154B9B6803F0F002F023D1
:1010300093FAA3F3B3FA83F322FA03F3104AD35CCF
:10104000D840104B18600F2001F000FB002070BD4D
:10105000012070BD012070BD012070BD012070BD58
:10106000032070BD032070BD032070BD032070BD40
:10107000012070BD48830008003C02400038024057
:10108000388300080C000020014B1868704700BF2F
:101090000C00002008B5FFF7F7FF084B9B6803F42E
:1010A000E0524FF4E05393FAA3F3B3FA83F322FA36
:1010B00003F3034AD35CD84008BD00BF00380240A8
:1010C0003883000808B5FFF7DFFF084B9B6803F47F
:1010D00060424FF4604393FAA3F3B3FA83F322FA26
:1010E00003F3034AD35CD84008BD00BF0038024078
:1010F000388300080F2303600B4B9A6802F0030249
:1011000042609A6802F0F00282609A6802F4E0524B
:10111000C2609B68DB0803F4E0530361034B1B6868
:1011200003F00F030B60704700380240003C0240A0
:10113000F8B505460F4616461C4636E0B4F1FF3FAB
:1011400033D02CB1FFF79EF9069BC01A84422CD8ED
:101150002A68536823F0E00353606B68B3F5827F1D
:101160000BD1AB68B3F5004F02D0B3F5806F04D15B
:101170002A68136823F040031360AB6AB3F5005F7D
:101180000BD12A68136823F400531B041B0C136053
:101190002A68136843F400531360012385F8513023
:1011A000002385F850300320F8BD2B689B6837EA90
:1011B000030301D1012300E00023B342BED100208C
:1011C000F8BD00BF10B582B0044600920B46002265
:1011D0008021FFF7ADFF034620B1636D43F020038C
:1011E00063650323184602B010BD00BF002800F05D
:1011F000D58010B504460368694A93420CD0A2F525
:101200007842934208D002F58062934204D040F2C3
:101210000B11644800F0E8FF63683BB1B3F5827FCF
:1012200004D04FF486715F4800F0DEFFA36853B12D
:10123000B3F5806F07D0B3F5004F04D040F20D1125
:10124000584800F0D1FFE368B3F5006F05D023B133
:101250004FF48771534800F0C7FFA369B3F5007FCF
:1012600008D03BB1B3F5802F04D040F20F114D48A8
:1012700000F0BAFFE36993B1082B10D0102B0ED009
:10128000182B0CD0202B0AD0282B08D0302B06D0BE
:10129000382B04D04FF48871424800F0A5FF236A30
:1012A00033B1802B04D040F211113E4800F09CFF76
:1012B000636A33B1102B04D04FF48971394800F0C0
:1012C00093FF636A83B9236933B1022B04D040F2E0
:1012D0001511344800F088FF6369012B04D94FF4DD
:1012E0008B71304800F080FFA36A3BB1B3F5005F1B
:1012F00004D040F219112B4800F076FFA36AB3F531
:10130000005F0AD1E36A013B4FF6FE72934204D9B3
:101310004FF48E71234800F067FF94F8513013F0BA
:10132000FF0F05D1002384F85030204601F052F918
:10133000022384F851302268136823F040031360BD
:1013400021686268A3681A43E3681A4323691A4351
:1013500063691A43A36903F400731343E2691343F7
:10136000226A1343A26A1A430A602168638B03F05E
:101370000402636A13434B60A36AB3F5005F02D1B2
:101380002368E26A1A612268D36923F40063D36197
:1013900000206065012384F8513010BD01207047A2
:1013A00000300140788300082DE9F04184B0044604
:1013B0000E4690461D4683683BB1B3F5004F04D0FE
:1013C0004FF4E171764800F00FFF94F85030012B94
:1013D00000F0E180012384F85030FFF753F807460E
:1013E00094F85130DBB2012B40F0BD80002E00F0AC
:1013F000BC80B8F1000F00F0BA80032384F85130AC
:10140000002363652663A4F83480A4F83680A363C0
:10141000A387E38763642364A368B3F5004F04D113
:101420002268136843F480431360A36AB3F5005F36
:101430000BD12268136823F400531B041B0C1360A8
:101440002268136843F40053136023681A6812F08B
:10145000400F03D11A6842F040021A60E368B3F506
:10146000006F2CD163681BB1E38E9BB2012B21D19D
:10147000236836F8022BDA60E38E9BB2013B9BB205
:10148000E38617E023689A6812F0020F08D036F856
:10149000022BDA60E38E9BB2013B9BB2E38609E04C
:1014A000002D66D0B5F1FF3F04D0FEF7EBFFC01B67
:1014B000854260D9E38E9BB2002BE3D12BE06368B9
:1014C0001BB1E38E9BB2012B21D1236816F8012BAF
:1014D0001A73E38E9BB2013B9BB2E38617E023684D
:1014E0009A6812F0020F08D016F8012B1A73E38ED7
:1014F0009BB2013B9BB2E38609E0002D3DD0B5F1E4
:10150000FF3F04D0FEF7BEFFC01B854237D9E38EF4
:101510009BB2002BE3D100972B46012202212046EB
:10152000FFF706FE68BB3A4629462046FFF74AFE0B
:1015300018B120236365012026E0A36833B9039323
:101540002368DA6803929B680393039BA36AB3F54D
:10155000005F04D12268136843F480531360636D05
:101560008BB9002010E002200EE001200CE00120E9
:101570000AE0032008E0032006E0032004E0032043
:1015800002E0032000E00120012384F85130002311
:1015900084F8503000E0022004B0BDE8F08100BFC4
:1015A000788300082DE9F04385B004460F461546C0
:1015B00099460C9E0023ADF80E30836823B140F2AB
:1015C0003631A04800F010FE94F85030012B00F0A6
:1015D0007281012384F85030FEF754FF804694F85E
:1015E0005130DBB26268012B0AD0B2F5827F40F045
:1015F0004981A268002A40F04781042B40F04681CF
:10160000002F00F04581002D00F04481B9F1000F5A
:1016100000F0428194F85130DBB2012B02D1052356
:1016200084F8513000236365A563A4F83E90A4F8C4
:101630003C902763A4F83690A4F834902364636444
:10164000A36AB3F5005F0BD12268136823F400533B
:101650001B041B0C13602268136843F400531360CF
:1016600023681A6812F0400F03D11A6842F0400252
:101670001A60E368B3F5006F5DD163681BB1E38E58
:101680009BB2012B08D1236837F8022BDA60E38E76
:101690009BB2013B9BB2E3864FF0010942E0B9F1F6
:1016A000000F23D0E38E9BB203B323689A6812F035
:1016B000020F1BD037F8022BDA60E38E9BB2013B9E
:1016C0009BB2E386E38E9BB25BB9A36AB3F5005F7E
:1016D0000AD12268136843F4805313604FF0000965
:1016E00004E04FF0000901E04FF00009E38F9BB2E6
:1016F00073B123689A6812F0010F09D0DB6825F8EE
:10170000023BE38F9BB2013B9BB2E3874FF00109A1
:10171000B6F1FF3F06D0FEF7B5FEC8EB00008642EB
:1017200040F2BC80E38E9BB2002BB8D1E38F9BB21A
:10173000002BB4D15EE063681BB1E38E9BB2012B3A
:1017400008D1236817F8012B1A73E38E9BB2013B73
:101750009BB2E3864FF0010944E0B9F1000F26D0B7
:10176000E38E9BB21BB323689A6812F0020F1ED05F
:10177000791C3A781A73E38E9BB2013B9BB2E386E5
:10178000E38E9BB263B9A36AB3F5005F0CD1226804
:10179000136843F4805313600F464FF0000906E0CE
:1017A0000F464FF0000902E00F464FF00009E38FAB
:1017B0009BB273B123689A6812F0010F09D0DB68FD
:1017C0002B70E38F9BB2013B9BB2E38701354FF057
:1017D0000109B6F1FF3F05D0FEF754FEC8EB00004B
:1017E00086425DD9E38E9BB2002BB6D1E38F9BB2CC
:1017F000002BB2D1A36AB3F5005F15D1CDF80080FC
:101800003346012211462046FFF792FC28B1636D52
:1018100043F002036365032545E02368DB689BB260
:10182000ADF80E30BDF80E3023689A6812F0100F34
:101830000AD0626D42F0020262654FF6EF729A6062
:10184000012502E0788300080025CDF800803346AA
:10185000012202212046FFF76BFC18BB42463146AD
:101860002046FFF7AFFC18B12023636501251AE07D
:10187000A368C3B902932368DA6802929B68029353
:10188000029B10E002250EE002250CE002250AE092
:10189000012508E0012506E0012504E0032502E01A
:1018A000032500E00325012384F85130002384F848
:1018B0005030284600E0022005B0BDE8F08300BFAC
:1018C000704700BF10B504460368234A934237D0DF
:1018D000B3F1804F34D0A2F57C42934230D002F570
:1018E000806293422CD002F58062934228D002F5A8
:1018F0008062934224D002F58062934220D002F5A8
:10190000704293421CD002F57052934218D002F5F7
:101910008062934214D002F58062934210D0A2F507
:10192000983293420CD002F58062934208D002F5BF
:101930008062934204D04FF4B271084800F054FC26
:101940002268D36843F00103D3602268136843F030
:1019500001031360002010BD00000140A8830008AF
:10196000704700BF704700BF704700BF704700BF9F
:1019700010B5044603681A6912F0020F17D0DA682E
:1019800012F0020F13D06FF002021A6101230376E6
:1019900003689B6913F0030F02D0FFF7E3FF04E035
:1019A000FFF7DEFF2046FFF7DFFF002323762368E3
:1019B0001A6912F0040F19D0DA6812F0040F15D06A
:1019C0006FF004021A610223237623689B6913F4E3
:1019D000407F03D02046FFF7C5FF05E02046FFF714
:1019E000BFFF2046FFF7C0FF0023237623681A6954
:1019F00012F0080F19D0DA6812F0080F15D06FF046
:101A000008021A61042323762368DB6913F0030FAD
:101A100003D02046FFF7A6FF05E02046FFF7A0FF12
:101A20002046FFF7A1FF0023237623681A6912F0EE
:101A3000100F19D0DA6812F0100F15D06FF01002E5
:101A40001A61082323762368DB6913F4407F03D0EF
:101A50002046FFF787FF05E02046FFF781FF20467D
:101A6000FFF782FF0023237623681A6912F0010F23
:101A700009D0DA6812F0010F05D06FF001021A6187
:101A8000204600F027FE23681A6912F0800F09D063
:101A9000DA6812F0800F05D06FF080021A612046DC
:101AA00000F026F923681A6912F0400F09D0DA68AD
:101AB00012F0400F05D06FF040021A612046FFF788
:101AC00055FF23681A6912F0200F09D0DA6812F066
:101AD000200F05D06FF020021A61204600F006F9B1
:101AE00010BD00BF0368454A904214D0B0F1804F4A
:101AF00013D0A2F57C42904211D002F58062904250
:101B00000FD002F5806290420DD002F578429042EB
:101B10000BD101220AE0012208E0012206E00122A5
:101B200004E0012202E0012200E000221AB123F0C9
:101B300070034A681343314A90422CD0B0F1804F71
:101B40002BD0A2F57C42904229D002F580629042CF
:101B500027D002F58062904225D002F5784290426B
:101B600023D002F57052904221D002F5806290425B
:101B70001FD002F5806290421DD0A2F598329042AB
:101B80001BD002F58062904219D002F5806290422B
:101B900017D1012216E0012214E0012212E00122F5
:101BA00010E001220EE001220CE001220AE00122F5
:101BB00008E0012206E0012204E0012202E0012205
:101BC00000E000221AB123F44073CA681343036093
:101BD0008B68C3620B688362084B984205D003F59B
:101BE0008063984203D1012302E0012300E0002337
:101BF0000BB10B690363012343617047000001408F
:101C000000286DD010B504460368364A934236D09A
:101C1000B3F1804F33D0A2F57C4293422FD002F52E
:101C2000806293422BD002F58062934227D002F566
:101C30008062934223D002F5806293421FD002F566
:101C4000704293421BD002F57052934217D002F5B6
:101C50008062934213D002F5806293420FD0A2F5C6
:101C6000983293420BD002F58062934207D002F57E
:101C70008062934203D0D9211B4800F0B5FAA368D3
:101C80005BB1102B09D0202B07D0402B05D0602B47
:101C900003D0DA21144800F0A7FA23694BB1B3F559
:101CA000807F06D0B3F5007F03D0DB210E4800F023
:101CB0009BFA94F8393013F0FF0F05D1002384F814
:101CC00038302046FFF7FCFD022384F83930211D0F
:101CD0002068FFF707FF012384F83930002010BD8A
:101CE0000120704700000140A8830008704700BF32
:101CF000704700BF2DE9F04104460368814A9342D2
:101D000010D0A2F54C4293420CD002F5806293426F
:101D100008D002F54C42934204D04FF4F4617A4863
:101D200000F062FAA3693BB1B3F5806F04D040F2D2
:101D3000A171754800F058FAE3693BB1B3F5007F33
:101D400004D040F2A271704800F04EFA236A3BB111
:101D5000B3F5807F04D040F2A3716B4800F044FAE1
:101D600062686A4B9A4204D940F2A471664800F056
:101D70003BFAA3683BB1B3F5805F04D040F2A57194
:101D8000614800F031FAE3686BB1B3F5805F0AD0C7
:101D9000B3F5405F07D0B3F5005F04D040F2A67101
:101DA000594800F021FA236953B1B3F5806F07D089
:101DB000B3F5C06F04D040F2A771534800F014FA95
:101DC00063694FF6F372134200D123B94FF4F56102
:101DD0004D4800F009FA2268D36823F00C03D36061
:101DE0002068036923F47C52A169E3691943236ADB
:101DF0001943E3680B43134343F400630361206812
:101E0000C36823F4164222F00C02A1682369194327
:101E100063690B43134343F40043C360226853696F
:101E200023F4407353612568364B9D4203D003F57C
:101E300080639D4232D1FFF745F900EB800000EB53
:101E4000800063685B00B0FBF3F3314FA7FB032313
:101E50005B091E01FFF736F900EB800000EB800004
:101E600063685B00B0FBF3F8FFF72CF900EB800030
:101E700000EB800063685B00B0FBF3F3A7FB032378
:101E80005B09642202FB13831B013233A7FB03238C
:101E9000C3F343133343AB60BDE8F081FFF7FAF8B7
:101EA00000EB800000EB800063685B00B0FBF3F3A5
:101EB000174FA7FB03235B091E01FFF7EBF800EBAD
:101EC000800000EB800063685B00B0FBF3F8FFF775
:101ED000E1F800EB800000EB800063685B00B0FB82
:101EE000F3F3A7FB03235A09642303FB12831B01AB
:101EF0003233A7FB0323C3F343133343AB60BDE883
:101F0000F08100BF00100140D8830008A037A00076
:101F10001F85EB512DE9F04105460F4616469846C0
:101F2000069C26E0B4F1FF3F23D02CB1FEF7AAFABD
:101F3000C8EB000084421CD22A68D36823F08003D7
:101F4000D3602A68D36823F02003D3602A68D3685B
:101F500023F48073D3602A68536923F0010353612B
:101F6000012385F83D30002385F83C300320BDE88F
:101F7000F0812B681B6837EA03030CBF01230023A1
:101F8000B342CFD00020BDE8F08100BF00283BD095
:101F900010B5044603681D4A93420FD0A2F54C4287
:101FA00093420BD002F58062934207D002F54C4277
:101FB000934203D0EB21164800F016F994F83D3017
:101FC00013F0FF0F05D1002384F83C30204600F0C9
:101FD00085FA022384F83D302046FFF78BFE226805
:101FE000136923F4804313612268536923F02A03A1
:101FF00053612268D36843F40053D3600020206407
:10200000012384F83D3010BD0120704700100140CD
:10201000D88300082DE9F04182B01E4690F83D308B
:10202000DBB2012B56D104460D469046002953D011
:10203000002A53D090F83C30012B51D0012380F876
:102040003C3000230364122380F83D30FEF71AFA77
:102050000746A4F82880A4F82A8027E0638D9BB265
:10206000013B9BB26385A368B3F5805F12D10096F4
:102070003B46002280212046FFF74CFF90BB2268A0
:102080002B88C3F30803536023690BB902350DE0B5
:1020900001350BE000963B46002280212046FFF7E9
:1020A00039FF08BB23682A785A600135638D9BB2DB
:1020B000002BD3D100963B46002240212046FFF75B
:1020C00029FF034690B9012284F83D20002284F8BC
:1020D0003C200CE002230AE0012308E0012306E093
:1020E000022304E0032302E0032300E00323184655
:1020F00002B0BDE8F08100BFFEE700BF08B50348AD
:1021000000F094F80120FFF7F7FF00BF08840008F3
:1021100008B50D4B1B6813B90C4A0B4B1A600A4BE0
:102120001A68C31C23F00303134409498B4206D9E0
:1021300002F01CF80C2303604FF0FF3008BD024989
:102140000B60104608BD00BFFC000020D038002006
:1021500000FC012001230360014B0B60704700BFAE
:102160000400002008B502F001F8582303604FF086
:10217000FF3008BD08B501F0F9FF582303604FF0A8
:10218000FF3008BD08B501F0F1FF582303600020BF
:1021900008BD00BF08B501F0E9FF582303604FF008
:1021A000FF3008BD08B501F0E1FF582303604FF090
:1021B000FF3008BD00B583B00C46194613460AB17E
:1021C000064A00E0064A03B9054B019300922346F4
:1021D0000246044800F012F8FFF790FF1C84000844
:1021E000B08400082C84000808B50A46014602485D
:1021F00000F004F8FFF782FF5C8400080FB400B51C
:1022000083B004AB53F8042B01938021064803F0FC
:102210005FF8002803DD0146034800F049F803B0E9
:102220005DF804EB04B070470401002010B50446CB
:1022300002F0A6FF0146204600F03AF801210248CC
:1022400000F036F810BD00BF4C8500082DE9F043C2
:1022500085B004460F46435613BB04252846214645
:10226000ABBE04461FE03546102E28BF10250023C4
:1022700006E014F9011B04AA1A4402F8101C0133E9
:10228000AB42F6D304AA1344002203F8102CE9460B
:102290004FF0040840464946ABBE8046761B00E03E
:1022A0000E46002EDFD1384605B0BDE8F08300BFF2
:1022B00008B5FFF7CBFF08BD08B500F097F8054B50
:1022C000054A9A60D3F8882042F47002C3F8882047
:1022D00008BD00BF00ED00E000000008F8B50446AE
:1022E0000D4617461E462648FFF788FF21682548F9
:1022F000FFF784FF61682448FFF780FFA168234847
:10230000FFF77CFFE1682248FFF778FF2169214849
:10231000FFF774FF61692048FFF770FFA1691F484C
:10232000FFF76CFFE1691E48FFF768FF1D48FFF7E4
:1023300065FF29461C48FFF761FF1C4CE16A1C48F9
:10234000FFF75CFF216B1B48FFF758FFE16B1A4852
:10235000FFF754FF15F0800F03D039461748FFF7F9
:102360004DFF15F4004F03D031461548FFF746FFE7
:102370001448FFF743FF06991348FFF73FFFF8BDE6
:10238000B4840008C4840008D4840008E4840008ED
:10239000F4840008048500081485000824850008DA
:1023A00034850008448500085085000800ED00E0F1
:1023B0006085000870850008808500089085000809
:1023C000A0850008B0850008B885000883691A88D0
:1023D0008A4207D10268033A012A05D80233836191
:1023E0000120704700207047002070470F49D1F846
:1023F000883043F47003C1F888300D4B1A6842F0FE
:1024000001021A60002098601A6822F0847222F497
:1024100080321A60074A5A601A6822F480221A60D1
:10242000D8604FF000638B60704700BF00ED00E0A4
:102430000038024010300024224B9B6803F00C034C
:10244000042B07D0082B09D0002B2DD11E4A1F4B7F
:102450001A602CE01E4A1D4B1A6028E0194B5A687E
:102460005B6803F03F0312F4800F09D0184AB2FBF7
:10247000F3F2144B5B68C3F3881303FB02F208E02A
:10248000114AB2FBF3F30F4A5168C1F3881101FB03
:1024900003F20C4B5B68C3F3014301335B00B2FBF7
:1024A000F3F30A4A136002E0074A084B1A60054B2F
:1024B0009B68C3F30313074AD15C044A1368CB40FB
:1024C00013607047003802400024F4000C00002024
:1024D00000127A00FC850008704700BF2DE9F0412A
:1024E0008AB004460268374B9A4230D100250195E4
:1024F00003F5FA331A6C42F400321A641A6C02F4CF
:1025000000320192019A02951A6B42F001021A639D
:102510001B6B03F001030293029B4FF00708CDF8F9
:102520002480022606960423059307950896264FD5
:1025300005A93846FEF754F8CDF8248006950823FF
:1025400005930795089605A93846FEF749F82268CD
:102550001E4B9A4230D10024039403F5F8331A6CD1
:1025600042F480221A641A6C02F480220392039AC5
:1025700004941A6B42F004021A631B6B03F0040309
:102580000493049B07270997022506954FF480635F
:102590000593079408950E4E05A93046FEF720F8DE
:1025A000099706944FF4006305930794089505A9CD
:1025B0003046FEF715F801E0FFF7A0FD0AB0BDE8D0
:1025C000F08100BF0044004000000240004800408D
:1025D0000008024002681B4B9A4232D170B588B0A5
:1025E0000024019403F584335A6C42F480525A64F7
:1025F0005A6C02F480520192019A02941A6B42F0D2
:1026000001021A631B6B03F001030293029B052373
:10261000079302250495E0230393059406950A4E3B
:1026200003A93046FDF7DCFF012304934FF48873C0
:1026300003930594069503A93046FDF7D1FF08B032
:1026400070BD7047003001400000024000B589B005
:10265000002201463620FDF739FF3620FDF778FFCE
:1026600000230193174B1A6C42F010021A641B6C82
:1026700003F010030193019B02A903A8FEF73AFDA2
:10268000069B13B9FEF706FD02E0FEF703FD4000CE
:102690000D4BA3FB00239B0C013B0C480C4A026032
:1026A00040F2E732C2604360002303618360FFF7BA
:1026B000A7FA18B90548FFF705F900E0012009B0AD
:1026C0005DF804FB0038024083DE1B43AC3500207C
:1026D0000010004008B5FDF7CDFE08BD08B5024862
:1026E000FFF746F908BD00BFAC35002010B582B039
:1026F000164800F0EDF8154C204600F053F900F0B4
:1027000001030193C0F342030093C0F30013C0F32D
:102710004012C0F380110E4802F0A2FB204600F0E8
:1027200089F901231A461946204600F057F900F0AE
:1027300001FB002314220749204600F065F800F051
:102740002DFB4FF4FA7000F0FFFFD4E7E8370020CC
:102750000C8600084C86000810B586B00024009452
:10276000114B1A6B42F004021A631B6B03F0040353
:102770000093009B112302934FF480530193039421
:10278000049401A90948FDF72BFF09484FF47A3357
:1027900043608460C46004610C234361054B0360A3
:1027A000FFF7F4FBFEE700BF0038024000080240DC
:1027B000703600200048004008B501221021024870
:1027C000FEF7A0F808BD00BF0000024008B50122D6
:1027D0004FF480710148FEF795F808BD00000240F3
:1027E00008B5002210210248FEF78CF808BD00BF92
:1027F0000000024008B500224FF480710148FEF746
:1028000081F808BD00000240F0B583B004460D46D3
:1028100016461F46FFF7E4FF1FB1A0238DF80730CF
:1028200002E0B0238DF807304FF47A7301220DF1E6
:1028300007012046FEF7B8FD4FF47A73B2B229467D
:102840002046FEF7B1FDFFF7B7FF03B0F0BD00BFB4
:102850002DE9F04100AF0646884615461C46FFF7B5
:10286000BFFF621CD2B2D31D23F00703ADEB030DF3
:10287000694648F020088DF80080002303E0581CCA
:10288000EB5C0B540346A342F9DB4FF47A733046FA
:10289000FEF78AFDFFF790FFBD46BDE8F08100BF5F
:1028A00070B582B005460C461646FFF799FF44F016
:1028B00020048DF804408DF805604FF47A730222ED
:1028C00001A92846FEF770FDFFF776FF02B070BD44
:1028D00070B584B004464FF4827343600025856070
:1028E000C560056145614FF4007383611823C361BE
:1028F000056245628562294B0360FEF777FCFFF7AE
:102900005BFFFFF763FF0E2229462046FFF7C8FF53
:102910003F2201212046FFF7C3FF3F22022120462C
:10292000FFF7BEFF032211462046FFF7B9FF302212
:1029300004212046FFF7B4FF4C2205212046FFF773
:10294000AFFF072206212046FFF7AAFF3F221C21E6
:102950002046FFF7A5FF07221D212046FFF7A0FF15
:102960000F4E3068029035798DF80C50052302AA7D
:102970000A212046FFF76CFF306800908DF8045064
:1029800005236A4610212046FFF762FF202211210D
:102990002046FFF785FF04B070BD00BF0030014046
:1029A0006486000810B584B00446FFF719FF0023C1
:1029B0008DF80F30FF238DF80E304FF47A730093AB
:1029C00001230DF10F020DF10E012046FEF7EAFD85
:1029D000FFF7F2FE9DF80F0004B010BDF0B583B014
:1029E00004460F4616461D46FFF704FFFFF7F8FEA4
:1029F00002A9FF2301F8013D4FF47A73012220461A
:102A0000FEF7D2FCFFF7D8FEFFF7EAFE0FB900226F
:102A100000E040220EB142F020020DB142F010025F
:102A200007212046FFF73CFFFFF7C6FEFFF7CEFE6B
:102A300003B0F0BD10B582B00446FFF7D1FE02A985
:102A4000E12301F8013D4FF47A7301222046FEF79D
:102A5000ABFCFFF7B1FE02B010BD00BF30B595B0C2
:102A600000240194214B1A6C42F080521A641B6CB2
:102A700003F080530193019B02941D4B1A6842F4AA
:102A800080421A601B6803F480430293029B012377
:102A9000089309934FF480030F93082310934FF486
:102AA000A873119302251295072313930E9508A876
:102AB000FDF742FF0F230393049505944FF4A053B1
:102AC00006934FF480530793052103A8FEF7AAF954
:102AD000FEF7DAFA074BA3FB00308009FDF74EFD45
:102AE0000420FDF761FD15B030BD00BF0038024085
:102AF00000700040D34D621008B5FDF7A1FCFFF750
:102B0000ADFFFFF799FC08BD08B50138012805D8CD
:102B1000FF2392B20548FFF77DFA08BD01F026FBBE
:102B2000582303604FF0FF3008BD00BF703600200F
:102B300030B585B02B4B00241C605C609C60DC6071
:102B40001C82294B1C60294B1C605C609C60DC6013
:102B500024222146264801F0A9FB4C252A4621467D
:102B6000244801F0A3FB244B1C605C609C60234B59
:102B70001C605C60224B1C605C609C60DC602C22F2
:102B80002146204801F092FB2A4621461E4801F0CA
:102B90008DFB1E4B1C605C609C60DC601C4B1C60F1
:102BA0005C601C4B1C601C4B02931C4B0193012569
:102BB000009523464FF4806219491A4800F0F8FB4B
:102BC000194B0293194B0193009523464FF4006271
:102BD0001749184800F0ECFB00F046FC204605B011
:102BE00030BD00BFD4370020643800207837002083
:102BF0004038002088370020C4360020703700207D
:102C0000B4360020E8350020243700201436002098
:102C1000683600206838002084010020DC01002094
:102C20006C860008ED260008DC310020DC11002055
:102C3000748600085927000808480068006880F377
:102C400008884FF0000080F3148862B661B6BFF3C5
:102C50004F8FBFF36F8F00DF00BF000008ED00E073
:102C6000DFF80C00016841F470010160704700005A
:102C700088ED00E000B583B000230193124B1B6880
:102C8000B3F1FF3F12D04FF0500383F31188BFF32D
:102C90006F8FBFF34F8F0C4B1B68B3F1FF3F05D015
:102CA0000A4B0B4AE4210B48FFF784FA4FF050031C
:102CB00083F31188BFF36F8FBFF34F8F019B002BFE
:102CC000FCD003B05DF804FB10000020A0860008D3
:102CD00078860008BC8600084FF0807340F8043CFA
:102CE00021F0010140F8081C054B40F80C3C40F86D
:102CF000202C6FF0020340F8243C4438704700BF9A
:102D0000752C00080000000000000000000000001A
:102D1000074B19680868B0E8F04F80F30988BFF3E3
:102D20006F8F4FF0000080F311887047AFF3008081
:102D3000A834002008B54FF0500383F31188BFF387
:102D40006F8FBFF34F8F104A136801331360012B4D
:102D500018D10E4B1B6813F0FF0F13D04FF0500328
:102D600083F31188BFF36F8FBFF34F8F074B1B683F
:102D700013F0FF0F06D0064B064A4FF4D0710648F9
:102D8000FFF718FA08BD00BF1000002004ED00E0B6
:102D9000048700089C880008BC86000808B50E4B14
:102DA0001B688BB94FF0500383F31188BFF36F8F0B
:102DB000BFF34F8F084B1B6833B9084B084A40F2EA
:102DC000A7110848FFF7F6F9034A1368013B13609F
:102DD0000BB983F3118808BD100000204887000854
:102DE000B0880008BC860008000000000000000059
:102DF000EFF30980BFF36F8F154B1A681EF0100FA9
:102E000008BF20ED108A20E9F04F10602DE909007D
:102E10004FF0500080F31188BFF34F8FBFF36F8FD7
:102E200000F0C8FC4FF0000080F3118809BC19685D
:102E30000868B0E8F04F1EF0100F08BFB0EC108A21
:102E400080F30988BFF36F8F704700BFAFF3008036
:102E5000A834002008B54FF0500383F31188BFF366
:102E60006F8FBFF34F8F00F041FB18B14FF08052CE
:102E7000024B1A60002383F3118808BD04ED00E0C3
:102E8000084A0023136008490B60084B1B68084977
:102E9000A1FB03139B09013B06490B600723136049
:102EA000704700BF10E000E018E000E00C000020D8
:102EB000D34D621014E000E010B582B0494B1A689F
:102EC000494B9A4213D14FF0500383F31188BFF35B
:102ED0006F8FBFF34F8F434B1A68434B9A4206D113
:102EE000424B434A40F229114248FFF763F93D4BF8
:102EF0001A68414B9A4213D14FF0500383F3118863
:102F0000BFF36F8FBFF34F8F364B1A683A4B9A421D
:102F100006D13A4B364A4FF495713648FFF74AF9D5
:102F2000374B1A78D2B20192FF221A701B78DBB2AB
:102F30008DF803309DF8033003F05003314A1370CD
:102F40000722314B1A6009E02F4A1368013B1360D6
:102F50009DF803305B00DBB28DF803309DF8033041
:102F600013F0800FF0D1284B1B68032B12D04FF0C9
:102F7000500383F31188BFF36F8FBFF34F8F224B42
:102F80001B68032B06D0214B194A40F25B111948EC
:102F9000FFF710F91C4A13681B0203F4E063136087
:102FA000019BDBB2164A1370194B1A6842F4700287
:102FB0001A601A6842F070421A60FFF761FF00243D
:102FC000144B1C60FFF74CFE134A136843F0404358
:102FD0001360FFF731FE00F0EDFBFFF74BFE2046DC
:102FE00002B010BD00ED00E071C20F415C87000827
:102FF0008C860008BC86000870C20F41A0870008BC
:1030000000E400E03432002038320020E487000879
:1030100020ED00E01000002034EF00E008B5024889
:10302000FFF7ECF8FFF76AF8C4880008034B036069
:10303000034B0B6082231360704700BF44340020B1
:103040003C32002000F1080343604FF0FF32826001
:10305000C360036100230360704700BF0023036166
:10306000704700BF43684B609A688A609A685160F5
:1030700099600861036801330360704730B40D68DC
:10308000B5F1FF3F01D1026907E000F1080200E05D
:103090001A4653681C68A542FAD253684B6099607F
:1030A0008A605160086103680133036030BC704777
:1030B00003694268816891608268416851605A681A
:1030C000904201D182685A60002202611A68013A76
:1030D0001A601868704700BF0A4B1B681B680BB961
:1030E000012300E0002323B14FF0FF32064B1A60AA
:1030F0007047044B1B68DB68DB685A68024B1A6038
:10310000704700BFA0340020AC3400202DE9F04708
:1031100081460D4617469A46089EDDF824800A9C93
:103120009200A521206B01F0C1F8236B07F18042CA
:10313000013A03EB820727F00707002306E0E95670
:10314000E21882F83410EA5612B10133092BF6D98D
:10315000002384F83D30042E00D90426E662A664DC
:103160000025E564201DFFF779FF04F11800FFF743
:1031700075FF2461C6F10506A6616462256584F8C1
:103180005450524649463846FFF7A6FD2060B8F134
:10319000000F01D0C8F80040BDE8F08738B5002422
:1031A00007E004EB840293000E481844FFF74AFF3F
:1031B0000134042CF5D90C4D2846FFF743FF0B4C86
:1031C0002046FFF73FFF0A48FFF73CFF0948FFF79B
:1031D00039FF0948FFF736FF084B1D60084B1C609C
:1031E00038BD00BF0835002074350020B4340020FD
:1031F000EC340020C834002088350020A0340020A2
:103200000035002010B50446FFF794FD214A1368ED
:1032100001331360204B1B683BB91F4B1C601368C4
:10322000012B0DD1FFF7BAFF0AE01C4B1B683BB91D
:10323000194B1B68DA6AE36A9A4201D8164B1C6084
:10324000174A1368013313602364E36A012202FA08
:1032500003F1144802680A43026003EB83039A00F7
:10326000211D11481044FFF7FDFEFFF797FD0B4BA2
:103270001B686BB1084B1B68DA6AE36A9A4207D293
:103280004FF08052094B1A60BFF34F8FBFF36F8F1F
:1032900010BD00BFA4340020A8340020DC3400207E
:1032A000E4340020E83400200835002004ED00E07C
:1032B00008B511E0FFF73EFD0A4BDB68D868043023
:1032C000FFF7F6FE084A1368013B1360074A1368CC
:1032D000013B1360FFF762FD044B1B68002BE9D133
:1032E00008BD00BFC8340020A4340020B034002042
:1032F00008B5FFF7DDFF064B1B68012BF9D94FF02E
:103300008052044B1A60BFF34F8FBFF36F8FF0E70B
:103310000835002004ED00E070B504460E461D4B54
:103320001D681D4B18680430FFF7C2FE50B91A4BD8
:103330001B68DA6A012303FA02F218490B6823EAD0
:1033400002030B60B4F1FF3F07D136B1124B19688D
:1033500004311348FFF786FE70BD2C440E4B1B68EA
:103360005C60A54207D90F4B18680B4B19680431F4
:10337000FFF784FE70BD0C4B1868074B19680431C9
:10338000FFF77CFE094B1B689C4201D2074B1C6077
:1033900070BD00BF9C340020A8340020E834002019
:1033A0008835002000350020A0340020AC340020F7
:1033B00070B586B00B9D0C9C7DB94FF0500686F31E
:1033C0001188BFF36F8FBFF34F8F35B9214B224A5E
:1033D0004FF414712148FEF7EDFE7CB94FF0500612
:1033E00086F31188BFF36F8FBFF34F8F34B91C4B37
:1033F000194A40F251211948FEF7DCFE582604967E
:10340000049E582E11D04FF0500686F31188BFF35A
:103410006F8FBFF34F8F049E582E06D0114B0E4A6C
:1034200040F259210D48FEF7C5FE74B16DB1256318
:1034300000250395029405AD01950A9D0095FFF7BF
:1034400065FE2046FFF7DEFE01E0002305930598A8
:1034500006B070BD50890008DC8800083C8900086F
:10346000708900088C89000810B588B00024059484
:10347000069407AA06A905A8FFF7D8FD059B0293A5
:10348000069B019300942346079A0F490F48FFF7C4
:103490008FFF08B1012300E000239BB14FF05003E0
:1034A00083F31188BFF36F8FBFF34F8F4FF0FF325D
:1034B000074B1A600122074B1A600022064B1A6064
:1034C000FFF7FAFC08B010BDF8890008F1320008D7
:1034D000AC340020DC3400209C340020024A136805
:1034E00001331360704700BF6C350020F8B5424BC4
:1034F0001B68002B73D1414B1E6801361E6016BB42
:103500003F4B1B681B6893B14FF0500383F3118846
:10351000BFF36F8FBFF34F8F394B1B681B6833B1FD
:10352000384B394A40F633213848FEF743FE344AD7
:103530001168374B186810601960364A13680133F8
:103540001360FFF7C9FD344B1B689E4203D200276E
:103550003AE0012700E00027294B1B681B680BB9E4
:10356000012300E0002323B14FF0FF322A4B1A6001
:103570002AE0234B1B68DB68DC6863689E4202D24A
:10358000254A136020E0251D2846FFF791FDA36A18
:103590001BB104F11800FFF78BFDE36A012202FA68
:1035A00003F11E4802680A43026003EB83039A009A
:1035B00029461B481044FFF755FDE26A194B1B686A
:1035C000DB6A9A42C5D2C7E7164B1B68DB6A03EB7E
:1035D00083039A00124B9B58012B06D806E0124A2F
:1035E000136801331360002700E001270F4B1B68AD
:1035F00003B101273846F8BD6C3500209C3400200B
:10360000A0340020148A0008F08800083C890008D3
:103610000035002070350020AC340020E834002054
:1036200008350020A8340020E034002004350020B4
:1036300038B5394B1B688BB94FF0500383F31188B1
:10364000BFF36F8FBFF34F8F334B1B6833B9334BCF
:10365000334A4FF404613348FEF7ACFDFFF76AFBD1
:103660002D4B1A68013A1A601B68002B4CD12E4B67
:103670001B6833BB00244AE02C4BDB68DC6804F198
:103680001800FFF715FD251D2846FFF711FDE36A19
:10369000012202FA03F1264802680A43026003EBA2
:1036A00083039A00294623481044FFF7DBFCE26AB3
:1036B000214B1B68DB6A9A4204D301221F4B1A601C
:1036C00000E00024194B1B68002BD5D10CB1FFF78B
:1036D00003FD1B4B1C6854B1FFF708FF10B101221A
:1036E000164B1A60013CF7D10022154B1A60134BA0
:1036F0001B685BB14FF08052124B1A60BFF34F8FC3
:10370000BFF36F8F012402E0002400E00024FFF7E4
:1037100045FB204638BD00BF6C3500206C8A000890
:10372000188900083C890008A4340020EC340020EB
:10373000E834002008350020A8340020043500209B
:10374000E034002004ED00E010B5F0B10446144B65
:103750001B688BB14FF0500383F31188BFF36F8F59
:10376000BFF34F8F0E4B1B6833B10E4B0E4A40F226
:103770000F510E48FEF71EFDFFF7B0FE0021204658
:10378000FFF7CAFDFFF754FF00E0002038B94FF003
:103790008052074B1A60BFF34F8FBFF36F8F10BD7E
:1037A0006C350020A8890008288900083C89000899
:1037B00004ED00E038B5314B1B681BB10122304BE2
:1037C0001A6038BD00222E4B1A602E4B1B681B6BF3
:1037D0001A68B2F1A53F0BD15A68B2F1A53F07D1E3
:1037E0009A68B2F1A53F03D1DB68B3F1A53F05D0DC
:1037F000244B186819683431FFF710FC224B1B6802
:10380000B3FA83F3DBB2C3F11F0303EB83018A0036
:103810001E498A58A2B94FF0500282F31188BFF3B3
:103820006F8FBFF34F8F03EB83018A0017498A58CC
:1038300032B9174B174A4FF435611748FEF7BAFCF7
:10384000124D9900CA189000284442685468446098
:1038500019448A0008322A44944205D1606803EB77
:1038600083018A002A44506003EB83039A00074BCC
:103870001A445368DA68034B1A6038BD6C3500206F
:1038800004350020A8340020E8340020083500204A
:10389000B08A0008048900083C89000881F00041D2
:1038A00002E000BF83F0004330B54FEA41044FEA25
:1038B000430594EA050F08BF90EA020F1FBF54EAC0
:1038C000000C55EA020C7FEA645C7FEA655C00F05C
:1038D000E2804FEA5454D4EB5555B8BF6D420CDD2D
:1038E0002C4480EA020281EA030382EA000083EAB0
:1038F000010180EA020281EA0303362D88BF30BD50
:1039000011F0004F4FEA01314FF4801C4CEA1131A5
:1039100002D0404261EB410113F0004F4FEA033304
:103920004CEA133302D0524263EB430394EA050F8F
:1039300000F0A780A4F10104D5F1200E0DDB02FAFE
:103940000EFC22FA05F2801841F1000103FA0EF292
:10395000801843FA05F359410EE0A5F120050EF158
:10396000200E012A03FA0EFC28BF4CF0020C43FA89
:1039700005F3C01851EBE37101F0004507D54FF096
:10398000000EDCF1000C7EEB00006EEB0101B1F5E6
:10399000801F1BD3B1F5001F0CD349085FEA30002C
:1039A0004FEA3C0C04F101044FEA445212F5800F37
:1039B00080F09A80BCF1004F08BF5FEA500C50F1D4
:1039C000000041EB045141EA050130BD5FEA4C0CB7
:1039D000404141EB010111F4801FA4F10104E9D140
:1039E00091F0000F04BF01460020B1FA81F308BF37
:1039F0002033A3F10B03B3F120020CDA0C3208DD03
:103A000002F1140CC2F10C0201FA0CF021FA02F1DD
:103A10000CE002F11402D8BFC2F1200C01FA02F14D
:103A200020FA0CFCDCBF41EA0C019040E41AA2BF72
:103A300001EB0451294330BD6FEA04041F3C1CDA3A
:103A40000C340EDC04F11404C4F1200220FA04F05A
:103A500001FA02F340EA030021FA04F345EA030104
:103A600030BDC4F10C04C4F1200220FA02F001FAC6
:103A700004F340EA0300294630BD21FA04F0294648
:103A800030BD94F0000F83F4801306BF81F48011E1
:103A90000134013D4EE77FEA645C18BF7FEA655C54
:103AA00029D094EA050F08BF90EA020F05D054EA26
:103AB000000C04BF1946104630BD91EA030F1EBF2B
:103AC0000021002030BD5FEA545C05D1400049412F
:103AD00028BF41F0004130BD14F580043CBF01F522
:103AE000801130BD01F0004545F0FE4141F4700108
:103AF0004FF0000030BD7FEA645C1ABF19461046E3
:103B00007FEA655C1CBF0B46024650EA013406BFE3
:103B100052EA033591EA030F41F4002130BD00BFA2
:103B200090F0000F04BF0021704730B54FF480645F
:103B300004F132044FF000054FF0000150E700BFE0
:103B400090F0000F04BF0021704730B54FF480643F
:103B500004F1320410F0004548BF40424FF000012C
:103B60003EE700BF42004FEAE2014FEA31014FEA6F
:103B700002701FBF12F07F4393F07F4F81F06051BE
:103B8000704792F0000F14BF93F07F4F704730B52D
:103B90004FF4607401F0004521F0004120E700BFC0
:103BA00050EA010208BF704730B54FF000050AE047
:103BB00050EA010208BF704730B511F0004502D548
:103BC000404261EB41014FF4806404F132045FEA4A
:103BD000915C3FF4DCAE4FF003025FEADC0C18BFEF
:103BE00003325FEADC0C18BF033202EBDC02C2F1E5
:103BF000200300FA03FC20FA02F001FA03FE40EA77
:103C00000E0021FA02F11444C1E600BF70B54FF076
:103C1000FF0C4CF4E06C1CEA11541DBF1CEA135558
:103C200094EA0C0F95EA0C0F00F0DEF82C4481EAC0
:103C3000030621EA4C5123EA4C5350EA013518BFE0
:103C400052EA033541F4801143F4801338D0A0FBCD
:103C500002CE4FF00005E1FB02E506F00042E0FB7A
:103C600003E54FF00006E1FB03569CF0000F18BF80
:103C70004EF0010EA4F1FF04B6F5007F64F5407428
:103C800004D25FEA4E0E6D4146EB060642EAC621BB
:103C900041EA55514FEAC52040EA5E504FEACE2E28
:103CA000B4F1FD0C88BFBCF5E06F1ED8BEF1004F2B
:103CB00008BF5FEA500E50F1000041EB045170BDA7
:103CC00006F0004646EA010140EA020081EA0301EB
:103CD000B4EB5C04C2BFD4EB0C0541EA045170BDE7
:103CE00041F480114FF0000E013C00F3AB8014F161
:103CF000360FDEBF002001F0004170BDC4F10004AA
:103D0000203C35DA0C341BDC04F11404C4F120052A
:103D100000FA05F320FA04F001FA05F240EA020085
:103D200001F0004221F0004110EBD37021FA04F6BB
:103D300042EB06015EEA430E08BF20EAD37070BD75
:103D4000C4F10C04C4F1200500FA04F320FA05F0D4
:103D500001FA04F240EA020001F0004110EBD370D6
:103D600041F100015EEA430E08BF20EAD37070BD46
:103D7000C4F1200500FA05F24EEA020E20FA04F31F
:103D800001FA05F243EA020321FA04F001F00041CE
:103D900021FA04F220EA020000EBD3705EEA430E3F
:103DA00008BF20EAD37070BD94F0000F0FD101F06E
:103DB0000046400041EB010111F4801F08BF013CA7
:103DC000F7D041EA060195F0000F18BF704703F0E5
:103DD0000046520043EB030313F4801F08BF013D6C
:103DE000F7D043EA0603704794EA0C0F0CEA135528
:103DF00018BF95EA0C0F0CD050EA410618BF52EAE2
:103E00004306D1D181EA030101F000414FF00000E7
:103E100070BD50EA410606BF1046194652EA4306F5
:103E200019D094EA0C0F02D150EA013613D195EA69
:103E30000C0F05D152EA03361CBF104619460AD1B1
:103E400081EA030101F0004141F0FE4141F47001BB
:103E50004FF0000070BD41F0FE4141F4780170BDAB
:103E600070B54FF0FF0C4CF4E06C1CEA11541DBF10
:103E70001CEA135594EA0C0F95EA0C0F00F0A7F812
:103E8000A4EB050481EA030E52EA03354FEA01313F
:103E900000F088804FEA03334FF0805545EA131352
:103EA00043EA12634FEA022245EA111545EA10651A
:103EB0004FEA00260EF000419D4208BF964244F1B1
:103EC000FD0404F5407402D25B084FEA3202B61AD0
:103ED00065EB03055B084FEA32024FF480104FF4A4
:103EE000002CB6EB020E75EB030E22BFB61A754618
:103EF00040EA0C005B084FEA3202B6EB020E75EBAB
:103F0000030E22BFB61A754640EA5C005B084FEA12
:103F10003202B6EB020E75EB030E22BFB61A7546DF
:103F200040EA9C005B084FEA3202B6EB020E75EBEA
:103F3000030E22BFB61A754640EADC0055EA060EAB
:103F400018D04FEA051545EA16754FEA06164FEAEE
:103F5000C30343EA52734FEAC2025FEA1C1CC0D19A
:103F600011F4801F0BD141EA00014FF000004FF027
:103F7000004CB6E711F4801F04BF01430020B4F1E8
:103F8000FD0C88BFBCF5E06F3FF6AFAEB5EB030CA0
:103F900004BFB6EB020C5FEA500C50F1000041EB9D
:103FA000045170BD0EF0004E4EEA113114EB5C046A
:103FB000C2BFD4EB0C0541EA045170BD41F480113D
:103FC0004FF0000E013C90E645EA060E8DE60CEA45
:103FD000135594EA0C0F08BF95EA0C0F3FF43BAF62
:103FE00094EA0C0F0AD150EA01347FF434AF95EA19
:103FF0000C0F7FF425AF104619462CE795EA0C0FFD
:1040000006D152EA03353FF4FDAE1046194622E7C9
:1040100050EA410618BF52EA43067FF4C5AE50EAA3
:1040200041047FF40DAF52EA43057FF4EBAE12E793
:104030004FF0FF3C06E000BF4FF0010C02E000BF74
:104040004FF0010C4DF804CD4FEA410C7FEA6C5C57
:104050004FEA430C18BF7FEA6C5C1BD001B050EAFA
:10406000410C0CBF52EA430C91EA030F02BF90EAE5
:10407000020F0020704710F1000F91EA030F58BFA4
:10408000994208BF90422CBFD8176FEAE37040F006
:10409000010070474FEA410C7FEA6C5C02D150EAA4
:1040A000013C07D14FEA430C7FEA6C5CD6D152EA5F
:1040B000033CD3D05DF8040B704700BF8446104624
:1040C00062468C461946634600E000BF01B5FFF723
:1040D000B7FF002848BF10F1000F01BD4DF808EDF3
:1040E000FFF7F4FF0CBF012000205DF808FB00BFC4
:1040F0004DF808EDFFF7EAFF34BF012000205DF81E
:1041000008FB00BF4DF808EDFFF7E0FF94BF01206A
:1041100000205DF808FB00BF4DF808EDFFF7CEFF6B
:1041200094BF012000205DF808FB00BF4DF808EDAA
:10413000FFF7C4FF34BF012000205DF808FB00BF7B
:104140004FEA410C7FEA6C5C02D150EA013C0AD193
:104150004FEA430C7FEA6C5C02D152EA033C02D185
:104160004FF0000070474FF001007047014B186896
:10417000704700BF14000020844641EA000313F09A
:1041800003036DD1403A41D351F8043B40F8043B5E
:1041900051F8043B40F8043B51F8043B40F8043B21
:1041A00051F8043B40F8043B51F8043B40F8043B11
:1041B00051F8043B40F8043B51F8043B40F8043B01
:1041C00051F8043B40F8043B51F8043B40F8043BF1
:1041D00051F8043B40F8043B51F8043B40F8043BE1
:1041E00051F8043B40F8043B51F8043B40F8043BD1
:1041F00051F8043B40F8043B51F8043B40F8043BC1
:1042000051F8043B40F8043B403ABDD2303211D360
:1042100051F8043B40F8043B51F8043B40F8043BA0
:1042200051F8043B40F8043B51F8043B40F8043B90
:10423000103AEDD20C3205D351F8043B40F8043B60
:10424000043AF9D2043208D0D2071CBF11F8013B5E
:1042500000F8013B01D30B8803806046704700BF24
:10426000082A13D38B078DD010F003038AD0C3F133
:104270000403D21ADB071CBF11F8013B00F8013B15
:1042800080D331F8023B20F8023B7BE7043AD9D3D4
:10429000013A11F8013B00F8013BF9D20B780370A9
:1042A0004B7843708B7883706046704770B4840796
:1042B00046D0541E002A41D0CDB2034602E0621E11
:1042C000E4B3144603F8015B9A07F8D1032C2ED906
:1042D000CDB245EA05250F2C45EA054519D903F16C
:1042E00010022646103E0F2E42F8105C42F80C5C7D
:1042F00042F8085C42F8045C02F11002F2D8A4F122
:10430000100222F00F0204F00F041032032C1344A9
:104310000DD91E462246043A032A46F8045BFAD811
:10432000221F22F003020432134404F003042CB1D0
:10433000C9B21C4403F8011BA342FBD170BC7047F7
:1043400014460346C2E700BF2DE9F04B59EC108B31
:1043500084B04D46002D0F46934619460D9C5DDBFB
:1043600000230B70662C45D0462C5FD024F0200330
:10437000452B29D003AA02AB019200933A460C9B2D
:10438000022149EC108B01F047F8672C064628D132
:104390001BF0010F2AD0F5194046494600220023A0
:1043A000FFF79CFE20BB039B9D4206D930215A1C7F
:1043B00003921970039B9D42F9D80E9A9B1B3046BD
:1043C000136004B0BDE8F08B03A902AB0137019183
:1043D00000933A460C9B022149EC108B01F01CF82B
:1043E0000646472CD7D11BF0010F2BD1039BE4E7E6
:1043F0002B46E2E703AA02AB019200933A460C9BDC
:10440000032149EC108B01F007F80646C5193378F3
:10441000302B1ED00C9B1F683D44BDE709F10043C3
:104420002D2510EE108A99460D709BE703AA02AB6A
:10443000019200933A460C9B032149EC108B00F04B
:10444000EBFF0646462C06EB0705A5D13378302B4B
:10445000E0D10022002340464946FFF73FFE0028F6
:10446000D8D10C9BC7F101071F603D4494E700BF02
:10447000F0B40029BABF49422D232B23092982B069
:104480000270437000F102042BDD0DF107061B4F93
:10449000324687FB0135CB17C3EBA50303EB83053E
:1044A000A1EB450101F13005092B194602F8015D28
:1044B000EFDC3031531EC9B2B34202F8011C1AD2EC
:1044C0000DF10606254601E013F8011F05F8011B52
:1044D0009E42F9D102AB9A1A2244101A02B0F0BCE3
:1044E000704722463031302302F8023B6170101AC7
:1044F00002B0F0BC70472246F9E700BF6766666607
:104500002DE9F04F8DB00C4616461F460546DDF8E6
:10451000588002F053F803680693184600F030FE06
:10452000D4F800A0079000231AF4807F94F818B004
:104530000A9300F0D180D8F80010073121F007016C
:10454000D1E900230831C8F80010CDE90423C4E9FB
:104550001223DDE9042323F0004990461046494622
:104560004FF0FF32B24BFFF7EBFD00286DD1404614
:1045700049464FF0FF32AE4BFFF7C4FD002864D12F
:10458000DDE9040100220023FFF7B2FD002840F01E
:104590001D81A848A8492AF0040203232260BBF128
:1045A000470F8CBF8146894623614FF00008009772
:1045B00033460BAA2146284600F050FA01303FD07E
:1045C0002368580540F1FA80BBF1650F40F29380F3
:1045D00000220023D4E91201FFF780FD002840F0FB
:1045E000B781099B002B40F3FC810A9AA36D9A4284
:1045F000A8BF1A46002A924607DD134631464A46AE
:104600002846B84701301BD0A36D2AEAEA7ACAEBE4
:104610000302002A40F3558104F11A0B4FF0000801
:1046200005E0A36DCAEB0302424540F34A81012332
:104630005A4631462846B847013008F10108F0D102
:104640004FF0FF300DB0BDE8F08FDDE90401024608
:104650000B46FFF775FD002840F0DB806168481CC1
:1046600000F00A81BBF1670F00F0A281BBF1470F98
:1046700000F0B0804AF48062002322600AA803930D
:1046800009AB02900093CDF804B00DF123039DED2A
:10469000040B2846FFF758FE8146BBF1650F099BC6
:1046A00040F2D880BBF1660F00F088810A9A9A42E6
:1046B00000F3FF8022682361D20701D55A1C2261D2
:1046C000A3654FF000089DF82330002B3FF46FAF37
:1046D0002D2384F843306AE7D8F80030073323F0FD
:1046E000070393ED007B0833C8F800308DED047BA1
:1046F00084ED127B2DE70A9A012A62DD01234A46E6
:1047000031462846B84701309AD0079B069A314671
:104710002846B847013093D000230022D4E9120183
:10472000FFF7DCFC0A9BA0B1012B1BDD04F11A0A88
:104730004FF0000903E00A9B013B4B4512DD0123CA
:10474000524631462846B847013009F10109F2D1F5
:1047500076E709F10102013B31462846B8470130AE
:104760003FF46EAF434604F1500231462846B84745
:1047700001303FF465AF2368E06813F0020F0B9B34
:1047800016D0C21A002A13DD04F119094FF00008EF
:1047900004E0E0680B9BC21A424509DD01234A464A
:1047A00031462846B847013008F10108F1D147E702
:1047B0009842B8BF18460DB0BDE8F08F4A4623694D
:1047C000D3E7DB079AD44A460123C5E72D2384F8B3
:1047D0004330DEE6002900F0EE804AF480620023D8
:1047E00022600AA8039309AB02900093CDF804B0AD
:1047F0000DF123039DED040B2846FFF7A5FD81462F
:10480000099BD91C1EDB626893421BDC4FF0670BCF
:104810004CE72AF004030949094A23600323BBF14A
:10482000470F8CBF8946914623614FF00008BEE6D2
:10483000FFFFEF7F208C00081C8C0008288C0008EC
:10484000248C0008ABF1020B5FFA8BFBBBF1650F08
:104850003FF628AF013B19465A4604F15000099330
:10486000FFF706FE0A9A8318012A8046236140F367
:10487000B3800133236126E7062161604AF4806238
:10488000002322600AA8039309AB02900093CDF89D
:1048900004B00DF123039DED040B2846FFF754FDF2
:1048A000BBF1670F8146ABD0BBF1470F7FF4F5AE8C
:1048B000A6E7002BD4BFC3F1020101210A44226103
:1048C000FEE609990A9A914209EB030835DB236851
:1048D000D80732D49144C8EB0909521A9145A8BFB0
:1048E0009146B9F1000F0ADD42464B463146284653
:1048F000B84701303FF4A4AE0A9B099A9A1A29EAF4
:10490000E979C9EB0202002A7FF735AF04F11A0AF0
:104910004FF0000807E00A9B099A9B1AC9EB0303B2
:1049200043457FF728AF0123524631462846B84712
:10493000013008F10108EED182E6079B069A314664
:104940002846B84701303FF47BAE0A9A0999C1E77F
:104950000123414A31462846B84701303FF470AE42
:10496000099A0A9B9A4203DB2368D9077FF504AFB3
:10497000079B069A31462846B84701303FF460AE9F
:104980000A9B012B7FF7F7AE04F11A094FF00008DC
:1049900004E00A9B013B43457FF7EDAE01234A4605
:1049A00031462846B847013008F10108F1D147E601
:1049B00000297FF412AF012161605FE7002B62687C
:1049C0003EDD23611AB101321A44226178E6216882
:1049D000C8077FF575AEF6E72268D2077FF573AE9C
:1049E00047E701231C4A31462846B84701303FF4C7
:1049F00027AE099B2BB90A9B1BB92368DA077FF501
:104A0000BBAE079B069A31462846B84701303FF4B3
:104A100017AE099B5B42002B1ADD04F11A0A4FF016
:104A2000000803E0099B5B42434511DD0123524628
:104A300031462846B847013008F10108F2D1FFE5B8
:104A400022B92168C90701D4012238E7023236E7CA
:104A50004A460A9B89E600BF1C8B00082DE9F047F7
:104A60000C4691460969A268DDF820808A42B8BFE9
:104A70000A46C9F8002094F8431006461F4611B1B3
:104A80000132C9F80020236899065DD5D9F80020C5
:104A90000232C9F80020236813F0060F19461DD111
:104AA000E1688A1A002AD8BF194617DD04F1190AED
:104AB000002505E0E368D9F800209B1AAB420CDD25
:104AC0000123524639463046C047013005F1010501
:104AD000F0D14FF0FF30BDE8F087216894F8433003
:104AE000003318BF01238A060AD5E1185A1C30206A
:104AF00081F84300224494F8451082F843100233B1
:104B000004F1430239463046C0470130E1D0236802
:104B100003F00603042B29D0A36822699342C8BF7F
:104B20004FF000092FDD9B1A99441A34002501E04B
:104B30004D4528D00123224639463046C047013032
:104B400005F10105F4D1C4E713F0060F08D1E168BF
:104B5000D9F800208A1A002AD8BF1946A6DCBDE77A
:104B600094F84330003318BF0123C9E7D9F8000097
:104B7000E168A3682269091A934221EAE179D2DC4B
:104B8000B9F1000FD1D10020BDE8F0872DE9F04345
:104B90000C46097E85B06E29064617460C98984645
:104BA00004F1430C5AD01AD8632900F0128100F2A4
:104BB000D68000295CD0582940F0F58084F8451053
:104BC00022680368DFF864E2150603F104011ED4CD
:104BD000550653BF1B6801601B88016019E07329EB
:104BE00000F0CF807ED86F2900F0E480702940F07B
:104BF000DA80226842F020022260782384F845306F
:104C00000368DFF82CE2150603F10401E0D51B6808
:104C10000160D00744BF42F020022260002B40F028
:104C20009080226822F0200222601021002284F865
:104C300043206068A0600028C0F28880226822F0CB
:104C400004022260002B62D1002840F0818065467A
:104C500008296AD0C5EB0C0323610CE023681A060F
:104C600040F1D58003686269191D01601B681A60F4
:104C7000002365462361CDF800803B4603AA214608
:104C80003046FFF7EBFE013021D02A462369394632
:104C90003046C04701301AD02368039813F0020F42
:104CA000E36819D01A1A002A16DD04F11909002543
:104CB00004E0E36803981A1AAA420DDD01234A466C
:104CC00039463046C047013005F10105F1D14FF0BA
:104CD000FF3005B0BDE8F0839842B8BF184605B074
:104CE000BDE8F083752965D078295CD1226884E716
:104CF0006168A1602D200029C3F1000384F84300FE
:104D000021DB22F00402DFF824E122600A2165465B
:104D1000B3FBF1F201FB123013461EF8002005F838
:104D2000012D002BF4D1082994D12368D90791D5FE
:104D3000626823699A428DDC302305F8013C013D0D
:104D400088E7102172E7DFF8E4E00A21002BDED1CA
:104D50009EF8003084F8423004F1420578E7642977
:104D600001D069291FD122680368150603F10401E7
:104D70003AD51B680160002BBADBDFF8B0E00A21EE
:104D800057E703686268191D01601D680021284605
:104D900001F036FC002846D0401B606020610023F3
:104DA00084F8433067E7012384F84210236104F15B
:104DB0004205F4E723681A061ED503681A1D1B680E
:104DC0000260227EDFF864E06F2A14BF0A21082106
:104DD0002CE703681A68191D0123016004F14205DC
:104DE00084F842202361DAE7550653BF1B6801604F
:104DF000B3F900300160BEE713F0400F036803F120
:104E0000040215BF02601B681B880260D9E713F01B
:104E1000400F0368626903F1040101601B6814BF5D
:104E20001A801A6024E76068B8E700BF2C8C00087D
:104E3000408C00080EB410B5044683B018B18369E5
:104E40000BB901F01BFB06A803460190059AA16867
:104E5000204602F0C7FB03B0BDE8104003B0704726
:104E60000FB410B50A4B1C6882B024B1A36913B902
:104E7000204601F003FB05A803460190049AA168AF
:104E8000204602F0AFFB02B0BDE8104004B070470E
:104E900014000020000000000000000000000000DE
:104EA000A2EB0300704700BF02780B78012A28BFED
:104EB0009A42F5D16DE9044540EA0104CDE9026763
:104EC0006FF0000C4FEA447212B380EA010414F050
:104ED000070F6AD100F0070420F0070004F0030573
:104EE00021F007014FEAC505F0E8042314F0040F90
:104EF000F1E804670CFA05F462EA040266EA0406C3
:104F00000AD063EA0403624667EA0407664603E0E0
:104F1000F0E80423F1E8046782FA4CF582EA06041B
:104F2000A4FA8CF46CBB83FA4CF583EA0705A5FA66
:104F30008CF595B950E9022351E9026782FA4CF5E4
:104F400082EA0604A4FA8CF483FA4CF583EA070596
:104F5000A5FA8CF52543DBD09CB92DBAB5FA85F4BA
:104F600024F0070427FA04F1DDE9026723FA04F3C9
:104F700003F0FF0001F0FF01FDE80445A0EB010094
:104F8000704724BAB4FA84F424F0070426FA04F132
:104F9000DDE9026722FA04F202F0FF0001F0FF01EE
:104FA000FDE80445A0EB0100704714F0030F3CD16D
:104FB00010F0030428D150F8082B51F8083B82FA6E
:104FC0004CF582EA0305A5FA8CF55DB950F8042C7E
:104FD00051F8043C82FA4CF582EA0305A5FA8CF5F7
:104FE000002DE8D02DBAB5FA85F424F0070423FA91
:104FF00004F122FA04F202F0FF0001F0FF01FDE8E3
:105000000445A0EB010070474FEAC40420F0030000
:1050100050F8082B21F0030151F8083B0CFA04F476
:1050200062EA040263EA0403C9E710F003041AD039
:10503000A1EB040120F00300E40750F8042B06D094
:105040000FD28B785FFAA2F4E41A06D12BB1CB7899
:105050005FFAB2F4E41A00D11BB920465DF8104B98
:10506000704701F1040150F8042BCC0721F0030133
:1050700051F8043B48D824D222F07F4482FA4CF500
:1050800094EA1325A5FA8CF50AD165B951F8043BC9
:1050900084EA0204B4EB036F0ED150F8042BEBE763
:1050A0004FEA132355E035F07F454DD10878FDE8F0
:1050B0000445C0F1000070474FEA126203F0FF039D
:1050C00047E002EA1C4482FA4CF594EA1345A5FA3B
:1050D0008CF50AD165B951F8043B84EA0204B4EBBB
:1050E000034F0CD150F8042BEBE74FEA134330E0A9
:1050F00015EA1C4528D10B884FEA124229E04FEAF5
:10510000124203EA1C4324E002F0FF0482FA4CF549
:1051100094EA1365A5FA8CF50AD165B951F8043BF8
:1051200084EA0204B4EB032F09D150F8042BEBE717
:105130004FEA13630DE015F0FF0F05D10B684FEA3E
:10514000122223F07F4304E04FF00000FDE8044505
:10515000704712BA1BBA82FA4CF482EA0304A4FA2A
:105160008CF5B5FA85F402FA04F203FA04F34FEA77
:105170001260FDE80445A0EB1360704700000000DA
:1051800090F800F06DE9024520F007016FF0000C87
:1051900010F0070491F820F040F049804FF000042F
:1051A0006FF00700D1E9002391F840F000F108000A
:1051B00082FA4CF2A4FA8CF283FA4CF3A2FA8CF342
:1051C0004BBBD1E9022382FA4CF200F10800A4FAA9
:1051D0008CF283FA4CF3A2FA8CF3E3B9D1E90423FD
:1051E00082FA4CF200F10800A4FA8CF283FA4CF334
:1051F000A2FA8CF37BB9D1E9062301F1200182FAEE
:105200004CF200F10800A4FA8CF283FA4CF3A2FAF3
:105210008CF3002BC6D0002A04BF04301A4612BA01
:10522000B2FA82F2FDE8024500EBD2007047D1E904
:10523000002304F00305C4F100004FEAC50514F093
:10524000040F91F840F00CFA05F562EA05021CBF64
:1052500063EA050362464FF00004A9E770B5002A2F
:105260009AB005462FDB14461A464FF4027300919C
:105270000491ADF80C3011D0013C4FF6FF761E9B27
:10528000029469460594ADF80E6002F057F8421C8E
:1052900012DB009B00221A701AB070BD1E9B029494
:1052A0004FF6FF7669460594ADF80E6002F046F8B9
:1052B000431C04DB1AB070BD8B232B60E9E78B2302
:1052C0002B601AB070BD8B2303604FF0FF30F1E705
:1052D00010B582B0054C0093246813460A46014677
:1052E0002046FFF7BBFF02B010BD00BF1400002036
:1052F00002690B69934200F38D802DE9F04F03F1B1
:10530000FF3801F1140700F1140B57F828205BF85F
:1053100028304FEA880483B00132B3FBF2F90BEB7B
:105320000403009407EB040A0193B9F1000F39D08C
:105330000025BC46DE462B465CF8046BDEF80020F8
:10534000B4B209FB0455360C2C0C09FB0644ADB273
:105350005B1BA6B213FA82F3C6EB124606EB23469A
:105360009BB243EA0643E2454EF8043B4FEA14453C
:105370004FEA2643E0D2009B5BF8033093B9019CCF
:10538000231F9B450CD254F8043C4BB9A4F10803ED
:1053900002E01A68043B1AB99B4508F1FF38F8D3BC
:1053A000C0F81080044601F0F5FB00282EDB09F15F
:1053B00001095D46002357F8041B28688AB29A1A2F
:1053C000090C12FA80F2C1EB104303EB224391B2B5
:1053D00041EA0341BA4545F8041B4FEA2343EAD2A8
:1053E0005BF828200BEB880382B91A1F93450BD278
:1053F00053F8042C42B9083B02E01A68043B1AB97E
:105400009B4508F1FF38F8D3C4F81080484603B034
:10541000BDE8F08F002070472DE9F04F57EC106B7E
:105420009BB0446A249D009181469046039310EE00
:1054300010AABB46002C00F0DB82216851B16268E3
:105440004A60012393408B6001F05EF9D9F8243063
:1054500000221A60BBF1000F5E4634DB00232B6094
:10546000A34B1A463340934216D0002200235046E5
:105470005946FEF733FE54465D46074648B3039A45
:1054800001231360259B002B00F0C0809948186011
:1054900001381BB0BDE8F08F039A42F20F7313601E
:1054A000BAF1000F00F09D809348259B002BF0D0AF
:1054B000C378002B00F0AC8000F10803259A13603C
:1054C0001BB0BDE8F08F01232BF000462B60B346E4
:1054D000C6E718AA19A945EC104B484601F098FCFC
:1054E000330D0A9040F08680189C199D254405F2E2
:1054F0003243202B40F3A882C3F1400305F212404F
:105500009E402AFA00F03043FEF70AFB0123013DDA
:10551000A1F1F8710F930022784BFEF7C3F96EA347
:10552000D3E90023FEF772FB6DA3D3E90023FEF756
:10553000BBF9064628460F46FEF702FB6AA3D3E9ED
:105540000023FEF763FB02460B4630463946FEF762
:10555000ABF906460F4602F095FE002204900023A8
:1055600030463946FEF7C4FD002840F05982049EBB
:10557000162E00F23A82624B03EBC603D3E9000118
:1055800052465B46FEF7D2FD002800F06582731E8E
:10559000049300230D93651B6B1E069300F13B8261
:1055A00000230793049B002BC0F22C82069A0C93D5
:1055B00011461944002306910593009B092B29D815
:1055C000052B40F35A86043B00930026009B023BC8
:1055D000032B00F23C86DFE813F04703410254033B
:1055E0008004454B474AC6F31300002814BF1846F1
:1055F00010465AE7CBF3130242F07F515046A3F214
:10560000FF350F9741F44011189C84E73E4840E76E
:10561000C31C53E7D9F8245000246C602146484647
:1056200001F03EF8D9F8243028601B6809934FF048
:10563000FF320123A046089200940E920B93199B0F
:10564000002BC0F2CF80049A0E2A00F3CB802C4BA3
:1056500003EBC20393ED007BB8F1000F8DED007BEF
:10566000C0F21A8356465F46DDE900AB304652462B
:105670005B463946FEF7F4FB02F004FE0446FEF7F3
:105680005FFA52465B46FEF7C1FA0B4602463946C0
:105690003046FEF707F9099D04F130032B70089B93
:1056A000012B06460F4605F1010560D00022174B7D
:1056B000FEF7ACFA0022002306460F46FEF70EFD69
:1056C00000287CD1CDF81490DDF820A0DDF824B0BE
:1056D000DDE9008927E000BF61436F63A787D23F00
:1056E000B3C8608B288AC63FFB799F501344D33FD1
:1056F0000000F07F1D8B0008608C00080000F83F60
:10570000E08C0008548C00081C8B0008000024402A
:10571000FEF77CFA0022002306460F46FEF7DEFC69
:10572000002840F0DD8342464B4630463946FEF7BE
:1057300097FB02F0A7FD0446FEF702FA42464B46ED
:10574000FEF764FA02460B4630463946FEF7AAF8E1
:1057500004F1300E05F801EBCBEB050ED6450646FD
:105760000F464FF00002BB4BD2D1DDF81490324609
:105770003B4630463946FEF797F806460F46024646
:105780000B46DDE90001FEF7B3FC40B932463B466B
:10579000DDE90001FEF7A2FC88B1E3070FD515F89B
:1057A000014C099A6B1E04E09A4200F03B8413F806
:1057B000014D392C03F10105F6D001341C700A9912
:1057C000484600F0A1FF0022049B2A70039A01338F
:1057D0001360259B002B00F0B08309981D601BB05F
:1057E000BDE8F08F0B9A002A00F02A81009A012A66
:1057F00040F37482089B059A5F1EBA42C0F2A083F0
:10580000D71B089B002BC0F29784079D089B079A23
:105810001A440792069A01211A444846069201F05A
:1058200067F8064665B1069900290B4608DDA942CE
:10583000079AA8BF2B46D21AED1ACB1A07920693E5
:10584000059B002B40F322830B9A002A00F01D8257
:10585000002F00F01A8231463A46484601F0EAF835
:105860000A9A01460646484601F04CF80A99044651
:10587000484600F049FF059BDB1B059340F004827E
:105880000121484601F034F80C9B0590002B00F0F4
:10589000378201461A46484601F0CCF8009B059035
:1058A000012B00F3CD82BAF1000F40F0C982CBF397
:1058B0001303002B40F04D842BF000473F0D3F05B4
:1058C00037B1079B01330793069B013306930127EA
:1058D0000C9B0120002B40F0B482069A104410F07B
:1058E0001F0000F00482C0F12003042B40F3C884A1
:1058F000079BC0F11C00034407931346034405446F
:105900000693079B002B05DD21461A46484601F009
:10591000EDF80446069B002B05DD1A46059948461E
:1059200001F0E4F805900D9B002B40F09482089B59
:10593000002B40F3AD820B9B002B40F00382DDF87F
:1059400024B0089FDDF814805D4602E000F0F8FE08
:10595000044641462046FFF7CBFC00F1300A05F82B
:1059600001ABCBEB0503BB424FF00A024FF0000343
:1059700021464846EADB099B089A012AACBF9B18DE
:1059800001331D464FF0000B21460122484601F02D
:10599000ADF805990A9001F0FDF8002840F3068360
:1059A00015F8012C09996B1E04E08B4200F08E82E1
:1059B00013F8012D392A03F10105F6D001321A70CE
:1059C0000599484600F0A0FE002E3FF4F8AEBBF16A
:1059D000000F05D0B34503D05946484600F094FE69
:1059E0003146484600F090FEE9E601230D93D2E5EA
:1059F000102000F0F3FDC9F82400446084600460C6
:105A0000C46027E5079A049BD21A5B4205930023E2
:105A100007920C93D1E55B42079300230693C1E5FF
:105A20000498FEF78DF802460B4630463946FEF7DD
:105A300055FB00287FF49BAD049B013B049396E546
:105A4000059F079D0B9EEDE6C3F120060AFA06F0BE
:105A50005AE500BF000024400D909CE500230B9305
:105A6000049B43440E930133002B089340F3778249
:105A7000089D2A46D9F824400021172A616008D9D8
:105A800004235B0003F11400904201F10101F8D9F5
:105A90006160484600F004FED9F8243020601B689D
:105AA00009930E2D3FF6CBAD002E3FF4C8AD0499FF
:105AB0000029CDE910AB40F38C82954B01F00F0229
:105AC0000E1103EBC203F006D3E9004540F140821A
:105AD000904B50465946D3E90823FEF7C1F9CDE96A
:105AE000120106F00F064FF0030A86B1894FF10745
:105AF00009D520462946D7E90023FEF787F80AF1A1
