:020000040800F2
:1000000000000220B9020008C1020008C502000871
:10001000390300083D0300088503000800000000C4
:10002000000000000000000000000000CD030008F8
:10003000D103000800000000D5030008A51800083F
:10004000E9030008E9030008E9030008E9030008E0
:10005000E9030008E9030008E9030008E9030008D0
:10006000E9030008E9030008E9030008E9030008C0
:10007000E9030008E9030008E9030008E9030008B0
:10008000E9030008E9030008E9030008E9030008A0
:10009000E9030008E9030008E9030008E903000890
:1000A000E9030008E9030008E9030008E903000880
:1000B000E9030008E9030008E9030008E903000870
:1000C000E9030008E9030008E9030008E903000860
:1000D000E9030008E9030008E9030008E903000850
:1000E000E9030008E9030008E9030008E903000840
:1000F000E9030008E9030008E9030008E903000830
:10010000E9030008E9030008E9030008E90300081F
:10011000E9030008E9030008E9030008E90300080F
:10012000E9030008E9030008E9030008E9030008FF
:10013000E90300080000000000000000E9030008D7
:10014000E9030008E9030008E9030008E9030008DF
:10015000E9030008E9030008E9030008E9030008CF
:10016000E9030008E9030008E9030008E9030008BF
:10017000E9030008E9030008000000000000000097
:10018000E9030008E903000800B583B001F07CFA38
:10019000384B394A1360394A136039490CE00A6810
:1001A0004B6801F10C04886803E01168196004339E
:1001B00004329842F9D82146324B9942EFD32E4B64
:1001C0001A68314B9A4204D12C4B1A682F4B9A4231
:1001D00000D0FEE7274B2E4A13602E4A13602E4BA9
:1001E0000AE0194651F8082B5B6802E00020106015
:1001F00004329A42FAD30B46284A9342F1D3244B55
:100200001B6813B9234B1B6803B1FEE701F09EFB8B
:10021000694601A801F0C8F9214C224B1C1BA4100F
:10022000002504E01E4B53F8253098470135AC42B9
:10023000F8DC1D4C1D4B1C1BA410002504E01A4BC0
:1002400053F8253098470135AC42F8DC0099019805
:1002500001F01CFC0546164C164B1C1BA41004E0B8
:10026000013C134B53F824309847002CF8DC284607
:1002700001F06CF9BABADECA000000207400002058
:10028000EC030008040400087856341232547698BF
:10029000780000202C010020040400081404000849
:1002A00014040008140400081404000814040008CE
:1002B000140400081404000808B5FFF765FF00BF28
:1002C00000BEFEE71EF0040F0CBFEFF30880EFF353
:1002D00009807146414A10472DE9F04182B0044639
:1002E0008846134B5E6B9F6B9D6A1B6B13F0020F6E
:1002F0000DD00F4BDB6A002B09DA4BF6AB6101F036
:1003000047FA20B14FF00042094BDA620CE009488D
:1003100001F05CF9CDF800803B4632462946204684
:1003200001F0BEF900BEFEE702B0BDE8F08100BFFB
:1003300000ED00E03C2B000800BEFEE71EF0040FBD
:100340000CBFEFF30880EFF309807146244A104791
:100350002DE9F04182B004468846084B5E6B9F6BE6
:100360009D6A074801F032F9CDF800803B463246DD
:100370002946204601F094F900BEFEE700ED00E0BA
:100380004C2B00081EF0040F0CBFEFF30880EFF3B6
:1003900009807146134A10472DE9F04182B00446A6
:1003A0008846084B5E6B9F6B9D6A074801F00EF90B
:1003B000CDF800803B4632462946204601F070F9D0
:1003C00000BEFEE700ED00E0582B000800BEFEE78F
:1003D00000BEFEE700BEFEE770470000D90200083D
:0C03E000510300089903000800BEFEE76E
:1003EC00B82B00080000002078000020B82B000873
:1003FC0000000010000000107800002030010020E8
:08040C000000001000000010C8
:1004400010B50446074B1B680748A0FB0330800922
:1004500000F094F8002221464FF0FF3000F04CF8F5
:10046000002010BD0C000020D34D621008B50B4BCE
:100470001A6842F400721A601A6842F480621A60C4
:100480001A6842F480721A60032000F017F80F20F7
:10049000FFF7D6FF01F008FB002008BD003C02403A
:1004A000024A136801331360704700BF0C0100203B
:1004B000014B1868704700BF0C01002010B50446BE
:1004C000C31E042B03D9A421094801F075F8094A79
:1004D000D36823F4E0631B041B0C240204F4E064DF
:1004E000234343F0BF6343F40033D36010BD00BF28
:1004F0007028000800ED00E070B504460E46154671
:100500000F2A03D9BC211A4801F056F80F2E03D93F
:10051000BD21174801F050F8164BDA68C2F30222E9
:10052000C2F10701042928BF0421131D062B01D99C
:10053000033A00E00022012303FA01F101393140BE
:10054000914003FA02F2013A2A400A43002C06DAEB
:1005500004F00F041201D2B2074B1A5570BD1201FC
:10056000D2B204F1604404F5614484F8002370BD04
:100570007028000800ED00E014ED00E00138B0F153
:10058000807F0AD2064B5860F021064A82F8231079
:100590000020986007221A6070470120704700BF52
:1005A00010E000E000ED00E010B50446042805D09E
:1005B00020B140F2B311084800F0FEFF042C05D131
:1005C000064A136843F00403136010BD034A13681E
:1005D00023F00403136010BD7028000810E000E051
:1005E0002DE9F04782B080460F46A14B984223D0B8
:1005F00003F5806398421FD003F5806398421BD0B7
:1006000003F58063984217D003F58063984213D0B6
:1006100003F5806398420FD003F5806398420BD0B6
:1006200003F58063984207D003F58063984203D0B6
:10063000C521904800F0C0FF3B881BB9C6218D48FA
:1006400000F0BAFF7B68012B22D9112B20D0022B9E
:100650001ED0122B1CD0884A934219D002F580126A
:10066000934215D002F58012934211D0A2F5F812F0
:1006700093420DD002F58012934209D002F5801208
:10068000934205D0032B03D0C7217A4800F094FF92
:10069000BB68022B03D9C821764800F08DFF0025E6
:1006A00026E10124AC403E682640B44240F01F8160
:1006B0007B68022B01D0122B45D13B699BB3092BE0
:1006C00031D083B37BB373B36BB3012B2BD02AD060
:1006D000022B28D027D026D0032B24D0042B22D0C5
:1006E00021D020D0052B1ED01DD0092B1BD0062BCE
:1006F00019D0092B17D0072B15D014D013D0082BE5
:1007000011D010D00FD0092B0DD00CD00A2B0AD04D
:1007100009D00C2B07D006D005D00F2B03D0D92140
:10072000544800F049FFEA08083258F8220005F062
:10073000070399000F238B4020EA03003B698B409D
:10074000034348F82230D8F800304FEA450A4FF00A
:10075000030909FA0AF96FEA090903EA09027B6841
:1007600003F0030303FA0AF31343C8F800307B686D
:100770005A1E012A03D9112B01D0122B1BD1FB6861
:10078000032B03D9EC213B4800F016FFD8F80830C2
:1007900009EA0302FB6803FA0AF31343C8F80830B6
:1007A000D8F8043023EA04047B68C3F30013AB4099
:1007B0001C43C8F80440D8F80C3009EA0309BB68A8
:1007C00003FA0AF349EA0303C8F80C307B6813F014
:1007D000805F00F08C8000230193284B5A6C42F418
:1007E00080425A645B6C03F480430193019BA90827
:1007F0008A1C234B53F8220005F003039B000F22B1
:100800009A4020EA02001A4A904521D002F58062FF
:1008100090451FD002F5806290451DD002F58062A0
:1008200090451BD002F58062904519D002F5806298
:10083000904517D002F58062904515D002F5806290
:10084000904513D002F5806290451BD108221AE032
:10085000002218E0012216E0022214E0032212E036
:10086000042210E005220EE006220CE007220AE036
:1008700000000240A42800080000111000380240C7
:1008800000380140092202FA03F3034302311B4AF4
:1008900042F821301A4B1A68F34302EA03017868E0
:1008A00010F4803F01D046EA0201154A11605268F7
:1008B00003EA0201786810F4003F01D046EA020121
:1008C0000F4A5160926803EA0201786810F4801FB1
:1008D00001D046EA02010A4A9160D2681340796861
:1008E00011F4001F01D046EA0203054AD360013526
:1008F0000F2D7FF6D6AE02B0BDE8F087003801407C
:10090000003C0140002800F0E38038B5044603684D
:10091000704A93420CD002F58062934208D002F5EF
:100920008062934204D040F265116B4800F044FEAF
:100930006368013B694A934204D94FF4B371664836
:1009400000F03AFEA3683BB1B3F5804F04D040F20B
:100950006711614800F030FEE36823F47F7323F0F1
:10096000030323B14FF4B4715B4800F025FE236903
:10097000B3F5804F07D0B3F5404F04D040F2691172
:10098000554800F019FE6369012B04D94FF4B57185
:10099000514800F011FEA36933F0FE0304D040F289
:1009A0006B114D4800F008FEE36933B1402B04D0D1
:1009B0004FF4B671484800F0FFFD236A33B1802B35
:1009C00004D040F26D11444800F0F6FD94F83D303B
:1009D00013F0FF0F05D1002384F83C30204600F0CF
:1009E000D9FF242384F83D302268136823F00103E3
:1009F000136000F027FC3A4BA3FB00239B0C2268FA
:100A0000536021686568374A954201D8013308E090
:100A10004FF4967202FB03F3334AA2FB03239B09B4
:100A200001330B62216863682E4A934208D85B0049
:100A3000B0FBF3F0C0F30B03032B2BD8042029E009
:100A4000A5684DB903EB4302B0FBF2F2C2F30B020F
:100A5000B2FA82F252090AE003EB830202EB82024D
:100A6000B0FBF2F2C2F30B02B2FA82F2520982B97F
:100A700035B903EB4303B0FBF3F040F4004009E069
:100A800003EB830303EB8303B0FBF3F040F440403C
:100A900000E00120C8612268E169236A0B4313600A
:100AA00022682169E3680B43936022686169A36946
:100AB0000B43D3602268136843F0010313600020E6
:100AC0002064202384F83D30206384F83E0038BD44
:100AD0000120704700540040D42800087F1A060007
:100AE00083DE1B43A0860100D34D621030B583B076
:100AF000044603680F2B03D9F5219C4800F05CFDE8
:100B0000236813F0010F45D06368012B05D9052B2D
:100B100003D0FA21954800F04FFD954B9B6803F0F8
:100B20000C03042B0AD0924B9B6803F00C03082B98
:100B30000CD18F4B5B6813F4800F07D08C4B1B6874
:100B400013F4003F26D0636823BBCCE12279894BA4
:100B50001A7063687BB1FFF7ABFC054605E0FFF751
:100B6000A7FC401B642800F2C081814B1B6813F472
:100B7000003FF4D00EE0FFF79BFC054605E0FFF7D1
:100B800097FC401B642800F2B281794B1B6813F478
:100B9000003FF4D1236813F0020F6AD0E368012B01
:100BA00004D94FF49671714800F006FD23691F2B9C
:100BB00004D940F22D116D4800F0FEFC6C4B9B688F
:100BC00013F00C0F0AD06A4B9B6803F00C03082B40
:100BD0001BD1674B5B6813F4800F16D1644B1B6805
:100BE00013F0020F03D0E368012B40F082816048CC
:100BF000036823F0F8012369F82292FAA2F2B2FA0C
:100C000082F293400B43036033E0E368FBB10122BF
:100C1000594B1A60FFF74CFC054605E0FFF748FC0E
:100C2000401B022800F26781514B1B6813F0020F32
:100C3000F4D04F48036823F0F8012369F82292FAB0
:100C4000A2F2B2FA82F293400B43036011E0002259
:100C5000494B1A60FFF72CFC054605E0FFF728FC1E
:100C6000401B022800F24981414B1B6813F0020F20
:100C7000F4D1236813F0080F2ED06369012B04D937
:100C800040F26D11394800F097FC636993B101227D
:100C90003A4B1A60FFF70CFC054605E0FFF708FC2D
:100CA000401B022800F22B81314B5B6F13F0020FC7
:100CB000F4D011E00022314B1A60FFF7F9FB054632
:100CC00005E0FFF7F5FB401B022800F21A81284BD4
:100CD0005B6F13F0020FF4D1236813F0040F60D0A0
:100CE000A368012B06D9052B04D040F297111F48A9
:100CF00000F062FC002301931D4B1A6C42F08052FD
:100D00001A641B6C03F080530193019B1C4A136807
:100D100043F480731360FFF7CBFB054605E0FFF754
:100D2000C7FB401B022800F2EE80154B1B6813F432
:100D3000807FF4D0227A134B1A70A3688BB1FFF72F
:100D4000B7FB054607E0FFF7B3FB401B41F28833D2
:100D5000984200F2DA80064B1B6F13F0020FF2D0BC
:100D60001FE0FFF7A5FB054616E000BF14290008A9
:100D7000003802400238024000004742800E4742DD
:100D80000070004070380240FFF792FB401B41F2B8
:100D90008833984200F2BB80634B1B6F13F0020F45
:100DA000F2D1A369022B04D94FF4E6715F4800F039
:100DB00003FCA369002B00F0AC805B4A926802F050
:100DC0000C02082A00F0A780022B79D1E3693BB11D
:100DD000B3F5800F04D040F2D511544800F0ECFB7D
:100DE000236A3F2B04D94FF4EB71504800F0E4FB29
:100DF000636A323BB3F5BF7F04D940F2D7114B4849
:100E000000F0DAFBA36A022B0AD0042B08D0062BD1
:100E100006D0082B04D04FF4EC71444800F0CCFB12
:100E2000E36A043B0B2B04D940F2D9113F4800F090
:100E3000C3FB00223E4B1A60FFF73AFB054604E075
:100E4000FFF736FB401B022867D8374B1B6813F0AF
:100E5000007FF5D1E169236A1943636A47F6C072DE
:100E600092FAA2F2B2FA82F293401943A36A5B08A3
:100E70005A1E4FF4403393FAA3F3B3FA83F302FA02
:100E800003F30B43E26A4FF0706191FAA1F1B1FAFA
:100E900081F18A401343244A53600122244B1A6093
:100EA000FFF706FB044604E0FFF702FB001B0228E5
:100EB00035D81D4B1B6813F0007FF5D0002031E0C2
:100EC00000221B4B1A60FFF7F3FA044604E0FFF719
:100ED000EFFA001B022824D8134B1B6813F0007F85
:100EE000F5D100201EE001201CE003201AE00320C1
:100EF00018E0012016E0032014E0032012E0032094
:100F000010E003200EE003200CE003200AE00320A1
:100F100008E0002006E0012004E0032002E00320B6
:100F200000E0032003B030BD00380240142900085F
:100F300060004742244B9B6803F00C03042B3FD016
:100F4000082B01D02148704710B41F4B586800F09F
:100F50003F005B6813F4800F10D01D4BB3FBF0F023
:100F6000194B5A6847F6C0710A4091FAA1F3B3FAD7
:100F700083F322FA03F303FB00F310E0134BB3FBFC
:100F8000F0F0114B5A6847F6C07402EA040194FA73
:100F9000A4F2B2FA82F221FA02F202FB00F30A4A48
:100FA000506800F440324FF4403090FAA0F0B0FAAC
:100FB00080F022FA00F001304000B3FBF0F001E0D5
:100FC0000348704710BC7047003802400024F4000A
:100FD00000127A0070B504460D460368013B0E2BE3
:100FE00004D940F237218F4800F0E6FA072D04D9E2
:100FF0004FF40E718B4800F0DFFA8B4B1B6803F047
:101000000F039D4208D9EBB2874A1370136803F0AF
:101010000F039D4240F0F480236813F0020F1DD0AF
:10102000A368A3B1802B12D0902B10D0A02B0ED090
:10103000B02B0CD0C02B0AD0D02B08D0E02B06D080
:10104000F02B04D040F24F21764800F0B5FA7749F2
:101050008B6823F0F002A36813438B60236813F0BE
:10106000010F6BD06368032B04D940F256216D4801
:1010700000F0A2FA6268012A05D16C4B1B6813F4D8
:10108000003F0FD1BEE0931E012B05D8674B1B68B4
:1010900013F0007F06D1B7E0644B1B6813F0020F1A
:1010A00000F0B48061498B6823F0030313438B6025
:1010B000FFF7FEF906466368012B0FD107E0FFF743
:1010C000F7F9801B41F28833984200F2A180574B18
:1010D0009B6803F00C03042BF1D12FE0022B0FD1FE
:1010E00007E0FFF7E5F9801B41F28833984200F2F0
:1010F00091804E4B9B6803F00C03082BF1D11DE04F
:10110000032B16D107E0FFF7D3F9801B41F2883398
:10111000984200F28180454B9B6803F00C030C2B36
:10112000F1D10BE0FFF7C4F9801B41F288339842FC
:1011300074D83E4B9B6813F00C0FF3D13A4B1B68ED
:1011400003F00F039D4207D2EAB2374B1A701B68B7
:1011500003F00F039D4263D1236813F0040F19D0ED
:10116000E36883B1B3F5805F0DD0B3F5A05F0AD01B
:10117000B3F5C05F07D0B3F5E05F04D04FF42D7135
:10118000284800F019FA29498B6823F4E052E368F3
:1011900013438B60236813F0080F1AD0236983B1BF
:1011A000B3F5805F0DD0B3F5A05F0AD0B3F5C05F93
:1011B00007D0B3F5E05F04D040F2BB21194800F03E
:1011C000FBF91A4A936823F46043216943EAC10397
:1011D0009360FFF7AFFE154B9B6803F0F002F0231E
:1011E00093FAA3F3B3FA83F322FA03F3104AD35C1E
:1011F000D840104B18600F20FFF722F9002070BD77
:10120000012070BD012070BD012070BD012070BDA6
:10121000032070BD032070BD032070BD032070BD8E
:10122000012070BD14290008003C02400038024033
:10123000042900080C000020014B1868704700BF0B
:101240000C00002008B5FFF7F7FF084B9B6803F47C
:10125000E0524FF4E05393FAA3F3B3FA83F322FA84
:1012600003F3034AD35CD84008BD00BF00380240F6
:101270000429000808B5FFF7DFFF084B9B6803F45B
:1012800060424FF4604393FAA3F3B3FA83F322FA74
:1012900003F3034AD35CD84008BD00BF00380240C6
:1012A000042900082DE9F04104460368814A93426D
:1012B00010D0A2F54C4293420CD002F580629342CA
:1012C00008D002F54C42934204D04FF4F4617A48BE
:1012D00000F072F9A3693BB1B3F5806F04D040F21E
:1012E000A171754800F068F9E3693BB1B3F5007F7F
:1012F00004D040F2A271704800F05EF9236A3BB15D
:10130000B3F5807F04D040F2A3716B4800F054F92C
:1013100062686A4B9A4204D940F2A471664800F0B0
:101320004BF9A3683BB1B3F5805F04D040F2A571DF
:10133000614800F041F9E3686BB1B3F5805F0AD012
:10134000B3F5405F07D0B3F5005F04D040F2A6715B
:10135000594800F031F9236953B1B3F5806F07D0D4
:10136000B3F5C06F04D040F2A771534800F024F9E0
:1013700063694FF6F372134200D123B94FF4F5615C
:101380004D4800F019F92268D36823F00C03D360AC
:101390002068036923F47C52A169E3691943236A35
:1013A0001943E3680B43134343F40063036120686C
:1013B000C36823F4164222F00C02A1682369194382
:1013C00063690B43134343F40043C36022685369CA
:1013D00023F4407353612568364B9D4203D003F5D7
:1013E00080639D4232D1FFF745FF00EB800000EBA8
:1013F000800063685B00B0FBF3F3314FA7FB03236E
:101400005B091E01FFF736FF00EB800000EB800058
:1014100063685B00B0FBF3F8FFF72CFF00EB800084
:1014200000EB800063685B00B0FBF3F3A7FB0323D2
:101430005B09642202FB13831B013233A7FB0323E6
:10144000C3F343133343AB60BDE8F081FFF7FAFE0B
:1014500000EB800000EB800063685B00B0FBF3F3FF
:10146000174FA7FB03235B091E01FFF7EBFE00EB01
:10147000800000EB800063685B00B0FBF3F8FFF7CF
:10148000E1FE00EB800000EB800063685B00B0FBD6
:10149000F3F3A7FB03235A09642303FB12831B0105
:1014A0003233A7FB0323C3F343133343AB60BDE8DD
:1014B000F08100BF0010014044290008A037A000BF
:1014C0001F85EB5100283BD010B5044603681D4A28
:1014D00093420FD0A2F54C4293420BD002F58062AA
:1014E000934207D002F54C42934203D0EB211648B9
:1014F00000F062F894F83D3013F0FF0F05D100239F
:1015000084F83C30204600F08DFA022384F83D3008
:101510002046FFF7C7FE2268136923F48043136156
:101520002268536923F02A0353612268D36843F485
:101530000053D36000202064012384F83D3010BDA7
:10154000012070470010014044290008FEE700BF59
:1015500008B5034800F052F80120FFF7F7FF00BF7D
:101560007429000808B50D4B1B6813B90C4A0B4BC6
:101570001A600A4B1A68C31C23F003031344094979
:101580008B4206D900F092FA0C2303604FF0FF3033
:1015900008BD02490B60104608BD00BF7C0000205A
:1015A0003001002000FC012001230360014B0B608F
:1015B000704700BF0400002008B50A4601460248F3
:1015C00000F004F8FFF7C4FFC82900080FB400B505
:1015D00083B004AB53F8042B01938021064800F03C
:1015E000B7FB002803DD0146034800F049F803B0CB
:1015F0005DF804EB04B070478400002010B5044689
:1016000000F0FEFA0146204600F03AF801210248B7
:1016100000F036F810BD00BFB82A00082DE9F043ED
:1016200085B004460F46435613BB04252846214681
:10163000ABBE04461FE03546102E28BF1025002300
:1016400006E014F9011B04AA1A4402F8101C013325
:10165000AB42F6D304AA1344002203F8102CE94647
:101660004FF0040840464946ABBE8046761B00E07A
:101670000E46002EDFD1384605B0BDE8F08300BF2E
:1016800008B5FFF7CBFF08BD08B500F091F8024B95
:10169000024A9A6008BD00BF00ED00E000000008AB
:1016A000F8B504460D4617461E462648FFF78EFF3E
:1016B00021682548FFF78AFF61682448FFF786FF05
:1016C000A1682348FFF782FFE1682248FFF77EFF09
:1016D00021692148FFF77AFF61692048FFF776FF0B
:1016E000A1691F48FFF772FFE1691E48FFF76EFF0F
:1016F0001D48FFF76BFF29461C48FFF767FF1C4C8E
:10170000E16A1C48FFF762FF216B1B48FFF75EFF91
:10171000E16B1A48FFF75AFF15F0800F03D03946E6
:101720001748FFF753FF15F4004F03D03146154813
:10173000FFF74CFF1448FFF749FF06991348FFF7DE
:1017400045FFF8BD202A0008302A0008402A00087A
:10175000502A0008602A0008702A0008802A000821
:10176000902A0008A02A0008B02A0008BC2A000815
:1017700000ED00E0CC2A0008DC2A0008EC2A000872
:10178000FC2A00080C2B00081C2B0008242B000846
:1017900083691A888A4207D10268033A012A05D868
:1017A000023383610120704700207047002070479A
:1017B0000C4B1A6842F001021A60002199601A6805
:1017C00022F0847222F480321A60074A5A601A6842
:1017D00022F480221A60D9604FF00062034B9A60B5
:1017E000704700BF003802401030002400ED00E0D8
:1017F000224B9B6803F00C03042B07D0082B09D065
:10180000002B2DD11E4A1F4B1A602CE01E4A1D4B87
:101810001A6028E0194B5A685B6803F03F0312F422
:10182000800F09D0184AB2FBF3F2144B5B68C3F384
:10183000881303FB02F208E0114AB2FBF3F30F4AEC
:101840005168C1F3881101FB03F20C4B5B68C3F3D1
:10185000014301335B00B2FBF3F30A4A136002E079
:10186000074A084B1A60054B9B68C3F30313074AEA
:10187000D15C044A1368CB401360704700380240C3
:101880000024F4000C00002000127A00682B0008ED
:10189000034B1B681BB1024A1368013B136070477E
:1018A0001401002008B5FEF7FBFDFFF7F1FF08BDAE
:1018B00030B595B000240194214B1A6C42F080524F
:1018C0001A641B6C03F080530193019B02941D4B1F
:1018D0001A6842F480421A601B6803F48043029342
:1018E000029B0123089309934FF480030F9308236D
:1018F00010934FF4A87311930225129507231393A5
:101900000E9508A8FFF7F2F80F23039304950594AA
:101910004FF4A05306934FF480530793052103A877
:10192000FFF758FBFFF788FC074BA3FB003080094B
:10193000FEF724FE0420FEF737FE15B030BD00BFD1
:101940000038024000700040D34D621008B5FEF729
:101950008DFDFFF7ADFFFFF74BFF08BD08B54FF456
:1019600080420261094A4260002242618260C26193
:101970000262FF22C260F8228261054A02601022E0
:1019800080F83E20FEF7BEFF08BD00BFA086010024
:101990000054004000B589B00268164B9A4224D129
:1019A0000022019203F5F233196C41F4001119641D
:1019B000196C01F40011019101990292196B41F027
:1019C000020119631B6B03F002030293029B0423C1
:1019D0000793022304934FF44071039105920693F9
:1019E00003A90548FEF7FCFD01E0FFF7B1FD09B0D2
:1019F0005DF804FB005400400004024008B54FF4B9
:101A000016524260002282604FF40051C1600261B0
:101A10000C224261024A0260FFF754FD08BD00BF7C
:101A20000044004000B589B00268164B9A4223D1A9
:101A30000022019203F5FA33196C41F40031196464
:101A4000196C01F40031019101990292196B41F076
:101A5000020119631B6B03F002030293029B07232D
:101A6000079302230493C02103910592069303A9CF
:101A70000548FEF7B5FD01E0FFF76AFD09B05DF826
:101A800004FB00BF004400400004024008B5044BC2
:101A90001868FFF763FF034B1868FFF7AFFF08BD37
:101AA0002801002020010020704700BF014B18686A
:101AB000704700BF10000020844641EA000313F085
:101AC00003036DD1403A41D351F8043B40F8043B45
:101AD00051F8043B40F8043B51F8043B40F8043B08
:101AE00051F8043B40F8043B51F8043B40F8043BF8
:101AF00051F8043B40F8043B51F8043B40F8043BE8
:101B000051F8043B40F8043B51F8043B40F8043BD7
:101B100051F8043B40F8043B51F8043B40F8043BC7
:101B200051F8043B40F8043B51F8043B40F8043BB7
:101B300051F8043B40F8043B51F8043B40F8043BA7
:101B400051F8043B40F8043B403ABDD2303211D347
:101B500051F8043B40F8043B51F8043B40F8043B87
:101B600051F8043B40F8043B51F8043B40F8043B77
:101B7000103AEDD20C3205D351F8043B40F8043B47
:101B8000043AF9D2043208D0D2071CBF11F8013B45
:101B900000F8013B01D30B8803806046704700BF0B
:101BA000082A13D38B078DD010F003038AD0C3F11A
:101BB0000403D21ADB071CBF11F8013B00F8013BFC
:101BC00080D331F8023B20F8023B7BE7043AD9D3BB
:101BD000013A11F8013B00F8013BF9D20B78037090
:101BE0004B7843708B78837060467047000000002C
:101BF00000000000000000000000000000000000E5
:101C000090F800F06DE9024520F007016FF0000C3C
:101C100010F0070491F820F040F049804FF00004E4
:101C20006FF00700D1E9002391F840F000F10800BF
:101C300082FA4CF2A4FA8CF283FA4CF3A2FA8CF3F7
:101C40004BBBD1E9022382FA4CF200F10800A4FA5E
:101C50008CF283FA4CF3A2FA8CF3E3B9D1E90423B2
:101C600082FA4CF200F10800A4FA8CF283FA4CF3E9
:101C7000A2FA8CF37BB9D1E9062301F1200182FAA3
:101C80004CF200F10800A4FA8CF283FA4CF3A2FAA9
:101C90008CF3002BC6D0002A04BF04301A4612BAB7
:101CA000B2FA82F2FDE8024500EBD2007047D1E9BA
:101CB000002304F00305C4F100004FEAC50514F049
:101CC000040F91F840F00CFA05F562EA05021CBF1A
:101CD00063EA050362464FF00004A9E770B5002AE5
:101CE0009AB005462FDB14461A464FF40273009152
:101CF0000491ADF80C3011D0013C4FF6FF761E9BDD
:101D0000029469460594ADF80E6000F017F9421C84
:101D100012DB009B00221A701AB070BD1E9B029449
:101D20004FF6FF7669460594ADF80E6000F006F9AF
:101D3000431C04DB1AB070BD8B232B60E9E78B23B7
:101D40002B601AB070BD8B2303604FF0FF30F1E7BA
:101D500010B582B0054C0093246813460A4601462C
:101D60002046FFF7BBFF02B010BD00BF10000020EF
:101D70002DE9F84F8E689E420C461F46904629D8A2
:101D80008B8913F4906F35D04D692268096905EB92
:101D90004505C1EB020A814605EBD5750AF1010044
:101DA0006D103844A8422A4684BF05462A465B0582
:101DB00023D51146484600F0BDFC834690B35246F9
:101DC0002169FFF779FEA38923F4906343F0800330
:101DD000A38117E008681E461D462A46414600F0CA
:101DE000FFFBA36822689E1B1544A66025600020A7
:101DF000BDE8F88F35460868EFE7484600F0F8FC84
:101E0000834658B1CAEB05030BEB0A0065613E46F9
:101E1000C4F810B02060A3603D46DEE72169484663
:101E200000F042FC0C23C9F80030A38943F04003C2
:101E3000A3814FF0FF30BDE8F88F00BF2DE9F04FD0
:101E4000936883B09046002B72D083464FF0000910
:101E5000166808688B680D464C46002C45D09C429D
:101E60001F469A4646D3AB8913F4906F2DD06F6905
:101E7000296907EB4707C1EB000A07EBD777601C1E
:101E80007F105044B8423A4684BF07463A465B0545
:101E900033D51146584600F04DFC002837D0524645
:101EA00029690190FFF708FEAA89019B22F490623C
:101EB00042F08002AA81CAEB070203EB0A006F61BD
:101EC0002B612860AA602746A2465246494600F088
:101ED00087FBD8F80820AB682868DB1B5044141B2C
:101EE000AB602860C8F8084014B3D6F80090746856
:101EF0000836B2E72746A246E7E7584600F078FCE6
:101F000003460028D7D12969584600F0CDFB0C23A1
:101F1000CBF80030AB89002243F040034FF0FF3094
:101F2000AB81C8F80820C8F8042003B0BDE8F08FE2
:101F30000020C8F8040003B0BDE8F08F2DE9F04F91
:101F400014468A899DB0150688460393814603D5B9
:101F50000B69002B00F0EC8030238DF82A302378B9
:101F60007C4DDFF8F4A10021202209918DF8292071
:101F7000002B00F08580252B264603D117E0252B6A
:101F800000F0888016F8013F002BF8D1B6EB040B67
:101F900076D022465B4641464846FFF7E9FE0130CF
:101FA0006ED0099B32785B440993002A68D00023E5
:101FB0004FF0FF31721C0493079306938DF8533052
:101FC0001A930591012604E0049906FA03F30B43E2
:101FD000049314465F482178052200F0B1FA621C90
:101FE000431B0028F0D1049BD80644BF20228DF863
:101FF00053201907217844BF2B228DF853202A291A
:102000006AD0A1F13002092A0BD8079B14F8011FEE
:1020100003EB830302EB4303A1F13002092AF5D954
:1020200007932E2941D003224B4800F089FA48B18A
:102030000499CAEB0000402202FA00F041EA0003D2
:1020400001340493217845488DF828100622013484
:1020500000F076FA002861D0414BFBB103AB00934E
:102060004246404B04A94846AFF3008007467A1C1D
:1020700006D0099B3B4409932378002B7FF47BAF68
:10208000B8F80C305B0654BF09984FF0FF301DB014
:10209000BDE8F08FB6EB040B89D07AE7039B0733DA
:1020A00023F0070308330393E3E761782A291DD05F
:1020B000A1F130020023092A04F101040593B2D8EA
:1020C00014F8011F03EB830302EB4303A1F1300279
:1020D000092AF5D90593A6E7039A11680432002965
:1020E000039215DB0791617801349AE7039B1A6824
:1020F0000592002A03F104030393B8BF4FF0FF32A7
:1021000004F10203AEBFA178A17805921C468AE7CC
:10211000494243F0020307910493E4E703AB0093C1
:102120004246104B04A9484600F0B6F807469EE721
:10213000402100F0FFFAC8F80000C8F8100018B1FC
:102140004023C8F8143007E70C23C9F800304FF0DB
:10215000FF309CE77C2B0008842B0008882B0008AC
:1021600000000000711D00082DE9F0470C46914663
:102170000969A268DDF820808A42B8BF0A46C9F81A
:10218000002094F8431006461F4611B10132C9F8E9
:102190000020236899065DD5D9F800200232C9F8DD
:1021A0000020236813F0060F19461DD1E1688A1A32
:1021B000002AD8BF194617DD04F1190A002505E0E9
:1021C000E368D9F800209B1AAB420CDD012352468C
:1021D00039463046C047013005F10105F0D14FF0D6
:1021E000FF30BDE8F087216894F84330003318BF12
:1021F00001238A060AD5E1185A1C302081F84300D1
:10220000224494F8451082F84310023304F143024B
:1022100039463046C0470130E1D0236803F0060359
:10222000042B29D0A36822699342C8BF4FF000094C
:102230002FDD9B1A99441A34002501E04D4528D022
:102240000123224639463046C047013005F10105D9
:10225000F4D1C4E713F0060F08D1E168D9F80020E3
:102260008A1A002AD8BF1946A6DCBDE794F8433085
:10227000003318BF0123C9E7D9F80000E168A3685B
:102280002269091A934221EAE179D2DCB9F1000FFF
:10229000D1D10020BDE8F0872DE9F0430C46097E3E
:1022A00085B06E29064617460C98984604F1430CF3
:1022B0005AD01AD8632900F0128100F2D680002982
:1022C0005CD0582940F0F58084F8451022680368F6
:1022D000DFF864E2150603F104011ED4550653BF6E
:1022E0001B6801601B88016019E0732900F0CF8032
:1022F0007ED86F2900F0E480702940F0DA802268EF
:1023000042F020022260782384F845300368DFF829
:102310002CE2150603F10401E0D51B680160D0072B
:1023200044BF42F020022260002B40F090802268DF
:1023300022F0200222601021002284F843206068ED
:10234000A0600028C0F28880226822F00402226087
:10235000002B62D1002840F08180654608296AD0B0
:10236000C5EB0C0323610CE023681A0640F1D5800D
:1023700003686269191D01601B681A6000236546C5
:102380002361CDF800803B4603AA21463046FFF783
:10239000EBFE013021D02A46236939463046C0473A
:1023A00001301AD02368039813F0020FE36819D0A4
:1023B0001A1A002A16DD04F11909002504E0E36861
:1023C00003981A1AAA420DDD01234A4639463046BF
:1023D000C047013005F10105F1D14FF0FF3005B0E4
:1023E000BDE8F0839842B8BF184605B0BDE8F08359
:1023F000752965D078295CD1226884E76168A1607D
:102400002D200029C3F1000384F8430021DB22F0D2
:102410000402DFF824E122600A216546B3FBF1F2F1
:1024200001FB123013461EF8002005F8012D002B89
:10243000F4D1082994D12368D90791D5626823691A
:102440009A428DDC302305F8013C013D88E71021DC
:1024500072E7DFF8E4E00A21002BDED19EF80030BD
:1024600084F8423004F1420578E7642901D06929F3
:102470001FD122680368150603F104013AD51B68D1
:102480000160002BBADBDFF8B0E00A2157E70368F0
:102490006268191D01601D680021284600F050F88F
:1024A000002846D0401B60602061002384F8433040
:1024B00067E7012384F84210236104F14205F4E741
:1024C00023681A061ED503681A1D1B680260227E47
:1024D000DFF864E06F2A14BF0A2108212CE70368A3
:1024E0001A68191D0123016004F1420584F8422095
:1024F0002361DAE7550653BF1B680160B3F900306A
:102500000160BEE713F0400F036803F1040215BF3A
:1025100002601B681B880260D9E713F0400F036854
:10252000626903F1040101601B6814BF1A801A601C
:1025300024E76068B8E700BF902B0008A42B0008D0
:1025400001F0FF01102A2BDB10F0070F08D010F864
:10255000013B013A8B422DD010F0070F42B3F6D168
:10256000F0B441EA012141EA014122F007047FF081
:1025700000070023F0E80256083C85EA010586EAD8
:10258000010685FA47F5A3FA87F586FA47F6A5FA14
:1025900087F68EB9EED1F0BC01F0FF0102F0070220
:1025A00032B110F8013B013A83EA010313B1F8D1CB
:1025B0000020704701387047002D06BF35460338AC
:1025C000073815F0010F07D1013015F4807F02BFE5
:1025D000013015F4C03F0130F0BC0138704700BF36
:1025E0008842F0B50DD98B1898420AD28118002A7A
:1025F00051D09A1A13F8014D01F8014D9342F9D1C7
:10260000F0BD0F2A48D941EA00039B0746D100F1EB
:10261000100401F11003154653F8106C44F8106CC7
:1026200053F80C6C44F80C6C53F8086C44F8086CC4
:10263000103D53F8046C44F8046C0F2D03F11003A3
:1026400004F11004E8D8A2F1100323F00F0302F004
:102650000F0E1033BEF1030F1944034421D91E1F7E
:102660000D467446043C55F8047B46F8047F032C61
:10267000F8D8AEF1040424F00304043423442144C4
:1026800002F0030262B1013B0A4411F8014B03F866
:10269000014F8A42F9D1F0BD0346F3E70346F2E762
:1026A000F0BD7246EEE700BF30B481B151F8043C92
:1026B0000439002BB8BFC9181D4B1A682AB18A42C9
:1026C0000AD908680C18A24225D04A60196030BCAB
:1026D00070478B4203D81A465368002BF9D114680F
:1026E00015198D420CD007D808680C189C4218D0D8
:1026F0004B6030BC516070470C23036030BC7047A6
:1027000009680C44111999421460E0D10ACB0C44B9
:1027100053601460DBE7146852684A602044086024
:10272000D4E71C685B684B60204408605160CEE7CA
:102730000401002070B5CD1C25F0030508350C2DD3
:1027400038BF0C25002D06463BDBA94239D8274966
:102750000A6852B113685B1B04D436E023685B1B24
:102760001AD522465468002CF8D149681F4C00291C
:1027700036D02946304600F05FF8431C21D0C41CF7
:1027800024F00304A04205D0211A304600F054F88A
:10279000013016D0256004E00B2B0DD923601C44BA
:1027A000256004F10B0020F00700231DC31A02D09E
:1027B0005A42E25070BD70BD94420ED063685360BF
:1027C000EFE70C233360002070BD0B2B03D8536858
:1027D00014460B60E5E71446E0E713461446F8E7B5
:1027E000304600F029F86060C3E700BF0401002014
:1027F000F9B1F8B506461546B2B10C4600F02EF810
:10280000854201D82046F8BD29463046FFF792FFA1
:10281000074668B12A462146FFF74EF93046214661
:10282000FFF742FF3846F8BDFFF73EFF2846F8BDE8
:10283000F8BD1146FFF77EBF38B5074C00230546AB
:1028400008462360FEF78EFE431C00D038BD236887
:10285000002BFBD02B6038BD1001002051F8040C78
:102860000028BEBF091851F8043CC018043870474E
:102870002E2E2F73797374656D2F7372632F73749B
:102880006D333266342D68616C2F73746D3332662C
:102890003478785F68616C5F636F727465782E63FB
:1028A000000000002E2E2F73797374656D2F7372E4
:1028B000632F73746D333266342D68616C2F7374BB
:1028C0006D3332663478785F68616C5F6770696F0A
:1028D0002E6300002E2E2F73797374656D2F737223
:1028E000632F73746D333266342D68616C2F73748B
:1028F0006D3332663478785F68616C5F6932632E5D
:102900006300000000000000010203040102030450
:10291000060708092E2E2F73797374656D2F737255
:10292000632F73746D333266342D68616C2F73744A
:102930006D3332663478785F68616C5F7263632EE2
:10294000630000002E2E2F73797374656D2F7372E0
:10295000632F73746D333266342D68616C2F73741A
:102960006D3332663478785F68616C5F757361725D
:10297000742E630061626F727428292C2065786957
:1029800074696E672E2E2E002C2066756E63746936
:102990006F6E3A2000000000617373657274696F96
:1029A0006E2022257322206661696C65643A206678
:1029B000696C6520222573222C206C696E652025A8
:1029C00064257325730A00006173736572745F7008
:1029D0006172616D2829206661696C65643A2066C0
:1029E000696C6520222573222C206C696E65202578
:1029F000640A00006D61696E28617267633D256439
:102A00002C20617267763D5B000000002C200000E6
:102A100022257322000000005D293B0A000000000F
:102A2000537461636B206672616D653A0A00000041
:102A3000205230203D2020253038580A0000000068
:102A4000205231203D2020253038580A0000000057
:102A5000205232203D2020253038580A0000000046
:102A6000205233203D2020253038580A0000000035
:102A700020523132203D20253038580A0000000015
:102A8000204C52203D2020253038580A00000000FC
:102A9000205043203D2020253038580A00000000F7
:102AA00020505352203D20253038580A00000000A5
:102AB0004653522F4641523A0A00000020434653E3
:102AC00052203D2020253038580A00002048465327
:102AD00052203D2020253038580A0000204446531B
:102AE00052203D2020253038580A0000204146530E
:102AF00052203D2020253038580A0000204D4D46F8
:102B00004152203D20253038580A000020424641DD
:102B100052203D2020253038580A00004D6973634B
:102B20000A000000204C522F4558435F524554552F
:102B3000524E3D20253038580A0000005B48617233
:102B4000644661756C745D0A000000005B42757339
:102B50004661756C745D0A005B557361676546611B
:102B6000756C745D0A0000000000000000000000A9
:102B7000010203040607080943000000232D302B3F
:102B800020000000686C4C00656667454647000001
:102B90003031323334353637383941424344454693
:102BA0000000000030313233343536373839616255
:082BB00063646566000000008B
:102BB8007856341280000020000000000024F40041
:102BC80014000020000000000000000000000000C9
:102BD80000000000000000000000000000000000ED
:102BE80000000000782B0008000000000000000032
:102BF80000000000000000000000000000000000CD
:102C080000000000000000000000000000000000BC
:102C180000000000000000000000000000000000AC
:082C2800000000003254769810
:040000050800018965
:00000001FF
