:020000040800F2
:1000000000000220B9020008C1020008C502000871
:10001000390300083D0300088503000800000000C4
:10002000000000000000000000000000F11B0008BC
:10003000D103000800000000D11C0008351D000895
:10004000E9030008E9030008E9030008E9030008E0
:10005000E9030008E9030008E9030008E9030008D0
:10006000E9030008E9030008E9030008E9030008C0
:10007000E9030008E9030008E9030008E9030008B0
:10008000E9030008E9030008E9030008E9030008A0
:10009000E9030008E9030008E9030008E903000890
:1000A000E9030008E9030008E9030008E903000880
:1000B000E9030008E9030008E9030008E903000870
:1000C000E9030008E9030008E9030008E903000860
:1000D000E9030008E9030008E9030008E903000850
:1000E000E9030008E9030008E9030008E903000840
:1000F000E9030008E9030008E9030008E903000830
:10010000E9030008E9030008E9030008E90300081F
:10011000E9030008E903000825190008E9030008BD
:10012000E9030008E9030008E9030008E9030008FF
:10013000E90300080000000000000000E9030008D7
:10014000E9030008E9030008E9030008E9030008DF
:10015000E9030008E9030008E9030008E9030008CF
:10016000E9030008E9030008E9030008E9030008BF
:10017000E9030008E9030008000000000000000097
:10018000E9030008E903000800B583B001F070FA44
:10019000384B394A1360394A136039490CE00A6810
:1001A0004B6801F10C04886803E01168196004339E
:1001B00004329842F9D82146324B9942EFD32E4B64
:1001C0001A68314B9A4204D12C4B1A682F4B9A4231
:1001D00000D0FEE7274B2E4A13602E4A13602E4BA9
:1001E0000AE0194651F8082B5B6802E00020106015
:1001F00004329A42FAD30B46284A9342F1D3244B55
:100200001B6813B9234B1B6803B1FEE701F0E0FB49
:10021000694601A801F0A2F9214C224B1C1BA41035
:10022000002504E01E4B53F8253098470135AC42B9
:10023000F8DC1D4C1D4B1C1BA410002504E01A4BC0
:1002400053F8253098470135AC42F8DC0099019805
:1002500001F0EEFB0546164C164B1C1BA41004E0E7
:10026000013C134B53F824309847002CF8DC284607
:1002700001F046F9BABADECA00000020780000207A
:10028000EC030008040400087856341232547698BF
:100290007C0000205C0F0020040400081404000807
:1002A00014040008140400081404000814040008CE
:1002B000140400081404000808B5FFF765FF00BF28
:1002C00000BEFEE71EF0040F0CBFEFF30880EFF353
:1002D00009807146414A10472DE9F04182B0044639
:1002E0008846134B5E6B9F6B9D6A1B6B13F0020F6E
:1002F0000DD00F4BDB6A002B09DA4BF6AB6101F036
:1003000041FA20B14FF00042094BDA620CE0094893
:1003100001F050F9CDF800803B4632462946204690
:1003200001F0B8F900BEFEE702B0BDE8F08100BF01
:1003300000ED00E08C38000800BEFEE71EF0040F60
:100340000CBFEFF30880EFF309807146244A104791
:100350002DE9F04182B004468846084B5E6B9F6BE6
:100360009D6A074801F026F9CDF800803B463246E9
:100370002946204601F08EF900BEFEE700ED00E0C0
:100380009C3800081EF0040F0CBFEFF30880EFF359
:1003900009807146134A10472DE9F04182B00446A6
:1003A0008846084B5E6B9F6B9D6A074801F002F917
:1003B000CDF800803B4632462946204601F06AF9D6
:1003C00000BEFEE700ED00E0A838000800BEFEE732
:1003D00000BEFEE700BEFEE770470000D90200083D
:0C03E000510300089903000800BEFEE76E
:1003EC00AC3E0008000000207C000020AC3E000861
:1003FC0000000010000000107C000020600F0020A6
:08040C000000001000000010C8
:1004400008B50B4B1A6842F400721A601A6842F43D
:1004500080621A601A6842F480721A60032000F009
:1004600017F80F2001F016FA01F012FA002008BD6B
:10047000003C0240024A136801331360704700BF1A
:10048000D00C0020014B1868704700BFD00C002032
:1004900010B50446C31E042B03D9A421094801F05A
:1004A0007FF8094AD36823F4E0631B041B0C240281
:1004B00004F4E064234343F0BF6343F40033D360A8
:1004C00010BD00BFF035000800ED00E070B5044637
:1004D0000E4615460F2A03D9BC211A4801F060F8D0
:1004E0000F2E03D9BD21174801F05AF8164BDA68D0
:1004F000C2F30222C2F10701042928BF0421131DFF
:10050000062B01D9033A00E00022012303FA01F18E
:1005100001393140914003FA02F2013A2A400A437C
:10052000002C06DA04F00F041201D2B2074B1A5560
:1005300070BD1201D2B204F1604404F5614484F844
:10054000002370BDF035000800ED00E014ED00E080
:1005500010B5041E03DAD021064801F021F8620923
:1005600004F01F04012303FA04F4034B43F8224070
:1005700010BD00BFF035000800E100E00138B0F127
:10058000807F0AD2064B5860F021064A82F8231079
:100590000020986007221A6070470120704700BF52
:1005A00010E000E000ED00E010B50446042805D09E
:1005B00020B140F2B311084800F0F2FF042C05D13D
:1005C000064A136843F00403136010BD034A13681E
:1005D00023F00403136010BDF035000810E000E0C4
:1005E0002DE9F04782B080460F46A14B984223D0B8
:1005F00003F5806398421FD003F5806398421BD0B7
:1006000003F58063984217D003F58063984213D0B6
:1006100003F5806398420FD003F5806398420BD0B6
:1006200003F58063984207D003F58063984203D0B6
:10063000C521904800F0B4FF3B881BB9C6218D4806
:1006400000F0AEFF7B68012B22D9112B20D0022BAA
:100650001ED0122B1CD0884A934219D002F580126A
:10066000934215D002F58012934211D0A2F5F812F0
:1006700093420DD002F58012934209D002F5801208
:10068000934205D0032B03D0C7217A4800F088FF9E
:10069000BB68022B03D9C821764800F081FF0025F2
:1006A00026E10124AC403E682640B44240F01F8160
:1006B0007B68022B01D0122B45D13B699BB3092BE0
:1006C00031D083B37BB373B36BB3012B2BD02AD060
:1006D000022B28D027D026D0032B24D0042B22D0C5
:1006E00021D020D0052B1ED01DD0092B1BD0062BCE
:1006F00019D0092B17D0072B15D014D013D0082BE5
:1007000011D010D00FD0092B0DD00CD00A2B0AD04D
:1007100009D00C2B07D006D005D00F2B03D0D92140
:10072000544800F03DFFEA08083258F8220005F06E
:10073000070399000F238B4020EA03003B698B409D
:10074000034348F82230D8F800304FEA450A4FF00A
:10075000030909FA0AF96FEA090903EA09027B6841
:1007600003F0030303FA0AF31343C8F800307B686D
:100770005A1E012A03D9112B01D0122B1BD1FB6861
:10078000032B03D9EC213B4800F00AFFD8F80830CE
:1007900009EA0302FB6803FA0AF31343C8F80830B6
:1007A000D8F8043023EA04047B68C3F30013AB4099
:1007B0001C43C8F80440D8F80C3009EA0309BB68A8
:1007C00003FA0AF349EA0303C8F80C307B6813F014
:1007D000805F00F08C8000230193284B5A6C42F418
:1007E00080425A645B6C03F480430193019BA90827
:1007F0008A1C234B53F8220005F003039B000F22B1
:100800009A4020EA02001A4A904521D002F58062FF
:1008100090451FD002F5806290451DD002F58062A0
:1008200090451BD002F58062904519D002F5806298
:10083000904517D002F58062904515D002F5806290
:10084000904513D002F5806290451BD108221AE032
:10085000002218E0012216E0022214E0032212E036
:10086000042210E005220EE006220CE007220AE036
:100870000000024024360008000011100038024039
:1008800000380140092202FA03F3034302311B4AF4
:1008900042F821301A4B1A68F34302EA03017868E0
:1008A00010F4803F01D046EA0201154A11605268F7
:1008B00003EA0201786810F4003F01D046EA020121
:1008C0000F4A5160926803EA0201786810F4801FB1
:1008D00001D046EA02010A4A9160D2681340796861
:1008E00011F4001F01D046EA0203054AD360013526
:1008F0000F2D7FF6D6AE02B0BDE8F087003801407C
:10090000003C014030B583B0044603680F2B03D987
:10091000F5219C4800F044FE236813F0010F45D0F8
:100920006368012B05D9052B03D0FA21954800F007
:1009300037FE954B9B6803F00C03042B0AD0924BB7
:100940009B6803F00C03082B0CD18F4B5B6813F4EE
:10095000800F07D08C4B1B6813F4003F26D06368D0
:1009600023BBCCE12279894B1A7063687BB1FFF716
:1009700089FD054605E0FFF785FD401B642800F270
:10098000C081814B1B6813F4003FF4D00EE0FFF7E9
:1009900079FD054605E0FFF775FD401B642800F270
:1009A000B281794B1B6813F4003FF4D1236813F034
:1009B000020F6AD0E368012B04D94FF49671714895
:1009C00000F0EEFD23691F2B04D940F22D116D4874
:1009D00000F0E6FD6C4B9B6813F00C0F0AD06A4BDD
:1009E0009B6803F00C03082B1BD1674B5B6813F467
:1009F000800F16D1644B1B6813F0020F03D0E3681D
:100A0000012B40F082816048036823F0F8012369DC
:100A1000F82292FAA2F2B2FA82F293400B430360F8
:100A200033E0E368FBB10122594B1A60FFF72AFD5E
:100A3000054605E0FFF726FD401B022800F267810E
:100A4000514B1B6813F0020FF4D04F48036823F09A
:100A5000F8012369F82292FAA2F2B2FA82F29340E4
:100A60000B43036011E00022494B1A60FFF70AFDB7
:100A7000054605E0FFF706FD401B022800F249810C
:100A8000414B1B6813F0020FF4D1236813F0080FD9
:100A90002ED06369012B04D940F26D11394800F062
:100AA0007FFD636993B101223A4B1A60FFF7EAFCBC
:100AB000054605E0FFF7E6FC401B022800F22B810B
:100AC000314B5B6F13F0020FF4D011E00022314B79
:100AD0001A60FFF7D7FC054605E0FFF7D3FC401B83
:100AE000022800F21A81284B5B6F13F0020FF4D139
:100AF000236813F0040F60D0A368012B06D9052BDF
:100B000004D040F297111F4800F04AFD00230193E2
:100B10001D4B1A6C42F080521A641B6C03F0805318
:100B20000193019B1C4A136843F480731360FFF721
:100B3000A9FC054605E0FFF7A5FC401B022800F2D2
:100B4000EE80154B1B6813F4807FF4D0227A134B90
:100B50001A70A3688BB1FFF795FC054607E0FFF715
:100B600091FC401B41F28833984200F2DA80064B38
:100B70001B6F13F0020FF2D01FE0FFF783FC054656
:100B800016E000BF64360008003802400238024018
:100B900000004742800E474200700040703802401B
:100BA000FFF770FC401B41F28833984200F2BB8093
:100BB000634B1B6F13F0020FF2D1A369022B04D910
:100BC0004FF4E6715F4800F0EBFCA369002B00F0E6
:100BD000AC805B4A926802F00C02082A00F0A78001
:100BE000022B79D1E3693BB1B3F5800F04D040F219
:100BF000D511544800F0D4FC236A3F2B04D94FF49C
:100C0000EB71504800F0CCFC636A323BB3F5BF7F18
:100C100004D940F2D7114B4800F0C2FCA36A022B62
:100C20000AD0042B08D0062B06D0082B04D04FF492
:100C3000EC71444800F0B4FCE36A043B0B2B04D98C
:100C400040F2D9113F4800F0ABFC00223E4B1A6045
:100C5000FFF718FC054604E0FFF714FC401B0228D0
:100C600067D8374B1B6813F0007FF5D1E169236A21
:100C70001943636A47F6C07292FAA2F2B2FA82F29C
:100C800093401943A36A5B085A1E4FF4403393FA0A
:100C9000A3F3B3FA83F302FA03F30B43E26A4FF0D0
:100CA000706191FAA1F1B1FA81F18A401343244AAB
:100CB00053600122244B1A60FFF7E4FB044604E072
:100CC000FFF7E0FB001B022835D81D4B1B6813F013
:100CD000007FF5D0002031E000221B4B1A60FFF7A7
:100CE000D1FB044604E0FFF7CDFB001B022824D80B
:100CF000134B1B6813F0007FF5D100201EE001208C
:100D00001CE003201AE0032018E0012016E0032075
:100D100014E0032012E0032010E003200EE0032083
:100D20000CE003200AE0032008E0002006E0012098
:100D300004E0032002E0032000E0032003B030BD04
:100D4000003802406436000860004742254B9B682B
:100D500003F00C03042B3FD0082B01D0224870472E
:100D600010B4204B586800F03F005B6813F4800F0C
:100D700010D01E4BB3FBF0F01A4B5A6847F6C07107
:100D80000A4091FAA1F3B3FA83F322FA03F303FBC7
:100D900000F310E0144BB3FBF0F0124B5A6847F627
:100DA000C07402EA040194FAA4F2B2FA82F221FABF
:100DB00002F202FB00F30B4A506800F440324FF499
:100DC000403090FAA0F0B0FA80F022FA00F0013042
:100DD0004000B3FBF0F001E0044870475DF8044BBD
:100DE000704700BF003802400024F40000127A006F
:100DF00070B504460D460368013B0E2B04D940F242
:100E000037218F4800F0CCFB072D04D94FF40E7129
:100E10008B4800F0C5FB8B4B1B6803F00F039D4212
:100E200008D9EBB2874A1370136803F00F039D4291
:100E300040F0F480236813F0020F1DD0A368A3B123
:100E4000802B12D0902B10D0A02B0ED0B02B0CD01A
:100E5000C02B0AD0D02B08D0E02B06D0F02B04D02A
:100E600040F24F21764800F09BFB77498B6823F0D6
:100E7000F002A36813438B60236813F0010F6BD05B
:100E80006368032B04D940F256216D4800F088FBBB
:100E90006268012A05D16C4B1B6813F4003F0FD127
:100EA000BEE0931E012B05D8674B1B6813F0007F33
:100EB00006D1B7E0644B1B6813F0020F00F0B4805A
:100EC00061498B6823F0030313438B60FFF7DAFA61
:100ED00006466368012B0FD107E0FFF7D3FA801BAA
:100EE00041F28833984200F2A180574B9B6803F08F
:100EF0000C03042BF1D12FE0022B0FD107E0FFF7F9
:100F0000C1FA801B41F28833984200F291804E4B27
:100F10009B6803F00C03082BF1D11DE0032B16D1C5
:100F200007E0FFF7AFFA801B41F28833984200F2E6
:100F30008180454B9B6803F00C030C2BF1D10BE037
:100F4000FFF7A0FA801B41F28833984274D83E4BD9
:100F50009B6813F00C0FF3D13A4B1B6803F00F039F
:100F60009D4207D2EAB2374B1A701B6803F00F0399
:100F70009D4263D1236813F0040F19D0E36883B155
:100F8000B3F5805F0DD0B3F5A05F0AD0B3F5C05FB5
:100F900007D0B3F5E05F04D04FF42D71284800F07E
:100FA000FFFA29498B6823F4E052E36813438B600E
:100FB000236813F0080F1AD0236983B1B3F5805F5B
:100FC0000DD0B3F5A05F0AD0B3F5C05F07D0B3F57D
:100FD000E05F04D040F2BB21194800F0E1FA1A4A60
:100FE000936823F46043216943EAC1039360FFF7E8
:100FF000ADFE154B9B6803F0F002F02393FAA3F3C8
:10100000B3FA83F322FA03F3104AD35CD840104BAF
:1010100018600F2000F03EFC002070BD012070BD64
:10102000012070BD012070BD012070BD032070BD86
:10103000032070BD032070BD032070BD012070BD72
:1010400064360008003C0240003802405436000874
:101050000C000020014B1868704700BF0C000020F6
:1010600008B5FFF7F7FF084B9B6803F4E0524FF415
:10107000E05393FAA3F3B3FA83F322FA03F3034A98
:10108000D35CD84008BD00BF003802405436000889
:101090000F2303600B4B9A6802F0030242609A68C8
:1010A00002F0F00282609A6802F4E052C2609B682B
:1010B000DB0803F4E0530361034B1B6803F00F03E9
:1010C0000B60704700380240003C0240704700BF90
:1010D00010B504460368234A934237D0B3F1804FDA
:1010E00034D0A2F57C42934230D002F58062934224
:1010F0002CD002F58062934228D002F580629342A0
:1011000024D002F58062934220D002F570429342CF
:101110001CD002F57052934218D002F580629342BF
:1011200014D002F58062934210D0A2F59832934217
:101130000CD002F58062934208D002F5806293429F
:1011400004D04FF4B271084800F02AFA2268D3683C
:1011500043F00103D3602268136843F00103136076
:10116000002010BD0000014094360008704700BF09
:10117000704700BF704700BF704700BF10B50446FE
:1011800003681A6912F0020F17D0DA6812F0020F22
:1011900013D06FF002021A610123037603689B6982
:1011A00013F0030F02D0FFF7E3FF04E0FFF7DEFFC9
:1011B0002046FFF7DFFF0023237623681A6912F029
:1011C000040F19D0DA6812F0040F15D06FF0040282
:1011D0001A610223237623689B6913F4407F03D0AE
:1011E0002046FFF7C5FF05E02046FFF7BFFF20467A
:1011F000FFF7C0FF0023237623681A6912F0080F57
:1012000019D0DA6812F0080F15D06FF008021A61D1
:10121000042323762368DB6913F0030F03D02046F1
:10122000FFF7A6FF05E02046FFF7A0FF2046FFF7E7
:10123000A1FF0023237623681A6912F0100F19D03A
:10124000DA6812F0100F15D06FF010021A6108233F
:1012500023762368DB6913F4407F03D02046FFF731
:1012600087FF05E02046FFF781FF2046FFF782FF5A
:101270000023237623681A6912F0010F09D0DA6877
:1012800012F0010F05D06FF001021A61204600F044
:1012900045FB23681A6912F0800F09D0DA6812F052
:1012A000800F05D06FF080021A61204600F026F909
:1012B00023681A6912F0400F09D0DA6812F0400F63
:1012C00005D06FF040021A612046FFF755FF2368F2
:1012D0001A6912F0200F09D0DA6812F0200F05D039
:1012E0006FF020021A61204600F006F910BD00BF21
:1012F0000368454A904214D0B0F1804F13D0A2F554
:101300007C42904211D002F5806290420FD002F5EB
:10131000806290420DD002F5784290420BD10122BA
:101320000AE0012208E0012206E0012204E0012295
:1013300002E0012200E000221AB123F070034A68A3
:101340001343314A90422CD0B0F1804F2BD0A2F5FC
:101350007C42904229D002F58062904227D002F56B
:101360008062904225D002F57842904223D002F567
:101370007052904221D002F5806290421FD002F557
:10138000806290421DD0A2F5983290421BD002F5A7
:101390008062904219D002F58062904217D10122FA
:1013A00016E0012214E0012212E0012210E00122E5
:1013B0000EE001220CE001220AE0012208E00122F5
:1013C00006E0012204E0012202E0012200E0002206
:1013D0001AB123F44073CA68134303608B68C36275
:1013E0000B688362084B984205D003F580639842EE
:1013F00003D1012302E0012300E000230BB10B69BC
:1014000003630123436170470000014000286DD051
:1014100010B504460368364A934236D0B3F1804F84
:1014200033D0A2F57C4293422FD002F580629342E2
:101430002BD002F58062934227D002F5806293425E
:1014400023D002F5806293421FD002F5704293428E
:101450001BD002F57052934217D002F5806293427E
:1014600013D002F5806293420FD0A2F598329342D6
:101470000BD002F58062934207D002F5806293425E
:1014800003D0D9211B4800F08BF8A3685BB1102B67
:1014900009D0202B07D0402B05D0602B03D0DA21B8
:1014A000144800F07DF823694BB1B3F5807F06D076
:1014B000B3F5007F03D0DB210E4800F071F894F8FB
:1014C000393013F0FF0F05D1002384F8383020465F
:1014D000FFF7FCFD022384F83930211D2068FFF757
:1014E00007FF012384F83930002010BD0120704728
:1014F0000000014094360008704700BF704700BFED
:10150000FEE700BF08B5034800F06CF80120FFF7C4
:10151000F7FF00BFC436000808B50D4B1B6813B9B0
:101520000C4A0B4B1A600A4B1A68C31C23F00303C6
:10153000134409498B4206D901F020F90C230360BA
:101540004FF0FF3008BD02490B60104608BD00BFD8
:1015500080000020600F002000FC012001230360B8
:10156000014B0B60704700BF0400002000B583B042
:101570000C46194613460AB1064A00E0064A03B96A
:10158000054B0193009223460246044800F012F8EE
:10159000FFF7B8FFD83600086C370008E8360008B7
:1015A00008B50A460146024800F004F8FFF7AAFF12
:1015B000183700080FB400B583B004AB53F8042B00
:1015C00001938021064801F083FA002803DD0146DB
:1015D000034800F049F803B05DF804EB04B070472D
:1015E0008800002010B5044601F0CAF901462046E3
:1015F00000F03AF80121024800F036F810BD00BFB3
:10160000083800082DE9F04385B004460F464356DC
:1016100013BB042528462146ABBE04461FE03546D1
:10162000102E28BF1025002306E014F9011B04AA80
:101630001A4402F8101C0133AB42F6D304AA134437
:10164000002203F8102CE9464FF0040840464946B2
:10165000ABBE8046761B00E00E46002EDFD138463A
:1016600005B0BDE8F08300BF08B5FFF7CBFF08BDAC
:1016700008B500F097F8054B054A9A60D3F8882022
:1016800042F47002C3F8882008BD00BF00ED00E0FE
:1016900000000008F8B504460D4617461E462648C9
:1016A000FFF788FF21682548FFF784FF6168244819
:1016B000FFF780FFA1682348FFF77CFFE16822481D
:1016C000FFF778FF21692148FFF774FF616920481F
:1016D000FFF770FFA1691F48FFF76CFFE1691E4823
:1016E000FFF768FF1D48FFF765FF29461C48FFF715
:1016F00061FF1C4CE16A1C48FFF75CFF216B1B4833
:10170000FFF758FFE16B1A48FFF754FF15F0800F01
:1017100003D039461748FFF74DFF15F4004F03D0AB
:1017200031461548FFF746FF1448FFF743FF069977
:101730001348FFF73FFFF8BD7037000880370008F7
:1017400090370008A0370008B0370008C0370008FD
:10175000D0370008E0370008F037000800380008EC
:101760000C38000800ED00E01C3800082C38000898
:101770003C3800084C3800085C3800086C38000819
:101780007438000883691A888A4207D10268033ACC
:10179000012A05D802338361012070470020704779
:1017A000002070470F49D1F8883043F47003C1F826
:1017B00088300D4B1A6842F001021A6000209860D0
:1017C0001A6822F0847222F480321A60074A5A6042
:1017D0001A6822F480221A60D8604FF000638B6090
:1017E000704700BF00ED00E00038024010300024D8
:1017F000224B9B6803F00C03042B07D0082B09D065
:10180000002B2DD11E4A1F4B1A602CE01E4A1D4B87
:101810001A6028E0194B5A685B6803F03F0312F422
:10182000800F09D0184AB2FBF3F2144B5B68C3F384
:10183000881303FB02F208E0114AB2FBF3F30F4AEC
:101840005168C1F3881101FB03F20C4B5B68C3F3D1
:10185000014301335B00B2FBF3F30A4A136002E079
:10186000074A084B1A60054B9B68C3F30313074AEA
:10187000D15C044A1368CB401360704700380240C3
:101880000024F4000C00002000127A00B838000890
:10189000704700BF00B589B0002201463620FEF730
:1018A00015FE3620FEF754FE00230193174B1A6CE9
:1018B00042F010021A641B6C03F010030193019BA9
:1018C00002A903A8FFF7E4FB069B13B9FFF7C8FBC7
:1018D00002E0FFF7C5FB40000D4BA3FB00239B0C70
:1018E000013B0C480C4A026040F2E732C2604360A0
:1018F000002303618360FFF789FD18B90548FFF7EE
:10190000E7FB00E0012009B05DF804FB003802406D
:1019100083DE1B43D80C00200010004008B5FEF702
:10192000A9FD08BD08B50248FFF728FC08BD00BFA7
:10193000D80C002030B595B000240194214B1A6CCE
:1019400042F080521A641B6C03F080530193019B98
:1019500002941D4B1A6842F480421A601B6803F41B
:1019600080430293029B0123089309934FF4800361
:101970000F93082310934FF4A87311930225129527
:10198000072313930E9508A8FEF7BCFF0F230393BC
:10199000049505944FF4A05306934FF48053079396
:1019A000052103A8FFF724FAFFF754FB074BA3FB1D
:1019B00000308009FEF7E2FD0420FEF7F5FD15B0CA
:1019C00030BD00BF0038024000700040D34D6210AF
:1019D00008B5FEF735FDFFF7ADFFFFF709FF08BDBE
:1019E00000B587B0002300930F4A116B41F004014A
:1019F0001163126B02F004020092009A02934FF4FA
:101A00008052019203930223049301A90748FEF731
:101A1000E7FD019B43F480530193FA2000F004FE9C
:101A20004FF0FF330193F4E7003802400008024012
:101A300000B585B0FEF704FD12220021284800F011
:101A40003DFF04220021274800F038FF102200212A
:101A5000254800F033FF24220021244800F02EFF07
:101A60004C220021224800F029FF0C2200212148AD
:101A700000F024FF082200211F4800F01FFF102261
:101A800000211E4800F01AFF2C2200211C4800F003
:101A900015FF4C2200211B4800F010FF10220021EE
:101AA000194800F00BFF08220021184800F006FF3B
:101AB00004220021164800F001FF164B0293164B3A
:101AC00001930123009300234FF40072134914483B
:101AD00000F0DEFB00F038FC002005B05DF804FBF0
:101AE000BC0E0020F40E0020600E0020D00E00205E
:101AF000700E0020AC0D0020580E00209C0D002020
:101B0000140D00200C0E0020400D0020940D00202C
:101B1000F80E00200809002008010020C83800083D
:101B2000E119000808480068006880F308884FF051
:101B3000000080F3148862B661B6BFF34F8FBFF325
:101B40006F8F00DF00BF000008ED00E0DFF80C0041
:101B5000016841F4700101607047000088ED00E009
:101B600000B583B000230193124B1B68B3F1FF3F14
:101B700012D04FF0500383F31188BFF36F8FBFF380
:101B80004F8F0C4B1B68B3F1FF3F05D00A4B0B4A3C
:101B9000E4210B48FFF7EAFC4FF0500383F3118870
:101BA000BFF36F8FBFF34F8F019B002BFCD003B0AF
:101BB0005DF804FB10000020F8380008D038000859
:101BC000143900084FF0807340F8043C21F0010103
:101BD00040F8081C054B40F80C3C40F8202C6FF0F6
:101BE000020340F8243C4438704700BF611B0008E2
:101BF000074B19680868B0E8F04F80F30988BFF315
:101C00006F8F4FF0000080F311887047AFF30080B2
:101C1000D40B002008B54FF0500383F31188BFF3B5
:101C20006F8FBFF34F8F104A136801331360012B7E
:101C300018D10E4B1B6813F0FF0F13D04FF0500359
:101C400083F31188BFF36F8FBFF34F8F074B1B6870
:101C500013F0FF0F06D0064B064A4FF4D07106482A
:101C6000FFF784FC08BD00BF1000002004ED00E079
:101C70005C390008F43A00081439000808B50E4B26
:101C80001B688BB94FF0500383F31188BFF36F8F3C
:101C9000BFF34F8F084B1B6833B9084B084A40F21B
:101CA000A7110848FFF762FC034A1368013B136061
:101CB0000BB983F3118808BD10000020A03900087B
:101CC000083B000814390008000000000000000074
:101CD000EFF30980BFF36F8F154B1A681EF0100FDA
:101CE00008BF20ED108A20E9F04F10602DE90900AF
:101CF0004FF0500080F31188BFF34F8FBFF36F8F09
:101D000000F0C8FC4FF0000080F3118809BC19688E
:101D10000868B0E8F04F1EF0100F08BFB0EC108A52
:101D200080F30988BFF36F8F704700BFAFF3008067
:101D3000D40B002008B54FF0500383F31188BFF394
:101D40006F8FBFF34F8F00F041FB18B14FF08052FF
:101D5000024B1A60002383F3118808BD04ED00E0F4
:101D6000084A0023136008490B60084B1B680849A8
:101D7000A1FB03139B09013B06490B60072313607A
:101D8000704700BF10E000E018E000E00C00002009
:101D9000D34D621014E000E010B582B0494B1A68D0
:101DA000494B9A4213D14FF0500383F31188BFF38C
:101DB0006F8FBFF34F8F434B1A68434B9A4206D144
:101DC000424B434A40F229114248FFF7CFFB3D4BBB
:101DD0001A68414B9A4213D14FF0500383F3118894
:101DE000BFF36F8FBFF34F8F364B1A683A4B9A424F
:101DF00006D13A4B364A4FF495713648FFF7B6FB99
:101E0000374B1A78D2B20192FF221A701B78DBB2DC
:101E10008DF803309DF8033003F05003314A1370FE
:101E20000722314B1A6009E02F4A1368013B136007
:101E30009DF803305B00DBB28DF803309DF8033072
:101E400013F0800FF0D1284B1B68032B12D04FF0FA
:101E5000500383F31188BFF36F8FBFF34F8F224B73
:101E60001B68032B06D0214B194A40F25B1119481D
:101E7000FFF77CFB1C4A13681B0203F4E06313604A
:101E8000019BDBB2164A1370194B1A6842F47002B8
:101E90001A601A6842F070421A60FFF761FF00246E
:101EA000144B1C60FFF752FE134A136843F0404383
:101EB0001360FFF737FE00F0EDFBFFF751FE204601
:101EC00002B010BD00ED00E071C20F41B43900084E
:101ED000E43800081439000870C20F41F8390008CE
:101EE00000E400E060090020640900203C3A00089A
:101EF00020ED00E01000002034EF00E008B50248BB
:101F0000FFF758FBFFF7FEFA1C3B0008034B03608A
:101F1000034B0B6082231360704700BF700B0020DF
:101F20006809002000F1080343604FF0FF3282602F
:101F3000C360036100230360704700BF0023036197
:101F4000704700BF43684B609A688A609A68516026
:101F500099600861036801330360704730B40D680D
:101F6000B5F1FF3F01D1026907E000F1080200E08E
:101F70001A4653681C68A542FAD253684B609960B0
:101F80008A605160086103680133036030BC7047A8
:101F900003694268816891608268416851605A684B
:101FA000904201D182685A60002202611A68013AA7
:101FB0001A601868704700BF0A4B1B681B680BB992
:101FC000012300E0002323B14FF0FF32064B1A60DB
:101FD0007047044B1B68DB68DB685A68024B1A6069
:101FE000704700BFCC0B0020F40B00202DE9F04718
:101FF00081460D4617469A46089EDDF824800A9CC5
:102000009200A521206B00F059FC236B07F1804260
:10201000013A03EB820727F00707002306E0E956A1
:10202000E21882F83410EA5612B10133092BF6D9BE
:10203000002384F83D30042E00D90426E662A6640D
:102040000025E564201DFFF779FF04F11800FFF774
:1020500075FF2461C6F10506A6616462256584F8F2
:102060005450524649463846FFF7ACFD2060B8F15F
:10207000000F01D0C8F80040BDE8F08738B5002453
:1020800007E004EB840293000E481844FFF74AFF70
:102090000134042CF5D90C4D2846FFF743FF0B4CB7
:1020A0002046FFF73FFF0A48FFF73CFF0948FFF7CC
:1020B00039FF0948FFF736FF084B1D60084B1C60CD
:1020C00038BD00BF200C00208C0C0020A00C00208C
:1020D000040C0020DC0B0020B40C0020CC0B0020F2
:1020E000180C002010B50446FFF794FD214A136830
:1020F00001331360204B1B683BB91F4B1C601368F6
:10210000012B0DD1FFF7BAFF0AE01C4B1B683BB94E
:10211000194B1B68DA6AE36A9A4201D8164B1C60B5
:10212000174A1368013313602364E36A012202FA39
:1021300003F1144802680A43026003EB83039A0028
:10214000211D11481044FFF7FDFEFFF797FD0B4BD3
:102150001B686BB1084B1B68DA6AE36A9A4207D2C4
:102160004FF08052094B1A60BFF34F8FBFF36F8F50
:1021700010BD00BFD00B0020D40B0020F00B0020BE
:10218000FC0B0020000C0020200C002004ED00E0DF
:1021900008B511E0FFF73EFD0A4BDB68D868043054
:1021A000FFF7F6FE084A1368013B1360074A1368FD
:1021B000013B1360FFF762FD044B1B68002BE9D164
:1021C00008BD00BFDC0B0020D00B0020D80B002086
:1021D00008B5FFF7DDFF064B1B68012BF9D94FF05F
:1021E0008052044B1A60BFF34F8FBFF36F8FF0E73D
:1021F000200C002004ED00E070B504460E461D4B97
:102200001D681D4B18680430FFF7C2FE50B91A4B09
:102210001B68DA6A012303FA02F218490B6823EA01
:1022200002030B60B4F1FF3F07D136B1124B1968BE
:1022300004311348FFF786FE70BD2C440E4B1B681B
:102240005C60A54207D90F4B18680B4B1968043125
:10225000FFF784FE70BD0C4B1868074B19680431FA
:10226000FFF77CFE094B1B689C4201D2074B1C60A8
:1022700070BD00BFC80B0020D40B0020000C002054
:10228000B40C0020180C0020CC0B0020F40B002014
:1022900070B586B00B9D0C9C7DB94FF0500686F34F
:1022A0001188BFF36F8FBFF34F8F35B9214B224A8F
:1022B0004FF414712148FFF759F97CB94FF05006DB
:1022C00086F31188BFF36F8FBFF34F8F34B91C4B68
:1022D000194A40F251211948FFF748F95826049647
:1022E000049E582E11D04FF0500686F31188BFF38C
:1022F0006F8FBFF34F8F049E582E06D0114B0E4A9E
:1023000040F259210D48FFF731F974B16DB12563E1
:1023100000250395029405AD01950A9D0095FFF7F0
:1023200065FE2046FFF7DEFE01E0002305930598D9
:1023300006B070BDA83B0008683B0008943B00084D
:10234000C83B0008E43B000810B588B000240594A1
:10235000069407AA06A905A8FFF7D8FD059B0293D6
:10236000069B019300942346079A0F490F48FFF7F5
:102370008FFF08B1012300E000239BB14FF0500311
:1023800083F31188BFF36F8FBFF34F8F4FF0FF328E
:10239000074B1A600122074B1A600022064B1A6095
:1023A000FFF7FAFC08B010BD503C0008D12100082E
:1023B000F40B0020F00B0020C80B0020024A136829
:1023C00001331360704700BF840C0020F8B5424B06
:1023D0001B68002B73D1414B1E6801361E6016BB73
:1023E0003F4B1B681B6893B14FF0500383F3118878
:1023F000BFF36F8FBFF34F8F394B1B681B6833B12F
:10240000384B394A40F633213848FFF7AFF8344AA1
:102410001168374B186810601960364A1368013329
:102420001360FFF7C9FD344B1B689E4203D200279F
:102430003AE0012700E00027294B1B681B680BB915
:10244000012300E0002323B14FF0FF322A4B1A6032
:102450002AE0234B1B68DB68DC6863689E4202D27B
:10246000254A136020E0251D2846FFF791FDA36A49
:102470001BB104F11800FFF78BFDE36A012202FA99
:1024800003F11E4802680A43026003EB83039A00CB
:1024900029461B481044FFF755FDE26A194B1B689B
:1024A000DB6A9A42C5D2C7E7164B1B68DB6A03EBAF
:1024B00083039A00124B9B58012B06D806E0124A60
:1024C000136801331360002700E001270F4B1B68DE
:1024D00003B101273846F8BD840C0020C80B00204A
:1024E000CC0B00206C3C0008403B0008943B0008EB
:1024F000180C0020880C0020F40B0020000C002099
:10250000200C0020D40B0020F80B00201C0C002015
:1025100038B5394B1B688BB94FF0500383F31188E2
:10252000BFF36F8FBFF34F8F334B1B6833B9334B00
:10253000334A4FF404613348FFF718F8FFF76AFB9A
:102540002D4B1A68013A1A601B68002B4CD12E4B98
:102550001B6833BB00244AE02C4BDB68DC6804F1C9
:102560001800FFF715FD251D2846FFF711FDE36A4A
:10257000012202FA03F1264802680A43026003EBD3
:1025800083039A00294623481044FFF7DBFCE26AE4
:10259000214B1B68DB6A9A4204D301221F4B1A604D
:1025A00000E00024194B1B68002BD5D10CB1FFF7BC
:1025B00003FD1B4B1C6854B1FFF708FF10B101224B
:1025C000164B1A60013CF7D10022154B1A60134BD1
:1025D0001B685BB14FF08052124B1A60BFF34F8FF4
:1025E000BFF36F8F012402E0002400E00024FFF716
:1025F00045FB204638BD00BF840C0020C43C0008C9
:102600007C3B0008943B0008D00B0020040C002009
:10261000000C0020200C0020D40B00201C0C0020FB
:10262000F80B002004ED00E010B5F0B10446144BA7
:102630001B688BB14FF0500383F31188BFF36F8F8A
:10264000BFF34F8F0E4B1B6833B10E4B0E4A40F257
:102650000F510E48FEF78AFFFFF7B0FE002120461B
:10266000FFF7CAFDFFF754FF00E0002038B94FF034
:102670008052074B1A60BFF34F8FBFF36F8F10BDAF
:10268000840C0020003C0008343B0008943B000808
:1026900004ED00E038B5314B1B681BB10122304B13
:1026A0001A6038BD00222E4B1A602E4B1B681B6B24
:1026B0001A68B2F1A53F0BD15A68B2F1A53F07D114
:1026C0009A68B2F1A53F03D1DB68B3F1A53F05D00D
:1026D000244B186819683431FFF710FC224B1B6833
:1026E000B3FA83F3DBB2C3F11F0303EB83018A0068
:1026F0001E498A58A2B94FF0500282F31188BFF3E5
:102700006F8FBFF34F8F03EB83018A0017498A58FD
:1027100032B9174B174A4FF435611748FEF726FFB9
:10272000124D9900CA1890002844426854684460C9
:1027300019448A0008322A44944205D1606803EBA8
:1027400083018A002A44506003EB83039A00074BFD
:102750001A445368DA68034B1A6038BD840C0020B1
:102760001C0C0020D40B0020000C0020200C0020AA
:10277000083D0008543B0008943B0008014B1868D2
:10278000704700BF14000020844641EA000313F0A4
:1027900003036DD1403A41D351F8043B40F8043B68
:1027A00051F8043B40F8043B51F8043B40F8043B2B
:1027B00051F8043B40F8043B51F8043B40F8043B1B
:1027C00051F8043B40F8043B51F8043B40F8043B0B
:1027D00051F8043B40F8043B51F8043B40F8043BFB
:1027E00051F8043B40F8043B51F8043B40F8043BEB
:1027F00051F8043B40F8043B51F8043B40F8043BDB
:1028000051F8043B40F8043B51F8043B40F8043BCA
:1028100051F8043B40F8043B403ABDD2303211D36A
:1028200051F8043B40F8043B51F8043B40F8043BAA
:1028300051F8043B40F8043B51F8043B40F8043B9A
:10284000103AEDD20C3205D351F8043B40F8043B6A
:10285000043AF9D2043208D0D2071CBF11F8013B68
:1028600000F8013B01D30B8803806046704700BF2E
:10287000082A13D38B078DD010F003038AD0C3F13D
:102880000403D21ADB071CBF11F8013B00F8013B1F
:1028900080D331F8023B20F8023B7BE7043AD9D3DE
:1028A000013A11F8013B00F8013BF9D20B780370B3
:1028B0004B7843708B7883706046704770B48407A0
:1028C00046D0541E002A41D0CDB2034602E0621E1B
:1028D000E4B3144603F8015B9A07F8D1032C2ED910
:1028E000CDB245EA05250F2C45EA054519D903F176
:1028F00010022646103E0F2E42F8105C42F80C5C87
:1029000042F8085C42F8045C02F11002F2D8A4F12B
:10291000100222F00F0204F00F041032032C1344B3
:102920000DD91E462246043A032A46F8045BFAD81B
:10293000221F22F003020432134404F003042CB1DA
:10294000C9B21C4403F8011BA342FBD170BC704701
:1029500014460346C2E700BF00000000000000006C
:102960000000000000000000000000000000000067
:102970000000000000000000000000000000000057
:1029800090F800F06DE9024520F007016FF0000CAF
:1029900010F0070491F820F040F049804FF0000457
:1029A0006FF00700D1E9002391F840F000F1080032
:1029B00082FA4CF2A4FA8CF283FA4CF3A2FA8CF36A
:1029C0004BBBD1E9022382FA4CF200F10800A4FAD1
:1029D0008CF283FA4CF3A2FA8CF3E3B9D1E9042325
:1029E00082FA4CF200F10800A4FA8CF283FA4CF35C
:1029F000A2FA8CF37BB9D1E9062301F1200182FA16
:102A00004CF200F10800A4FA8CF283FA4CF3A2FA1B
:102A10008CF3002BC6D0002A04BF04301A4612BA29
:102A2000B2FA82F2FDE8024500EBD2007047D1E92C
:102A3000002304F00305C4F100004FEAC50514F0BB
:102A4000040F91F840F00CFA05F562EA05021CBF8C
:102A500063EA050362464FF00004A9E770B5002A57
:102A60009AB005462FDB14461A464FF402730091C4
:102A70000491ADF80C3011D0013C4FF6FF761E9B4F
:102A8000029469460594ADF80E6000F017F9421CF7
:102A900012DB009B00221A701AB070BD1E9B0294BC
:102AA0004FF6FF7669460594ADF80E6000F006F922
:102AB000431C04DB1AB070BD8B232B60E9E78B232A
:102AC0002B601AB070BD8B2303604FF0FF30F1E72D
:102AD00010B582B0054C0093246813460A4601469F
:102AE0002046FFF7BBFF02B010BD00BF140000205E
:102AF0002DE9F84F8E689E420C461F46904629D815
:102B00008B8913F4906F35D04D692268096905EB04
:102B10004505C1EB020A814605EBD5750AF10100B6
:102B20006D103844A8422A4684BF05462A465B05F4
:102B300023D51146484600F0BDFC834690B352466B
:102B40002169FFF721FEA38923F4906343F08003FA
:102B5000A38117E008681E461D462A46414600F03C
:102B6000FFFBA36822689E1B1544A6602560002019
:102B7000BDE8F88F35460868EFE7484600F0F8FCF6
:102B8000834658B1CAEB05030BEB0A0065613E466C
:102B9000C4F810B02060A3603D46DEE721694846D6
:102BA00000F042FC0C23C9F80030A38943F0400335
:102BB000A3814FF0FF30BDE8F88F00BF2DE9F04F43
:102BC000936883B09046002B72D083464FF0000983
:102BD000166808688B680D464C46002C45D09C4210
:102BE0001F469A4646D3AB8913F4906F2DD06F6978
:102BF000296907EB4707C1EB000A07EBD777601C91
:102C00007F105044B8423A4684BF07463A465B05B7
:102C100033D51146584600F04DFC002837D05246B7
:102C200029690190FFF7B0FDAA89019B22F4906207
:102C300042F08002AA81CAEB070203EB0A006F612F
:102C40002B612860AA602746A2465246494600F0FA
:102C500087FBD8F80820AB682868DB1B5044141B9E
:102C6000AB602860C8F8084014B3D6F800907468C8
:102C70000836B2E72746A246E7E7584600F078FC58
:102C800003460028D7D12969584600F0CDFB0C2314
:102C9000CBF80030AB89002243F040034FF0FF3007
:102CA000AB81C8F80820C8F8042003B0BDE8F08F55
:102CB0000020C8F8040003B0BDE8F08F2DE9F04F04
:102CC00014468A899DB0150688460393814603D52C
:102CD0000B69002B00F0EC8030238DF82A3023782C
:102CE0007C4DDFF8F4A10021202209918DF82920E4
:102CF000002B00F08580252B264603D117E0252BDD
:102D000000F0888016F8013F002BF8D1B6EB040BD9
:102D100076D022465B4641464846FFF7E9FE013041
:102D20006ED0099B32785B440993002A68D0002357
:102D30004FF0FF31721C0493079306938DF85330C4
:102D40001A930591012604E0049906FA03F30B4354
:102D5000049314465F482178052200F0B1FA621C02
:102D6000431B0028F0D1049BD80644BF20228DF8D5
:102D700053201907217844BF2B228DF853202A298C
:102D80006AD0A1F13002092A0BD8079B14F8011F61
:102D900003EB830302EB4303A1F13002092AF5D9C7
:102DA00007932E2941D003224B4800F089FA48B1FD
:102DB0000499CAEB0000402202FA00F041EA000345
:102DC00001340493217845488DF8281006220134F7
:102DD00000F076FA002861D0414BFBB103AB0093C1
:102DE0004246404B04A94846AFF3008007467A1C90
:102DF00006D0099B3B4409932378002B7FF47BAFDB
:102E0000B8F80C305B0654BF09984FF0FF301DB086
:102E1000BDE8F08FB6EB040B89D07AE7039B07334C
:102E200023F0070308330393E3E761782A291DD0D1
:102E3000A1F130020023092A04F101040593B2D85C
:102E400014F8011F03EB830302EB4303A1F13002EB
:102E5000092AF5D90593A6E7039A116804320029D7
:102E6000039215DB0791617801349AE7039B1A6896
:102E70000592002A03F104030393B8BF4FF0FF3219
:102E800004F10203AEBFA178A17805921C468AE73F
:102E9000494243F0020307910493E4E703AB009334
:102EA0004246104B04A9484600F0B6F807469EE794
:102EB000402100F0FFFAC8F80000C8F8100018B16F
:102EC0004023C8F8143007E70C23C9F800304FF04E
:102ED000FF309CE7703E0008783E00087C3E00080A
:102EE00000000000F12A00082DE9F0470C46914649
:102EF0000969A268DDF820808A42B8BF0A46C9F88D
:102F0000002094F8431006461F4611B10132C9F85B
:102F10000020236899065DD5D9F800200232C9F84F
:102F20000020236813F0060F19461DD1E1688A1AA4
:102F3000002AD8BF194617DD04F1190A002505E05B
:102F4000E368D9F800209B1AAB420CDD01235246FE
:102F500039463046C047013005F10105F0D14FF048
:102F6000FF30BDE8F087216894F84330003318BF84
:102F700001238A060AD5E1185A1C302081F8430043
:102F8000224494F8451082F84310023304F14302BE
:102F900039463046C0470130E1D0236803F00603CC
:102FA000042B29D0A36822699342C8BF4FF00009BF
:102FB0002FDD9B1A99441A34002501E04D4528D095
:102FC0000123224639463046C047013005F101054C
:102FD000F4D1C4E713F0060F08D1E168D9F8002056
:102FE0008A1A002AD8BF1946A6DCBDE794F84330F8
:102FF000003318BF0123C9E7D9F80000E168A368CE
:103000002269091A934221EAE179D2DCB9F1000F71
:10301000D1D10020BDE8F0872DE9F0430C46097EB0
:1030200085B06E29064617460C98984604F1430C65
:103030005AD01AD8632900F0128100F2D6800029F4
:103040005CD0582940F0F58084F845102268036868
:10305000DFF864E2150603F104011ED4550653BFE0
:103060001B6801601B88016019E0732900F0CF80A4
:103070007ED86F2900F0E480702940F0DA80226861
:1030800042F020022260782384F845300368DFF89C
:103090002CE2150603F10401E0D51B680160D0079E
:1030A00044BF42F020022260002B40F09080226852
:1030B00022F0200222601021002284F84320606860
:1030C000A0600028C0F28880226822F004022260FA
:1030D000002B62D1002840F08180654608296AD023
:1030E000C5EB0C0323610CE023681A0640F1D58080
:1030F00003686269191D01601B681A600023654638
:103100002361CDF800803B4603AA21463046FFF7F5
:10311000EBFE013021D02A46236939463046C047AC
:1031200001301AD02368039813F0020FE36819D016
:103130001A1A002A16DD04F11909002504E0E368D3
:1031400003981A1AAA420DDD01234A463946304631
:10315000C047013005F10105F1D14FF0FF3005B056
:10316000BDE8F0839842B8BF184605B0BDE8F083CB
:10317000752965D078295CD1226884E76168A160EF
:103180002D200029C3F1000384F8430021DB22F045
:103190000402DFF824E122600A216546B3FBF1F264
:1031A00001FB123013461EF8002005F8012D002BFC
:1031B000F4D1082994D12368D90791D5626823698D
:1031C0009A428DDC302305F8013C013D88E710214F
:1031D00072E7DFF8E4E00A21002BDED19EF8003030
:1031E00084F8423004F1420578E7642901D0692966
:1031F0001FD122680368150603F104013AD51B6844
:103200000160002BBADBDFF8B0E00A2157E7036862
:103210006268191D01601D680021284600F050F801
:10322000002846D0401B60602061002384F84330B2
:1032300067E7012384F84210236104F14205F4E7B3
:1032400023681A061ED503681A1D1B680260227EB9
:10325000DFF864E06F2A14BF0A2108212CE7036815
:103260001A68191D0123016004F1420584F8422007
:103270002361DAE7550653BF1B680160B3F90030DC
:103280000160BEE713F0400F036803F1040215BFAD
:1032900002601B681B880260D9E713F0400F0368C7
:1032A000626903F1040101601B6814BF1A801A608F
:1032B00024E76068B8E700BF843E0008983E000835
:1032C00001F0FF01102A2BDB10F0070F08D010F8D7
:1032D000013B013A8B422DD010F0070F42B3F6D1DB
:1032E000F0B441EA012141EA014122F007047FF0F4
:1032F00000070023F0E80256083C85EA010586EA4B
:10330000010685FA47F5A3FA87F586FA47F6A5FA86
:1033100087F68EB9EED1F0BC01F0FF0102F0070292
:1033200032B110F8013B013A83EA010313B1F8D13D
:103330000020704701387047002D06BF354603381E
:10334000073815F0010F07D1013015F4807F02BF57
:10335000013015F4C03F0130F0BC0138704700BFA8
:103360008842F0B50DD98B1898420AD28118002AEC
:1033700051D09A1A13F8014D01F8014D9342F9D139
:10338000F0BD0F2A48D941EA00039B0746D100F15E
:10339000100401F11003154653F8106C44F8106C3A
:1033A00053F80C6C44F80C6C53F8086C44F8086C37
:1033B000103D53F8046C44F8046C0F2D03F1100316
:1033C00004F11004E8D8A2F1100323F00F0302F077
:1033D0000F0E1033BEF1030F1944034421D91E1FF1
:1033E0000D467446043C55F8047B46F8047F032CD4
:1033F000F8D8AEF1040424F0030404342344214437
:1034000002F0030262B1013B0A4411F8014B03F8D8
:10341000014F8A42F9D1F0BD0346F3E70346F2E7D4
:10342000F0BD7246EEE700BF30B481B151F8043C04
:103430000439002BB8BFC9181D4B1A682AB18A423B
:103440000AD908680C18A24225D04A60196030BC1D
:1034500070478B4203D81A465368002BF9D1146881
:1034600015198D420CD007D808680C189C4218D04A
:103470004B6030BC516070470C23036030BC704718
:1034800009680C44111999421460E0D10ACB0C442C
:1034900053601460DBE7146852684A602044086097
:1034A000D4E71C685B684B60204408605160CEE73D
:1034B000C80C002070B5CD1C25F0030508350C2D77
:1034C00038BF0C25002D06463BDBA94239D82749D9
:1034D0000A6852B113685B1B04D436E023685B1B97
:1034E0001AD522465468002CF8D149681F4C00298F
:1034F00036D02946304600F05FF8431C21D0C41C6A
:1035000024F00304A04205D0211A304600F054F8FC
:10351000013016D0256004E00B2B0DD923601C442C
:10352000256004F10B0020F00700231DC31A02D010
:103530005A42E25070BD70BD94420ED06368536031
:10354000EFE70C233360002070BD0B2B03D85368CA
:1035500014460B60E5E71446E0E713461446F8E727
:10356000304600F029F86060C3E700BFC80C0020B7
:10357000F9B1F8B506461546B2B10C4600F02EF882
:10358000854201D82046F8BD29463046FFF792FF14
:10359000074668B12A462146FFF7F6F8304621462D
:1035A000FFF742FF3846F8BDFFF73EFF2846F8BD5B
:1035B000F8BD1146FFF77EBF38B5074C002305461E
:1035C00008462360FDF7A8FF431C00D038BD2368E0
:1035D000002BFBD02B6038BDD40C002051F8040C1C
:1035E0000028BEBF091851F8043CC01804387047C1
:1035F0002E2E2F73797374656D2F7372632F73740E
:103600006D333266342D68616C2F73746D3332669E
:103610003478785F68616C5F636F727465782E636D
:10362000000000002E2E2F73797374656D2F737256
:10363000632F73746D333266342D68616C2F73742D
:103640006D3332663478785F68616C5F6770696F7C
:103650002E630000000000000102030401020304C5
:10366000060708092E2E2F73797374656D2F7372F8
:10367000632F73746D333266342D68616C2F7374ED
:103680006D3332663478785F68616C5F7263632E85
:10369000630000002E2E2F73797374656D2F737283
:1036A000632F73746D333266342D68616C2F7374BD
:1036B0006D3332663478785F68616C5F74696D2E43
:1036C0006300000061626F727428292C206578699C
:1036D00074696E672E2E2E002C2066756E637469D9
:1036E0006F6E3A2000000000617373657274696F39
:1036F0006E2022257322206661696C65643A20661B
:10370000696C6520222573222C206C696E6520254A
:1037100064257325730A00006173736572745F70AA
:103720006172616D2829206661696C65643A206662
:10373000696C6520222573222C206C696E6520251A
:10374000640A00006D61696E28617267633D2564DB
:103750002C20617267763D5B000000002C20000089
:1037600022257322000000005D293B0A00000000B2
:10377000537461636B206672616D653A0A000000E4
:10378000205230203D2020253038580A000000000B
:10379000205231203D2020253038580A00000000FA
:1037A000205232203D2020253038580A00000000E9
:1037B000205233203D2020253038580A00000000D8
:1037C00020523132203D20253038580A00000000B8
:1037D000204C52203D2020253038580A000000009F
:1037E000205043203D2020253038580A000000009A
:1037F00020505352203D20253038580A0000000048
:103800004653522F4641523A0A0000002043465385
:1038100052203D2020253038580A000020484653C9
:1038200052203D2020253038580A000020444653BD
:1038300052203D2020253038580A000020414653B0
:1038400052203D2020253038580A0000204D4D469A
:103850004152203D20253038580A00002042464180
:1038600052203D2020253038580A00004D697363EE
:103870000A000000204C522F4558435F52455455D2
:10388000524E3D20253038580A0000005B486172D6
:10389000644661756C745D0A000000005B427573DC
:1038A0004661756C745D0A005B55736167654661BE
:1038B000756C745D0A00000000000000000000004C
:1038C0000102030406070809426C696E6B000000E0
:1038D0007072765461736B457869744572726F7259
:1038E0000000000078506F727453746172745363F7
:1038F000686564756C657200757843726974696394
:10390000616C4E657374696E67203D3D207E305555
:103910004C0000002E2E2F4672656552544F532FD7
:10392000706F727461626C652F4743432F41524D33
:103930005F434D34462F706F72742E630000000099
:103940007578437269746963616C4E657374696EEE
:1039500067203D3D2031303030554C002820282054
:103960002A2028202820766F6C6174696C65207588
:10397000696E7433325F74202A20292030786530D4
:10398000303065643034202920292026202820303A
:10399000784646554C20292029203D3D2030000006
:1039A0007578437269746963616C4E657374696E8E
:1039B0006700000028202A2028202820766F6C61CC
:1039C00074696C652075696E7433325F74202A20C7
:1039D0002920307845303030656430302029202966
:1039E00020213D2028203078343130464332373191
:1039F000554C20290000000028202A2028202820BB
:103A0000766F6C6174696C652075696E7433325FB2
:103A100074202A20292030784530303065643030D9
:103A20002029202920213D2028203078343130469B
:103A300043323730554C2029000000002820282030
:103A4000282075696E74385F74202920372029205A
:103A50002D20756C4D617850524947524F55505644
:103A6000616C75652029203D3D20340075634375E8
:103A70007272656E745072696F72697479203E3D1E
:103A80002075634D617853797343616C6C50726932
:103A90006F72697479000000282028202A202820CD
:103AA0002820766F6C6174696C652075696E74335B
:103AB000325F74202A202920307845303030454448
:103AC00030432029202920262028203078303755DF
:103AD0004C203C3C2038554C20292029203C3D20BE
:103AE000756C4D617850524947524F555056616C34
:103AF0007565000076506F7274456E74657243721E
:103B000069746963616C000076506F7274457869FE
:103B100074437269746963616C000000737461635B
:103B20006B5F6F766572666C6F77206174202573AA
:103B30000A000000765461736B44656C6179000083
:103B4000785461736B496E6372656D656E74546908
:103B5000636B0000765461736B53776974636843D9
:103B60006F6E746578740000785461736B4372658E
:103B70006174655374617469630000007854617303
:103B80006B526573756D65416C6C000078546173A0
:103B90006B0000002E2E2F4672656552544F532F36
:103BA0007461736B732E6300707578537461636B0B
:103BB00042756666657220213D202828766F69640B
:103BC000202A29302900000070785461736B4275F7
:103BD0006666657220213D202828766F6964202A58
:103BE000293029007853697A65203D3D2073697A30
:103BF000656F6628205443425F742029000000004E
:103C000075785363686564756C6572537573706518
:103C10006E646564203D3D203000000070785443A0
:103C200042000000282075784E65775072696F72E7
:103C3000697479203C2028203520292029000000A3
:103C4000785461736B546F526573756D6500000035
:103C500049444C45000000007852657475726E202E
:103C6000213D2028202D3120290000002820282057
:103C7000282042617365547970655F74202920287B
:103C8000202820707844656C617965645461736B99
:103C90004C69737420292D3E75784E756D6265727E
:103CA0004F664974656D73203D3D20282055426163
:103CB0007365547970655F7420292030202920298C
:103CC0002029000075785363686564756C657253CC
:103CD000757370656E6465640000000070785072E2
:103CE0006576696F757357616B6554696D65000022
:103CF00028207854696D65496E6372656D656E74D0
:103D0000203E2030552029002820282026282070F9
:103D10007852656164795461736B734C6973747321
:103D20005B207578546F705072696F726974792076
:103D30005D202920292D3E75784E756D6265724F84
:103D4000664974656D732029203E20300000000014
:103D500070784576656E744C69737400757853633A
:103D6000686564756C657253757370656E646564BF
:103D700020213D20300000007078556E626C6F632A
:103D80006B656454434200007578536368656475DD
:103D90006C657253757370656E64656420213D2097
:103DA0002820282042617365547970655F7420294A
:103DB0002030202900000000707854696D654F752F
:103DC0007400000070785469636B73546F576169B5
:103DD000740000007078544342203D3D20707843C9
:103DE000757272656E7454434200000070785443DB
:103DF000422D3E75784D75746578657348656C64C1
:103E000000000000707854434220213D2070784328
:103E1000757272656E745443420000007854617389
:103E20006B546F4E6F74696679000000282028205B
:103E300026282070785443422D3E784576656E746E
:103E40004C6973744974656D202920292D3E707664
:103E5000436F6E7461696E65722029203D3D202894
:103E600028766F6964202A29302900004300000069
:103E7000232D302B20000000686C4C0065666745E0
:103E80004647000030313233343536373839414215
:103E90004344454600000000303132333435363774
:0C3EA00038396162636465660000000050
:103EAC007856341284000020000000000024F40036
:103EBC00AAAAAAAA18000020000000000000000016
:103ECC0000000000000000000000000000000000E6
:103EDC0000000000000000006C3E00080000000024
:103EEC0000000000000000000000000000000000C6
:103EFC0000000000000000000000000000000000B6
:103F0C0000000000000000000000000000000000A5
:0C3F1C0000000000000000003254769805
:040000050800018965
:00000001FF
